:100000000C945D010C947E010C947E010C947E0195
:100010000C947E010C947E010C947E010C947E0164
:100020000C947E010C947E010C947E010C947E0154
:100030000C947E010C947E010C947E010C947E0144
:100040000C947E010C947E010C947E010C947E0134
:100050000C947E010C947E010C947E010C947E0124
:100060000C947E010C943B050C9467050C947E0166
:100070000C947E010C947E010C947E010C947E0104
:100080000C947E010C947E010C947E010C947E01F4
:100090000C947E010C947E010C947E010C94F00271
:1000A0000C947E010C947E010C947E010C947E01D4
:1000B0000C947E010C947E010C947E010C947E01C4
:1000C0000C947E010C947E010C947E010C947E01B4
:1000D0000C947E010C947E010C947E010C947E01A4
:1000E0000C947E01A103200320032003200320039E
:1000F00020032003350320032003200320032003D3
:10010000200320032F0320032003200320032003C8
:10011000200320034A03200320032003200320039D
:100120002003200391032003200320032003200346
:100130002003200350032003200320032003200377
:100140002003200391032003200320032003200326
:100150002003200391032003200320032003200316
:1001600020032003F803200320032003200320039F
:1001700020032003910320032003200320032003F6
:10018000200320030F042003200320032003200367
:1001900020032003A90320032003200320032003BE
:1001A000200320030D03200320032003200320034A
:1001B000200320030D03200320032003200320033A
:1001C000200320030D03200320032003200320032A
:1001D000200320030D03200320032003200320031A
:1001E00020032003C2032003200320032003200355
:1001F00020032003D4032003200320032003200333
:1002000020032003C2032003200320032003200334
:1002100020032003D4032003200320032003200312
:1002200020032003ED0320032003200320032003E9
:100230002003200364032003200320032003200362
:100240002003200364032003200320032003200352
:10025000200320036D032003200320032003200339
:1002600020032003ED0320032003200320032003A9
:1002700020032003ED030C9450030C94A1030C9471
:1002800091030C9420030C94D4030C9464030C94F9
:10029000A9030C94F8030C94C2030C9435030C943A
:1002A0004A030C940F040C942F030C946D030C94CC
:1002B00036040C940D030C94ED0311241FBECFEFF4
:1002C000D1E2DEBFCDBF00E00CBF12E0A0E0B2E0A3
:1002D000ECE8FDE000E00BBF02C007900D92AE36E7
:1002E000B107D9F723E0AEE6B2E001C01D92A0331A
:1002F000B207E1F70E9495050C94C4060C94000027
:10030000E6EFF2E0118210828FEF82831382109267
:10031000B90088E48093B80085E08093BC00109217
:10032000FB021092FA021092130310921203089526
:100330001092F7021092F6029FEF9093F80210923B
:10034000F9021092B90098E49093B80095E0909368
:10035000BC001092FB021092FA021092130310924A
:100360001203880F611103C08093BA000895816061
:100370008093BA000895F8942091F6023091F70224
:10038000789481E0232B09F080E00895653130F006
:1003900081E0089525E02A95F1F70000F894209176
:1003A000F6023091F7027894232BA1F721E030E098
:1003B0003093F7022093F6024093F90270E0611542
:1003C000710559F0DC01EEEFF2E09B0122503D4F48
:1003D0008D9181932E173F07D9F77093FD0260939B
:1003E000FC021092FB021092FA028091F6029091A8
:1003F000F702029791F085EA8093BC00F89480910F
:10040000F6029091F7027894892B11F480E0089518
:1004100085E08A95F1F70000F1CF8091FA02909182
:10042000FB029C012F5F3F4F3093FB022093FA02A7
:10043000FC01E250FD4F80818093BB0085E88093F2
:10044000BC00DCCF643130F081E0089595E09A95EE
:10045000F1F70000F8942091F6023091F7027894B9
:10046000232BA1F7109213031092120370E07093E4
:10047000290360932803880F8160F8942091F60285
:100480003091F7027894232B29F521E030E0309366
:10049000F7022093F6024093F9028093FE02309314
:1004A000FD022093FC021092FB021092FA0280914E
:1004B000F6029091F7020297B9F085EA8093BC00AA
:1004C000F8948091F6029091F7027894892B39F490
:1004D00080E0089595E09A95F1F70000CECF85E091
:1004E0008A95F1F70000ECCF8091FA029091FB021F
:1004F0009C012F5F3F4F3093FB022093FA02FC01D7
:10050000E250FD4F80818093BB0085E88093BC0062
:10051000D7CF653130F081E0089525E02A95F1F7D5
:100520000000F8942091F6023091F7027894232B82
:10053000A1F721E030E03093F7022093F602109209
:10054000FB021092FA0270E07093FD026093FC02CD
:1005500025E42093BC006115710551F0DC01EEEF3C
:10056000F2E062507D4F8D9181936E177F07D9F72E
:10057000F8948091F6029091F7027894892B11F407
:1005800080E0089585E08A95F1F70000F1CFF894B6
:100590008091F6029091F7027894892BB9F481E06A
:1005A00090E09093F7028093F6021092130310925A
:1005B000120385E48093BC00F8948091F602909138
:1005C000F7027894892B39F480E0089585E08A95C4
:1005D000F1F70000DCCF85E08A95F1F70000ECCF61
:1005E0001F920F920FB60F9211240BB60F922F93FA
:1005F0003F938F939F93AF93BF93EF93FF9380911C
:10060000B900887F90E0893C9105D0F4FC018827EF
:10061000EE58FF4F8F4F0C94B50686E090E0909314
:10062000F7028093F60288EF8093F802809112031C
:100630009091130343970CF470C085E88093BC003D
:10064000FF91EF91BF91AF919F918F913F912F912A
:100650000F900BBE0F900FBE0F901F90189582E069
:1006600090E09093F7028093F6028091FA029091C5
:10067000FB029C012F5F3F4F3093FB022093FA0255
:10068000FC01E250FD4F80818093BB0085E88093A0
:10069000BC00D6CF83E090E09093F7028093F602FF
:1006A0002091FA023091FB028091FC029091FD02B0
:1006B00028173907D4F28091F902882309F4C1C0C0
:1006C00085EA8093BC00BCCF85E090E09093F70270
:1006D0008093F60285E48093BC008091FA029091A9
:1006E000FB029C012F5F3F4F3093FB022093FA02E5
:1006F000FC01E250FD4F80818093BB0088EF809326
:10070000F8022091FA023091FB028091FC02909154
:10071000FD02281739070CF090CF85EC8093BC00C0
:100720008FCF8091F6029091F702019709F494C05F
:100730008091B900887F8093F8028091F90281113D
:10074000BFCF85E98093BC001092F7021092F602A9
:1007500077CF80911203909113039C012F5F3F4F3D
:1007600030931303209312032091BB00FC01EC5E35
:10077000FC4F20838FEF8093F8028091F902882349
:1007800001F39ECF80911203909113039C012F5F80
:100790003F4F30931303209312032091BB00FC01C1
:1007A000EC5EFC4F20833FCF8091120390911303A6
:1007B0009C012F5F3F4F309313032093120320912E
:1007C000BB00FC01EC5EFC4F20838FEF8093F802AE
:1007D0008091F902811134CFB7CF8FEF8093F80267
:1007E00085E88093BC008091F902811129CFACCFBC
:1007F00084E090E09093F7028093F60288EF809374
:10080000F8022091120330911303809128039091F4
:1008100029030197281739070CF00FCF7ECF80915D
:100820001203909113039C012F5F3F4F30931303EA
:10083000209312032091BB00FC01EC5EFC4F20834F
:10084000DDCF85E98093BC008FEF8093F802109292
:10085000F7021092F602F4CE8091FA029091FB0218
:1008600001979093FB028093FA022ACF8A3049F0D5
:100870009091C00095FFFCCF8093C60080E090E08F
:1008800008959091C00095FFFCCF9DE09093C60025
:10089000EFCF9093C5008093C40086E08093C200A0
:1008A00088E98093C10008959091C00095FFFCCF26
:1008B0008093C60008958091C00087FFFCCF80918F
:1008C000C60008958091C000881F8827881F08955A
:1008D000FC012081222351F031969091C00095FFB8
:1008E000FCCF2093C60021912111F7CF089580E01D
:1008F00092E090932D0380932C031092C50082E325
:100900008093C40086E08093C20088E98093C10090
:100910000895F8941092C50083E38093C400E1EC3D
:10092000F0E08081886180838081806C808386E0B4
:100930008093C2001092F5021092F4021092F3021A
:100940001092F202789408959091F5028091F40249
:100950009817D1F3E091F402EF5FEF71E093F402A6
:10096000F0E0EE54FD4F80819091C100906890932B
:10097000C10008952091F3022F5F2F719091F20230
:100980002917E1F3E22FF0E0EE52FD4F8083209330
:10099000F3028091C10080628093C100089530917C
:1009A000F3023F5F3F712091F2023217E1F3E32F30
:1009B000F0E0EE52FD4F21E620833093F3022091C8
:1009C000C10020622093C1003091F3023F5F3F716C
:1009D0002091F2023217E1F3E32FF0E0EE52FD4FE7
:1009E0002AE020833093F3022091C10020622093FB
:1009F000C100DC012091F5029091F4022917D1F396
:100A0000E091F402EF5FEF71E093F402F0E0EE5456
:100A1000FD4F90812091C10020682093C1009D93DB
:100A2000992339F09A3011F09D3021F7FD0131976B
:100A300010829A2F981B892F0895FC01308133234F
:100A4000C9F0DC0111962091F3022F5F2F71909174
:100A5000F2022917E1F3E22FF0E0EE52FD4F30836E
:100A60002093F3029091C10090629093C1003D9158
:100A70003111E9CF08951F920F920FB60F921124F2
:100A80000BB60F928F939F93EF93FF939091C600B5
:100A9000E091F502EF5FEF718091F402E81789F0C1
:100AA000E093F502F0E0EE54FD4F9083FF91EF915B
:100AB0009F918F910F900BBE0F900FBE0F901F90C4
:100AC00018958091C1008F778093C100EFCF1F925E
:100AD0000F920FB60F9211240BB60F928F939F9324
:100AE000EF93FF939091F3028091F2029817B9F07F
:100AF000E091F202EF5FEF71E093F202F0E0EE526C
:100B0000FD4F80818093C600FF91EF919F918F915F
:100B10000F900BBE0F900FBE0F901F9018958091F5
:100B2000C1008F7D8093C100EFCFCF93DF93CDB70E
:100B3000DEB7CC54D1090FB6F894DEBF0FBECDBFDF
:100B40000E94890478940E94800185E0EEE0F2E042
:100B5000DE019A9601900D928A95E1F785E0FE01FB
:100B6000BF96DF01982F1D929A95E9F7EEE0F2E02B
:100B7000DE019096982F01900D929A95E1F7FE0173
:100B8000B596DF01982F1D929A95E9F7EEE0F2E015
:100B9000DE015696982F01900D929A95E1F7FE018D
:100BA0007B96DF01982F1D929A95E9F7EEE0F2E02F
:100BB000DE011C96982F01900D929A95E1F7FE01A7
:100BC0007196DF01982F1D929A95E9F798E0E8E178
:100BD000F2E0DE01D49601900D929A95E1F7E0E201
:100BE000F2E0DE01A85BBF4F982F01900D929A951D
:100BF000E1F7E5E2F2E0DE01AD5BBF4F01900D925F
:100C00008A95E1F787E0EAE2F2E0DE01DC96019006
:100C10000D928A95E1F702E014E072C0CE010C96C5
:100C20000E94CF048C85882309F497C024960FAFC7
:100C3000249740E065E0CE018D5B9F4F0E94C60186
:100C40000983BE01605E7F4FCE0102960E94BD0601
:100C500040E06BE0CE0101960E94C60124961FAFD2
:100C6000249740E065E0CE018D5B9F4F0E94C60156
:100C70001983BE01645F7F4FCE0102960E94BD06BC
:100C800040E06BE0CE0101960E94C60140E067E0C3
:100C9000CE01CC960E94C60140E068E0CE01C49629
:100CA0000E94C60129960FAF299740E065E0CE016A
:100CB000885B9F4F0E94C60140E06AE081E00E948D
:100CC000220264E173E0CE018A960E94BD06299655
:100CD0001FAF299740E065E0CE01885B9F4F0E94DF
:100CE000C60140E06AE082E00E94220264E173E013
:100CF000CE0146960E94BD068EE492E00E941D053C
:100D000081E392E00E941D05CE018A960E941D0596
:100D10008EE492E00E941D0580E592E00E941D0590
:100D2000CE0146960E941D058EE492E00E941D05AC
:100D3000CE0180960E94CF0488A181116FCFBE01A1
:100D4000665D7F4FCE0180960E94BD06CE010C9657
:100D50000E94CF048C85811169CFBE016A5E7F4FEE
:100D6000CE010C960E94BD0661CFEE0FFF1F881FBB
:100D70008BBF0790F691E02D1994FB01DC010190E7
:0C0D80000D920020E1F70895F894FFCFD9
:100D8C0000000002000000003604000000006E6F3E
:100D9C006E650000000000000073616D706C6500F2
:100DAC0000676574000073657400006170706C7985
:100DBC000056656C6F6369746120636F7272656E47
:100DCC007465206D6F746F726520313A20000A00D3
:100DDC0056656C6F6369746120636F7272656E74B3
:0E0DEC0065206D6F746F726520323A20000032
:00000001FF
