:100000000C945D010C947E010C947E010C947E0195
:100010000C947E010C947E010C947E010C947E0164
:100020000C947E010C947E010C947E010C947E0154
:100030000C947E010C947E010C947E010C947E0144
:100040000C947E010C947E010C947E010C947E0134
:100050000C947E010C947E010C947E010C947E0124
:100060000C947E010C9424050C9450050C947E0194
:100070000C947E010C947E010C947E010C947E0104
:100080000C947E010C947E010C947E010C947E01F4
:100090000C947E010C947E010C947E010C94EE0273
:1000A0000C947E010C947E010C947E010C947E01D4
:1000B0000C947E010C947E010C947E010C947E01C4
:1000C0000C947E010C947E010C947E010C947E01B4
:1000D0000C947E010C947E010C947E010C947E01A4
:1000E0000C947E019F031E031E031E031E031E03AA
:1000F0001E031E0333031E031E031E031E031E03E3
:100100001E031E032D031E031E031E031E031E03D8
:100110001E031E0348031E031E031E031E031E03AD
:100120001E031E038F031E031E031E031E031E0356
:100130001E031E034E031E031E031E031E031E0387
:100140001E031E038F031E031E031E031E031E0336
:100150001E031E038F031E031E031E031E031E0326
:100160001E031E03F6031E031E031E031E031E03AF
:100170001E031E038F031E031E031E031E031E0306
:100180001E031E030D041E031E031E031E031E0377
:100190001E031E03A7031E031E031E031E031E03CE
:1001A0001E031E030B031E031E031E031E031E035A
:1001B0001E031E030B031E031E031E031E031E034A
:1001C0001E031E030B031E031E031E031E031E033A
:1001D0001E031E030B031E031E031E031E031E032A
:1001E0001E031E03C0031E031E031E031E031E0365
:1001F0001E031E03D2031E031E031E031E031E0343
:100200001E031E03C0031E031E031E031E031E0344
:100210001E031E03D2031E031E031E031E031E0322
:100220001E031E03EB031E031E031E031E031E03F9
:100230001E031E0362031E031E031E031E031E0372
:100240001E031E0362031E031E031E031E031E0362
:100250001E031E036B031E031E031E031E031E0349
:100260001E031E03EB031E031E031E031E031E03B9
:100270001E031E03EB030C940D040C941E030C943C
:100280000B030C9462030C94EB030C949F030C94EB
:100290008F030C9433030C94F6030C944E030C94CC
:1002A000A7030C94D2030C9448030C942D030C94D4
:1002B0006B030C9434040C94C00311241FBECFEFC5
:1002C000D1E2DEBFCDBF00E00CBF12E0A0E0B2E0A3
:1002D000E6EEFCE000E00BBF02C007900D92A237F3
:1002E000B107D9F723E0A2E7B2E001C01D92A43321
:1002F000B207E1F70E947E050C9471060C94000091
:10030000EAEFF2E0118210828FEF82831382109263
:10031000B90088E48093B80085E08093BC00109217
:10032000FF021092FE021092170310921603089516
:100330001092FB021092FA029FEF9093FC0210922F
:10034000FD021092B90098E49093B80095E0909364
:10035000BC001092FF021092FE021092170310923E
:100360001603880F611103C08093BA00089581605D
:100370008093BA0008952091FA023091FB0281E047
:10038000232B09F080E00895653128F03FC025E077
:100390002A95F1F700002091FA023091FB02232BFD
:1003A000B1F721E030E03093FB022093FA02409352
:1003B000FD0270E06115710559F0DC01E2E0F3E047
:1003C0009B012E5F3C4F8D918193E217F307D9F784
:1003D00070930103609300031092FF021092FE02DB
:1003E0008091FA029091FB02029791F085EA809346
:1003F000BC0004C085E08A95F1F700008091FA0204
:100400009091FB02892BB1F780E0089581E0089577
:100410008091FE029091FF029C012F5F3F4F30932D
:10042000FF022093FE02FC01EE5FFC4F808180936F
:10043000BB0085E88093BC00E1CF643128F04DC05B
:1004400095E09A95F1F700002091FA023091FB02B5
:10045000232BB1F7109217031092160370E07093DC
:100460002D0360932C03880F81602091FA02309154
:10047000FB02232B51F095E09A95F1F700002091B3
:10048000FA023091FB02232BB1F721E030E03093E8
:10049000FB022093FA024093FD0280930203309303
:1004A0000103209300031092FF021092FE0280913C
:1004B000FA029091FB02029791F085EA8093BC00CA
:1004C00004C085E08A95F1F700008091FA029091CE
:1004D000FB02892BB1F780E0089581E008958091B7
:1004E000FE029091FF029C012F5F3F4F3093FF026D
:1004F0002093FE02FC01EE5FFC4F80818093BB00E5
:1005000085E88093BC00E1CF653128F03BC025E051
:100510002A95F1F700002091FA023091FB02232B7B
:10052000B1F721E030E03093FB022093FA02109201
:10053000FF021092FE0270E07093010360930003CB
:1005400025E42093BC0061157105A1F0DC01E2E017
:10055000F3E06E5F7C4F8D918193E617F707D9F733
:100560008091FA029091FB02892B51F085E08A95E7
:10057000F1F700008091FA029091FB02892BB1F70C
:1005800080E0089581E0089504C085E08A95F1F740
:1005900000008091FA029091FB02892BB1F781E073
:1005A00090E09093FB028093FA021092170310924E
:1005B000160385E48093BC008091FA029091FB02BF
:1005C000892B51F085E08A95F1F700008091FA02BD
:1005D0009091FB02892BB1F780E008951F920F9252
:1005E0000FB60F9211240BB60F922F933F938F9358
:1005F0009F93AF93BF93EF93FF938091B900887F50
:1006000090E0893C9105D0F4FC018827EE58FF4F1B
:100610008F4F0C94620686E090E09093FB028093EB
:10062000FA0288EF8093FC028091160390911703E1
:1006300043970CF470C085E88093BC00FF91EF9164
:10064000BF91AF919F918F913F912F910F900BBED2
:100650000F900FBE0F901F90189582E090E090933E
:10066000FB028093FA028091FE029091FF029C01AE
:100670002F5F3F4F3093FF022093FE02FC01EE5F9D
:10068000FC4F80818093BB0085E88093BC00D6CF6F
:1006900083E090E09093FB028093FA022091FE02A7
:1006A0003091FF02809100039091010328173907D0
:1006B000D4F28091FD02882309F4C1C085EA8093B9
:1006C000BC00BCCF85E090E09093FB028093FA02DF
:1006D00085E48093BC008091FE029091FF029C0112
:1006E0002F5F3F4F3093FF022093FE02FC01EE5F2D
:1006F000FC4F80818093BB0088EF8093FC022091A7
:10070000FE023091FF0280910003909101032817AF
:1007100039070CF090CF85EC8093BC008FCF80918F
:10072000FA029091FB02019709F494C08091B900FC
:10073000887F8093FC028091FD028111BFCF85E903
:100740008093BC001092FB021092FA0277CF809146
:100750001603909117039C012F5F3F4F30931703AF
:10076000209316032091BB00FC01E85EFC4F208320
:100770008FEF8093FC028091FD02882301F39ECFCE
:1007800080911603909117039C012F5F3F4F309388
:100790001703209316032091BB00FC01E85EFC4F79
:1007A00020833FCF80911603909117039C012F5F08
:1007B0003F4F30931703209316032091BB00FC0199
:1007C000E85EFC4F20838FEF8093FC028091FD0256
:1007D000811134CFB7CF8FEF8093FC0285E88093EF
:1007E000BC008091FD02811129CFACCF84E090E064
:1007F0009093FB028093FA0288EF8093FC02209191
:1008000016033091170380912C0390912D030197CB
:10081000281739070CF00FCF7ECF809116039091E7
:1008200017039C012F5F3F4F30931703209316034C
:100830002091BB00FC01E85EFC4F2083DDCF85E901
:100840008093BC008FEF8093FC021092FB02109209
:10085000FA02F4CE8091FE029091FF0201979093EC
:10086000FF028093FE022ACF8A3049F09091C000A7
:1008700095FFFCCF8093C60080E090E008959091B2
:10088000C00095FFFCCF9DE09093C600EFCF909302
:10089000C5008093C40086E08093C20088E98093FD
:1008A000C10008959091C00095FFFCCF8093C600D1
:1008B00008958091C00087FFFCCF8091C600089505
:1008C0008091C000881F8827881F0895FC0120811F
:1008D000222351F031969091C00095FFFCCF2093D8
:1008E000C60021912111F7CF089580E092E0909306
:1008F0003103809330031092C50082E38093C400DB
:1009000086E08093C20088E98093C1000895F8943E
:100910001092C50083E38093C400E1ECF0E0808195
:10092000886180838081806C808386E08093C200B0
:100930001092F9021092F8021092F7021092F60249
:10094000789408959091F9028091F8029817D1F364
:10095000E091F802EF5FEF71E093F802F0E0EA5403
:10096000FD4F80819091C10090689093C1000895DF
:100970002091F7022F5F2F719091F6022917E1F372
:10098000E22FF0E0EA52FD4F80832093F70280913E
:10099000C10080628093C1000895DC012091F902BA
:1009A0009091F8022917D1F3E091F802EF5FEF710F
:1009B000E093F802F0E0EA54FD4F90812091C100ED
:1009C00020682093C1009D939923E1F09A3011F0A3
:1009D0009D3021F7FD01319710822091F90290910D
:1009E000F8022917D1F3E091F802EF5FEF71E0937D
:1009F000F802F0E0EA54FD4F90819091C1009068B8
:100A00009093C1009A2F981B892F0895FC01308183
:100A10003323C9F0DC0111962091F7022F5F2F716B
:100A20009091F6022917E1F3E22FF0E0EA52FD4F30
:100A300030832093F7029091C10090629093C1009F
:100A40003D913111E9CF08951F920F920FB60F9289
:100A500011240BB60F928F939F93EF93FF93909176
:100A6000C600E091F902EF5FEF718091F802E8179C
:100A700089F0E093F902F0E0EA54FD4F9083FF9192
:100A8000EF919F918F910F900BBE0F900FBE0F9023
:100A90001F9018958091C1008F778093C100EFCF90
:100AA0001F920F920FB60F9211240BB60F928F93D5
:100AB0009F93EF93FF939091F7028091F60298171E
:100AC000B9F0E091F602EF5FEF71E093F602F0E02B
:100AD000EA52FD4F80818093C600FF91EF919F9174
:100AE0008F910F900BBE0F900FBE0F901F90189517
:100AF0008091C1008F7D8093C100EFCFCF93DF93B2
:100B0000CDB7DEB7C254D1090FB6F894DEBF0FBE21
:100B1000CDBF0E9487040E94750478940E948001D2
:100B200085E0EEE0F2E0DE01569601900D928A95A6
:100B3000E1F785E0FE017B96DF01982F1D929A95E3
:100B4000E9F7EEE0F2E0DE011C96982F01900D929D
:100B50009A95E1F7FE017196DF01982F1D929A9503
:100B6000E9F798E0E8E1F2E0DE01909601900D925D
:100B70009A95E1F7E0E2F2E0DE01DE96982F01902F
:100B80000D929A95E1F7E5E2F2E0DE01D996982F11
:100B900001900D929A95E1F7EAE2F2E0DE01D49637
:100BA000982F01900D929A95E1F7EFE2F2E0DE01C5
:100BB0009F9601900D928A95E1F787E0E4E3F2E0D9
:100BC000DE01989601900D928A95E1F782E0898383
:100BD00040E068E0CE0180960E94C40140E065E0FC
:100BE000CE01CE960E94C40140E06AE081E00E94FE
:100BF0001D0268E173E0CE0146960E946A0640E05D
:100C000065E0CE01C4960E94C401BE01645F7F4FBF
:100C1000CE0102960E946A0640E06BE0CE0101968A
:100C20000E94C40140E065E0CE01C9960E94C40163
:100C300040E06AE082E00E941D0268E173E0CE01BC
:100C400046960E946A0640E065E0CE018F960E94BB
:100C5000C401BE01645F7F4FCE0102960E946A0606
:100C600040E06BE0CE0101960E94C40140E067E0E5
:100C7000CE0188960E94C401BE01645F7F4FCE0101
:100C800046960E946A068BE392E00E940605CE011A
:100C900046960E94060580E792E00E9406058EE4D3
:100CA00092E00E940605CE010C960E94CD048C8530
:100CB00081118ECFBE016A5E7F4FCE010C960E94DD
:100CC0006A0686CFEE0FFF1F881F8BBF0790F69135
:100CD000E02D1994FB01DC0101900D920020E1F759
:060CE0000895F894FFCF17
:100CE60000000002000000003404000000006E6FE7
:100CF6006E650000000000000073616D706C650099
:100D06000267657400046765740002736574000405
:100D160073657400006170706C790063757272653A
:100D26006E745F76656C6F636974793A2000496EFC
:100D3600736572697265206C612076656C6F636994
:100D4600746120646573696465726174612E2E2E08
:020D56000A0091
:00000001FF
