:100000000C945D010C947E010C947E010C947E0195
:100010000C947E010C947E010C947E010C947E0164
:100020000C947E010C947E010C947E010C947E0154
:100030000C947E010C947E010C947E010C947E0144
:100040000C947E010C947E010C947E010C947E0134
:100050000C947E010C947E010C947E010C947E0124
:100060000C947E010C9426050C9452050C947E0190
:100070000C947E010C947E010C947E010C947E0104
:100080000C947E010C947E010C947E010C947E01F4
:100090000C947E010C947E010C947E010C94F00271
:1000A0000C947E010C947E010C947E010C947E01D4
:1000B0000C947E010C947E010C947E010C947E01C4
:1000C0000C947E010C947E010C947E010C947E01B4
:1000D0000C947E010C947E010C947E010C947E01A4
:1000E0000C947E01A103200320032003200320039E
:1000F00020032003350320032003200320032003D3
:10010000200320032F0320032003200320032003C8
:10011000200320034A03200320032003200320039D
:100120002003200391032003200320032003200346
:100130002003200350032003200320032003200377
:100140002003200391032003200320032003200326
:100150002003200391032003200320032003200316
:1001600020032003F803200320032003200320039F
:1001700020032003910320032003200320032003F6
:10018000200320030F042003200320032003200367
:1001900020032003A90320032003200320032003BE
:1001A000200320030D03200320032003200320034A
:1001B000200320030D03200320032003200320033A
:1001C000200320030D03200320032003200320032A
:1001D000200320030D03200320032003200320031A
:1001E00020032003C2032003200320032003200355
:1001F00020032003D4032003200320032003200333
:1002000020032003C2032003200320032003200334
:1002100020032003D4032003200320032003200312
:1002200020032003ED0320032003200320032003E9
:100230002003200364032003200320032003200362
:100240002003200364032003200320032003200352
:10025000200320036D032003200320032003200339
:1002600020032003ED0320032003200320032003A9
:1002700020032003ED030C9450030C94A1030C9471
:1002800091030C9420030C94D4030C9464030C94F9
:10029000A9030C94F8030C94C2030C9435030C943A
:1002A0004A030C940F040C942F030C946D030C94CC
:1002B00036040C940D030C94ED0311241FBECFEFF4
:1002C000D1E2DEBFCDBF00E00CBF12E0A0E0B2E0A3
:1002D000E2E6FDE000E00BBF02C007900D92A43DF6
:1002E000B107D9F723E0A4EDB2E001C01D92A63911
:1002F000B207E1F70E9480050C94AF060C94000051
:10030000ECE5F3E0118210828FEF8283138210926A
:10031000B90088E48093B80085E08093BC00109217
:10032000610310926003109279031092780308958C
:1003300010925D0310925C039FEF90935E03109206
:100340005F031092B90098E49093B80095E0909301
:10035000BC00109261031092600310927903109216
:100360007803880F611103C08093BA0008958160FB
:100370008093BA000895F89420915C0330915D0356
:10038000789481E0232B09F080E00895653130F006
:1003900081E0089525E02A95F1F70000F894209176
:1003A0005C0330915D037894232BA1F721E030E0CA
:1003B00030935D0320935C0340935F0370E061150D
:1003C000710559F0DC01E4E6F3E09B012C593C4F48
:1003D0008D9181932E173F07D9F770936303609334
:1003E0006203109261031092600380915C0390910C
:1003F0005D03029791F085EA8093BC00F8948091A8
:100400005C0390915D037894892B11F480E008954A
:1004100085E08A95F1F70000F1CF8091600390911B
:1004200061039C012F5F3F4F309361032093600372
:10043000FC01EC59FC4F80818093BB0085E88093E0
:10044000BC00DCCF643130F081E0089595E09A95EE
:10045000F1F70000F89420915C0330915D037894EB
:10046000232BA1F7109279031092780370E0709318
:100470008F0360938E03880F8160F89420915C0352
:1004800030915D037894232B29F521E030E03093FF
:100490005D0320935C0340935F0380936403309378
:1004A00063032093620310926103109260038091B2
:1004B0005C0390915D030297B9F085EA8093BC00DC
:1004C000F89480915C0390915D037894892B39F4C2
:1004D00080E0089595E09A95F1F70000CECF85E091
:1004E0008A95F1F70000ECCF809160039091610351
:1004F0009C012F5F3F4F3093610320936003FC0109
:10050000EC59FC4F80818093BB0085E88093BC0050
:10051000D7CF653130F081E0089525E02A95F1F7D5
:100520000000F89420915C0330915D037894232BB4
:10053000A1F721E030E030935D0320935C0310923B
:1005400061031092600370E0709363036093620331
:1005500025E42093BC006115710551F0DC01E4E64F
:10056000F3E06C597C4F8D9181936E177F07D9F71B
:10057000F89480915C0390915D037894892B11F439
:1005800080E0089585E08A95F1F70000F1CFF894B6
:1005900080915C0390915D037894892BB9F481E09C
:1005A00090E090935D0380935C0310927903109226
:1005B000780385E48093BC00F89480915C0390916B
:1005C0005D037894892B39F480E0089585E08A955D
:1005D000F1F70000DCCF85E08A95F1F70000ECCF61
:1005E0001F920F920FB60F9211240BB60F922F93FA
:1005F0003F938F939F93AF93BF93EF93FF9380911C
:10060000B900887F90E0893C9105D0F4FC018827EF
:10061000EE58FF4F8F4F0C94A00686E090E0909329
:100620005D0380935C0388EF80935E038091780381
:100630009091790343970CF470C085E88093BC00D7
:10064000FF91EF91BF91AF919F918F913F912F912A
:100650000F900BBE0F900FBE0F901F90189582E069
:1006600090E090935D0380935C0380916003909190
:1006700061039C012F5F3F4F309361032093600320
:10068000FC01EC59FC4F80818093BB0085E880938E
:10069000BC00D6CF83E090E090935D0380935C0331
:1006A0002091600330916103809162039091630314
:1006B00028173907D4F280915F03882309F4C1C059
:1006C00085EA8093BC00BCCF85E090E090935D0309
:1006D00080935C0385E48093BC00809160039091DB
:1006E00061039C012F5F3F4F3093610320936003B0
:1006F000FC01EC59FC4F80818093BB0088EF809314
:100700005E032091600330916103809162039091B8
:100710006303281739070CF090CF85EC8093BC0059
:100720008FCF80915C0390915D03019709F494C091
:100730008091B900887F80935E0380915F0381116F
:10074000BFCF85E98093BC0010925D0310925C03DB
:1007500077CF80917803909179039C012F5F3F4F71
:1007600030937903209378032091BB00FC01E65875
:10077000FC4F20838FEF80935E0380915F0388237B
:1007800001F39ECF80917803909179039C012F5FB4
:100790003F4F30937903209378032091BB00FC01F5
:1007A000E658FC4F20833FCF8091780390917903E6
:1007B0009C012F5F3F4F3093790320937803209162
:1007C000BB00FC01E658FC4F20838FEF80935E0353
:1007D00080915F03811134CFB7CF8FEF80935E0399
:1007E00085E88093BC0080915F03811129CFACCF55
:1007F00084E090E090935D0380935C0388EF8093A6
:100800005E03209178033091790380918E0390915B
:100810008F030197281739070CF00FCF7ECF8091F7
:100820007803909179039C012F5F3F4F30937903B8
:10083000209378032091BB00FC01E658FC4F2083F5
:10084000DDCF85E98093BC008FEF80935E0310922B
:100850005D0310925C03F4CE80916003909161037C
:10086000019790936103809360032ACF8A3049F007
:100870009091C00095FFFCCF8093C60080E090E08F
:1008800008959091C00095FFFCCF9DE09093C60025
:10089000EFCF9093C5008093C40086E08093C200A0
:1008A00088E98093C10008959091C00095FFFCCF26
:1008B0008093C60008958091C00087FFFCCF80918F
:1008C000C60008958091C000881F8827881F08955A
:1008D000FC012081222351F031969091C00095FFB8
:1008E000FCCF2093C60021912111F7CF089580E01D
:1008F00092E090939303809392031092C50082E359
:100900008093C40086E08093C20088E98093C10090
:100910000895F8941092C50083E38093C400E1EC3D
:10092000F0E08081886180838081806C808386E0B4
:100930008093C20010925B0310925A0310925903E5
:10094000109258037894089590915B0380915A0314
:100950009817D1F3E0915A03EF5FEF71E0935A03D8
:10096000F0E0E85EFC4F80819091C1009068909328
:10097000C1000895209159032F5F2F719091580362
:100980002917E1F3E22FF0E0E85CFC4F808320932D
:1009900059038091C10080628093C1000895DC01F9
:1009A00020915B0390915A032917D1F3E0915A03E8
:1009B000EF5FEF71E0935A03F0E0E85EFC4F908147
:1009C0002091C10020682093C1009D939923E1F0FC
:1009D0009A3011F09D3021F7FD013197108220915E
:1009E0005B0390915A032917D1F3E0915A03EF5F0B
:1009F000EF71E0935A03F0E0E85EFC4F9081909134
:100A0000C10090689093C1009A2F981B892F089578
:100A1000FC0130813323C9F0DC0111962091590388
:100A20002F5F2F71909158032917E1F3E22FF0E027
:100A3000E85CFC4F3083209359039091C100906291
:100A40009093C1003D913111E9CF08951F920F920B
:100A50000FB60F9211240BB60F928F939F93EF93C3
:100A6000FF939091C600E0915B03EF5FEF7180917F
:100A70005A03E81789F0E0935B03F0E0E85EFC4F6F
:100A80009083FF91EF919F918F910F900BBE0F90EC
:100A90000FBE0F901F9018958091C1008F778093A3
:100AA000C100EFCF1F920F920FB60F9211240BB619
:100AB0000F928F939F93EF93FF939091590380919F
:100AC00058039817B9F0E0915803EF5FEF71E09386
:100AD0005803F0E0E85CFC4F80818093C600FF91F2
:100AE000EF919F918F910F900BBE0F900FBE0F90C3
:100AF0001F9018958091C1008F7D8093C100EFCF2A
:100B0000CF93DF93CDB7DEB7CC54D1090FB6F894AD
:100B1000DEBF0FBECDBF0E9489040E947704789487
:100B20000E94800185E0EEE0F2E0DE019A960190FD
:100B30000D928A95E1F785E0FE01BF96DF01982FBF
:100B40001D929A95E9F7EEE0F2E0DE019096982F7B
:100B500001900D929A95E1F7FE01B596DF01982F6D
:100B60001D929A95E9F7EEE0F2E0DE015696982F95
:100B700001900D929A95E1F7FE017B96DF01982F87
:100B80001D929A95E9F7EEE0F2E0DE011C96982FAF
:100B900001900D929A95E1F7FE017196DF01982F71
:100BA0001D929A95E9F798E0E8E1F2E0DE01D4962B
:100BB00001900D929A95E1F7E0E2F2E0DE01A85B88
:100BC000BF4F982F01900D929A95E1F7E5E2F2E080
:100BD000DE01AD5BBF4F01900D928A95E1F787E092
:100BE000EAE2F2E0DE01DC9601900D928A95E1F7EF
:100BF00002E014E072C08FE992E00E940805CE0185
:100C00000C960E94CF048C85882309F491C0249609
:100C10000FAF249740E065E0CE018D5B9F4F0E94AF
:100C2000C6010983BE01605E7F4FCE0102960E941D
:100C3000A80640E06BE0CE0101960E94C601249612
:100C40001FAF249740E065E0CE018D5B9F4F0E946F
:100C5000C6011983BE01645F7F4FCE0102960E94D8
:100C6000A80640E06BE0CE0101960E94C60140E07C
:100C700067E0CE01CC960E94C60140E068E0CE015C
:100C8000C4960E94C60129960FAF299740E065E0FF
:100C9000CE01885B9F4F0E94C60140E06AE081E080
:100CA0000E9422026AE773E0CE018A960E94A8069B
:100CB00029961FAF299740E065E0CE01885B9F4FE2
:100CC0000E94C60140E06AE082E00E9422026AE7D8
:100CD00073E0CE0146960E94A80681E392E00E944E
:100CE0000805CE018A960E9408058DE992E00E94CF
:100CF00008058EE492E00E940805CE0146960E9407
:100D000008058DE992E00E9408058BE692E00E94BA
:100D10000805CE0180960E94CF0488A181116BCF77
:100D2000BE01665D7F4FCE0180960E94A80663CF0C
:100D3000BE016A5E7F4FCE010C960E94A80667CF67
:100D4000EE0FFF1F881F8BBF0790F691E02D1994BF
:100D5000FB01DC0101900D920020E1F70895F89469
:020D6000FFCFC3
:100D620000000002000000003604000000006E6F68
:100D72006E650000000000000073616D706C65001C
:100D820000676574000073657400006170706C79AF
:100D92000056656C6F6369746120636F7272656E71
:100DA2007465206D6F746F726520313A200056654C
:100DB2006C6F6369746120636F7272656E74652013
:100DC2006D6F746F726520323A2000496E736572DE
:100DD200697265206C612076656C6F63697461204D
:100DE20064657369646572617461207065722069FB
:100DF2006C206D6F746F726520312E2E2E0A0049A1
:100E02006E736572697265206C612076656C6F63C2
:100E120069746120646573696465726174612070CC
:100E2200657220696C206D6F746F726520322E2E90
:040E32002E0A000084
:00000001FF
