:100000000C94A5010C94C6010C94C6010C94C60175
:100010000C94C6010C94C6010C94C6010C94C60144
:100020000C94C6010C94C6010C94C6010C94C60134
:100030000C94C6010C94C6010C94C6010C94C60124
:100040000C94C6010C94C6010C94C6010C94C60114
:100050000C94C6010C94C6010C94C6010C94C60104
:100060000C94C6010C94C6010C94C6010C94C601F4
:100070000C94C6010C94C6010C94C6010C94C601E4
:100080000C94C6010C94C6010C94C6010C94C601D4
:100090000C94C6010C94C6010C94C6010C94D002B9
:1000A0000C94C6010C94C6010C94C6010C94C601B4
:1000B0000C94C6010C94C6010C94C6010C94C601A4
:1000C0000C94C6010C94C6010C94C6010C94C60194
:1000D0000C94C6010C94C6010C94C6010C94C60184
:1000E0000C94C60120041103110311031103110321
:1000F000110311039D0311031103110311031103D4
:1001000011031103930311031103110311031103CD
:1001100011031103B603110311031103110311039A
:10012000110311032403110311031103110311031C
:1001300011031103C0031103110311031103110370
:1001400011031103280311031103110311031103F8
:1001500011031103300311031103110311031103E0
:1001600011031103310411031103110311031103CE
:10017000110311032C0311031103110311031103C4
:100180001103110367041103110311031103110378
:100190001103110349041103110311031103110386
:1001A00011031103FA0211031103110311031103C7
:1001B00011031103EE0211031103110311031103C3
:1001C00011031103F60211031103110311031103AB
:1001D00011031103F202110311031103110311039F
:1001E000110311030304110311031103110311037C
:1001F00011031103E203110311031103110311038E
:1002000011031103FF031103110311031103110360
:1002100011031103DE031103110311031103110371
:10022000110311034A0311031103110311031103F5
:1002300011031103630311031103110311031103CC
:10024000110311035F0311031103110311031103C0
:10025000110311037003110311031103110311039F
:1002600011031103420311031103110311031103BD
:1002700011031103460311031103110311031103A9
:1002800011031103110311031103110311031103CE
:1002900011031103110311031103110311031103BE
:1002A00011031103110311031103110311031103AE
:1002B000110311031103110311031103110311039E
:1002C000110311031103110311031103110311038E
:1002D000110311032C040C9420040C94DE030C94E1
:1002E0005F030C9486040C9403040C9449040C944E
:1002F00042030C9430030C94F6020C9431040C94D9
:100300004A030C949D030C9446030C94C0030C9474
:10031000FF030C94B6030C94F2020C94EE020C94BE
:1003200063030C9411030C9467040C942C040C9438
:10033000FA020C942C030C9493030C9428030C9451
:1003400024030C94E2030C94700311241FBECFEF1E
:10035000D1E2DEBFCDBF00E00CBF13E0A0E0B2E011
:10036000E2EBFAE000E00BBF02C007900D92AC3E5A
:10037000B107D9F724E0ACEEB3E001C01D92A6327C
:10038000B207E1F70E94D9040C9457050C940000C1
:10039000ECEEF3E0118210828FEF828313821092D1
:1003A000B90088E48093B80085E08093BC00109287
:1003B000F1031092F00310920904109208040895BA
:1003C0002091EC033091ED0391E02115310509F006
:1003D00090E081E02330310509F080E0892B089519
:1003E0000F931F93CF93DF93182F092FC62FD42F6E
:1003F0000E94C704C531E8F58091EC039091ED03AC
:10040000009769F00297029750F085E08A95F1F71E
:1004100000008091EC039091ED03009799F781E043
:1004200090E09093ED038093EC03D093EF036C2F57
:1004300070E06115710561F0A12FB02FE4EFF3E0DA
:100440009B012C503C4F8D918193E217F307D9F714
:100450007093F3036093F2031092F1031092F00390
:1004600085EA8093BC0080E0DF91CF911F910F91CE
:10047000089581E0DF91CF911F910F910895CF935F
:10048000DF93643120F081E0DF91CF910895D42F84
:10049000C82F1092090410920804262F30E03093E0
:1004A0001F0420931E04CC0FC1600E94C7048091DA
:1004B000EC039091ED03009769F00297029750F0DA
:1004C00085E08A95F1F700008091EC039091ED03AF
:1004D000009799F781E090E09093ED038093EC030F
:1004E000D093EF03C093F4039093F3038093F2034C
:1004F0001092F1031092F00385EA8093BC0080E033
:10050000DF91CF9108954531D0F521E030E030936F
:10051000ED032093EC031092F1031092F003880F87
:1005200081608093BA0085E48093BC002091F00341
:100530003091F10350E08091F0039091F103840F2A
:10054000951F281739079CF4FB01E20FF31FD9010F
:10055000AC50BC4F81918D932F5F3F4F8091F00342
:100560009091F103840F951F281739079CF382E0BF
:1005700090E09093ED038093EC0380E0089581E098
:100580000895880F81608093BA0085E48093BC0051
:1005900082E090E09093ED038093EC0380E0089577
:1005A0001F920F920FB60F9211240BB60F922F933A
:1005B0003F934F935F936F937F938F939F93AF93EB
:1005C000BF93EF93FF938091B900887F90E0FC0187
:1005D0008827EE58FF4F8F4F0C941F0585EB92E054
:1005E0000E9427058EEC92E00E94270586EE92E09D
:1005F0000E94270585EF92E00E94270587E090E0A2
:100600009093ED038093EC0380910804909109048A
:1006100043970CF081C088EF8093EE0385EC8093C4
:10062000BC00FF91EF91BF91AF919F918F917F910E
:100630006F915F914F913F912F910F900BBE0F9053
:100640000FBE0F901F90189584E492E00E9427053A
:1006500084E592E00E94270586E692E00E94270545
:1006600086E792E00E9427058091B900887F8093F9
:10067000EE038091EF03882309F4E6C085EA8093B6
:10068000BC00CFCF82E593E00E94270584E693E08B
:100690000E94270586E793E00E9427058091B90014
:1006A000887F8093EE0385E88093BC008091EF0300
:1006B0008111B7CF1092ED031092EC03B2CF8BE80B
:1006C00093E00E9427058FE993E00E94270586E0CA
:1006D00090E09093ED038093EC0385E48093BC005D
:1006E0008EEA93E00E9427058091F0039091F10338
:1006F0009C012F5F3F4F3093F1032093F003FC01E7
:10070000EC50FC4F80818093BB008091F00390916E
:10071000F10343970CF47FCF88EF8093EE0385E8D5
:100720008093BC007ECF8EE092E00E94270583E09C
:1007300090E09093ED038093EC0382E192E00E94BD
:1007400027058091F0039091F1039C012F5F3F4FAB
:100750003093F1032093F003FC01EC50FC4F8081B7
:100760008093BB0085E88093BC005BCF84E292E07D
:100770000E94270584E090E09093ED038093EC03C2
:1007800083E392E00E9427052091F0033091F1036A
:100790008091F2039091F3032817390794F2809126
:1007A000EF0381116BCF1092ED031092EC038FEFEA
:1007B0008093EE0385E98093BC0033CF8AE293E017
:1007C0000E9427058EE393E00E942705809108048C
:1007D000909109049C012F5F3F4F309309042093AF
:1007E00008042091BB00FC01E65FFB4F20838FEFE4
:1007F0008093EE038091EF03811113CF5BCF84E0F0
:1008000093E00E94270587E193E00E9427058091ED
:100810000804909109049C012F5F3F4F3093090415
:10082000209308044091BB00FC01E65FFB4F40832E
:1008300088EF8093EE03233131050CF070CFEECEBC
:1008400084ED93E00E9427051092ED031092EC03D3
:1008500085E98093BC00E5CE8FEB93E00E942705ED
:10086000E0CE87E892E00E94270585E090E0909333
:10087000ED038093EC0380911E0490911F04019777
:100880002091080430910904281739070CF044CF4F
:10089000C2CE85EA92E00E942705809108049091DB
:1008A00009049C012F5F3F4F3093090420930804F3
:1008B0002091BB00FC01E65FFB4F20838FEF80930C
:1008C000EE038091EF03882309F4BECFD7CE86E9EB
:1008D00092E00E94270580910804909109049C01F0
:1008E0002F5F3F4F30930904209308044091BB00D1
:1008F000FC01E65FFB4F408380911E0490911F0432
:100900000197281739070CF007CF85CE8A3049F0B8
:100910009091C00095FFFCCF8093C60080E090E0EE
:1009200008959091C00095FFFCCF9DE09093C60084
:10093000EFCF9093C5008093C40086E08093C200FF
:1009400088E98093C10008959091C00095FFFCCF85
:100950008093C60008958091C00087FFFCCF8091EE
:10096000C60008958091C000881F8827881F0895B9
:10097000FC012081222351F031969091C00095FF17
:10098000FCCF2093C60021912111F7CF089580E07C
:1009900092E090932304809322041092C50082E396
:1009A0008093C40086E08093C20088E98093C100F0
:1009B0000895CF93DF93CDB7DEB727970FB6F8949E
:1009C000DEBF0FBECDBF0E94C70478940E94C8014D
:1009D000198288E48A8385E68B838CE68C838D83F9
:1009E0008FE68E831F8240E067E0CE0101960E9471
:1009F000F00104C085E08A95F1F700000E94E00153
:100A00008823C1F340E066E081E00E943F0204C019
:100A100085E08A95F1F700000E94E0018823C1F388
:100A20008AE094E00E94270580E090E027960FB6C8
:100A3000F894DEBF0FBECDBFDF91CF910895EE0FCA
:100A4000FF1F881F8BBF0790F691E02D19940F931D
:100A50001F93CF93DF93E0912204F091230423812D
:100A600021FF1BC08C01D0E0C0E0F80181918F0113
:100A70006091220470912304DB011896ED91FC91A2
:100A80001997882331F01995892B79F3DFEFCFEF90
:100A9000ECCF8AE01995892B19F08FEF9FEF02C0F8
:100AA0008D2F9C2FDF91CF911F910F910895F89476
:020AB000FFCF76
:100AB2000000000200000000860400000000524511
:100AC200505F53544152545F5452414E534D495416
:100AD20054454400534C41575F54525F41434B5F6E
:100AE2005256004D5F444154415F54525F41434B63
:100AF2005F525600534C41575F54525F4E41434B35
:100B02005F5256004D5F444154415F54525F4E4123
:100B1200434B5F525600534C41525F54525F4E4119
:100B2200434B5F5256004152424954524154494F3D
:100B32004E5F4C4F535400534C41525F54525F41ED
:100B4200434B5F525600444154415F52565F41430A
:100B52004B5F545200444154415F52565F4E4143F1
:100B62004B5F5452004152424954524154494F4EF4
:100B72005F4C4F53545F53525F41444452004152C1
:100B8200424954524154494F4E5F4C4F53545F5364
:100B9200525F42524400425244575F52565F4143B1
:100BA2004B5F545200534C41575F52565F41434B87
:100BB2005F545200444154415F4252445F52565F77
:100BC20041434B5F545200444154415F534C415F97
:100BD20052565F41434B5F545200444154415F427D
:100BE20052445F52565F4E41434B5F545200444160
:100BF20054415F534C415F52565F4E41434B5F54E9
:100C02005200535F444154415F54525F4E41434B43
:100C12005F525600535F4C444154415F54525F410E
:100C2200434B5F52560053544152545F53544F50FA
:100C32005F464F525F534C41564500415242495420
:100C4200524154494F4E5F4C4F53545F53540053DB
:100C52004C41525F52565F41434B5F545200535FC7
:100C6200444154415F54525F41434B5F52560054DA
:100C720057495F4E4F5F52454C4556414E545F496E
:100C82004E464F005457495F494C4C4547414C5FD3
:0C0C920053544152545F53544F50000023
:00000001FF
