:100000000C94A5010C94C6010C94C6010C94C60175
:100010000C94C6010C94C6010C94C6010C94C60144
:100020000C94C6010C94C6010C94C6010C94C60134
:100030000C94C6010C94C6010C94C6010C94C60124
:100040000C94C6010C94C6010C94C6010C94C60114
:100050000C94C6010C94C6010C94C6010C94C60104
:100060000C94C6010C94C6010C94C6010C94C601F4
:100070000C94C6010C94C6010C94C6010C94C601E4
:100080000C94C6010C94C6010C94C6010C94C601D4
:100090000C94C6010C94C6010C94C6010C94D902B0
:1000A0000C94C6010C94C6010C94C6010C94C601B4
:1000B0000C94C6010C94C6010C94C6010C94C601A4
:1000C0000C94C6010C94C6010C94C6010C94C60194
:1000D0000C94C6010C94C6010C94C6010C94C60184
:1000E0000C94C60162041E031E031E031E031E039E
:1000F0001E031E03B5031E031E031E031E031E0361
:100100001E031E03AB031E031E031E031E031E035A
:100110001E031E03CE031E031E031E031E031E0327
:100120001E031E03F7021E031E031E031E031E03EF
:100130001E031E03D8031E031E031E031E031E03FD
:100140001E031E03FB021E031E031E031E031E03CB
:100150001E031E0303031E031E031E031E031E03B2
:100160001E031E034A041E031E031E031E031E035A
:100170001E031E03FF021E031E031E031E031E0397
:100180001E031E0385041E031E031E031E031E03FF
:100190001E031E0367041E031E031E031E031E030D
:1001A0001E031E033D031E031E031E031E031E0328
:1001B0001E031E0331031E031E031E031E031E0324
:1001C0001E031E0339031E031E031E031E031E030C
:1001D0001E031E0335031E031E031E031E031E0300
:1001E0001E031E031B041E031E031E031E031E0309
:1001F0001E031E03FA031E031E031E031E031E031B
:100200001E031E0317041E031E031E031E031E03EC
:100210001E031E03F6031E031E031E031E031E03FE
:100220001E031E035D031E031E031E031E031E0387
:100230001E031E0376031E031E031E031E031E035E
:100240001E031E0372031E031E031E031E031E0352
:100250001E031E0383031E031E031E031E031E0331
:100260001E031E0355031E031E031E031E031E034F
:100270001E031E0359031E031E031E031E031E033B
:100280001E031E031E031E031E031E031E031E0366
:100290001E031E031E031E031E031E031E031E0356
:1002A0001E031E031E031E031E031E031E031E0346
:1002B0001E031E031E031E031E031E031E031E0336
:1002C0001E031E031E031E031E031E031E031E0326
:1002D0001E031E0345040C9476030C9472030C94C5
:1002E00017040C9455030C9459030C9445040C9476
:1002F00003030C9483030C94B5030C94FA030C943D
:10030000F7020C94AB030C94FF020C9462040C945F
:100310001B040C9485040C9435030C94F6030C9484
:1003200039030C94D8030C9467040C941E030C94AA
:100330003D030C94FB020C94A4040C9431030C9424
:10034000CE030C944A040C945D0311241FBECFEF1E
:10035000D1E2DEBFCDBF00E00CBF13E0A0E0B2E011
:10036000EEE0FBE000E00BBF02C007900D92A43F5F
:10037000B107D9F724E0A4EFB3E001C01D92AE327B
:10038000B207E1F70E94F7040C9485050C94000075
:10039000E4EFF3E0118210828FEF828313821092D8
:1003A000B90088E48093B80085E08093BC00109287
:1003B000F9031092F803109211041092100408959A
:1003C00081E02091F4033091F503232B09F080E0C4
:1003D00008950F931F93CF93DF93182F092FC62FE4
:1003E000D42F0E94E504C53128F034C085E08A95F9
:1003F000F1F700008091F4039091F503892BB1F798
:1004000081E090E09093F5038093F403D093F70399
:100410006C2F70E06115710561F0A12FB02FECEF2A
:10042000F3E09B0124503C4F8D918193E217F30739
:10043000D9F77093FB036093FA031092F9031092BB
:10044000F80385EA8093BC0080E0DF91CF911F9193
:100450000F91089581E0DF91CF911F910F91089541
:10046000CF93DF93643120F081E0DF91CF91089545
:10047000D42FC82F1092110410921004262F30E0B0
:100480003093270420932604CC0FC1600E94E5041A
:100490008091F4039091F503892B51F085E08A95C2
:1004A000F1F700008091F4039091F503892BB1F7E7
:1004B00081E090E09093F5038093F403D093F703E9
:1004C000C093FC039093FB038093FA031092F9030B
:1004D0001092F80385EA8093BC008091F403909118
:1004E000F503892B51F085E08A95F1F700008091A2
:1004F000F4039091F503892BB1F780E0DF91CF9160
:1005000008954531A8F521E030E03093F5032093BC
:10051000F4031092F9031092F80350E05093FB0398
:100520004093FA03880F81608093BA0085E480933A
:10053000BC0041155105A1F0DB01ECEFF3E04450A4
:100540005C4F8D918193E417F507D9F78091F403FF
:100550009091F503892B51F085E08A95F1F7000021
:100560008091F4039091F503892BB1F780E0089511
:1005700081E0089521E030E03093F5032093F40307
:10058000880F81608093BA0085E48093BC008091DD
:10059000F4039091F503892B51F085E08A95F1F7EA
:1005A00000008091F4039091F503892BB1F780E06E
:1005B00008951F920F920FB60F9211240BB60F924F
:1005C0002F933F934F935F936F937F938F939F935B
:1005D000AF93BF93EF93FF938091B900887F90E032
:1005E000FC018827EE58FF4F8F4F0C944D058CE48B
:1005F00092E00E9455058CE592E00E9455058EE63A
:1006000092E00E9455058EE792E00E945505809188
:10061000F4039091F503019709F42AC18091B90080
:10062000887F8093F6038091F70381112AC110928D
:10063000F5031092F40385E98093BC00FF91EF91DC
:10064000BF91AF919F918F917F916F915F914F91EA
:100650003F912F910F900BBE0F900FBE0F901F90E8
:1006600018958DEB92E00E94550586ED92E00E9470
:1006700055058EEE92E00E9455058DEF92E00E94A6
:10068000550586E090E09093F5038093F403809104
:1006900010049091110443970CF056C088EF80939A
:1006A000F60385EC8093BC00C9CF8AE593E00E94F5
:1006B00055058CE693E00E9455058EE793E00E9475
:1006C00055058091B900887F8093F60385E8809373
:1006D000BC008091F7038111B1CF1092F503109205
:1006E000F403ACCF83E993E00E94550587EA93E0D9
:1006F0000E94550585E090E09093F5038093F40304
:1007000085E48093BC0086EB93E00E9455058091C0
:10071000F8039091F9039C012F5F3F4F3093F90349
:100720002093F803FC01E450FC4F80818093BB00D0
:100730002091F8033091F9038091FA039091FB0323
:10074000281739070CF4AACF88EF8093F60385E8C1
:100750008093BC0073CF86E192E00E94550582E051
:1007600090E09093F5038093F4038AE192E00E9475
:1007700055058091F8039091F9039C012F5F3F4F3D
:100780003093F9032093F803FC01E450FC4F80817F
:100790008093BB0085E88093BC0050CF8CE292E050
:1007A0000E94550583E090E09093F5038093F40355
:1007B0008BE392E00E9455052091F8033091F903F4
:1007C0008091FA039091FB032817390794F28091E6
:1007D000F703811156C01092F5031092F4038FEFC6
:1007E0008093F60385E98093BC0028CF82E393E0F1
:1007F0000E94550586E493E00E94550580911004FF
:10080000909111049C012F5F3F4F3093110420936E
:1008100010042091BB00FC01EE5EFB4F20838FEFA4
:100820008093F6038091F703811108CF56CF8CE0B7
:1008300093E00E9455058FE193E00E945505809159
:100840001004909111049C012F5F3F4F30931104CD
:10085000209310044091BB00FC01EE5EFB4F4083EF
:1008600088EF8093F603233131050CF070CF19CF58
:100870008091F8039091F90301979093F903809385
:10088000F80385EA8093BC00D9CE87EC93E00E9400
:100890005505D4CE8FE892E00E94550584E090E0A3
:1008A0009093F5038093F40380912604909127049C
:1008B00001972091100430911104281739070CF08A
:1008C00043CFECCE8CED93E00E945505B0CE8DEA7F
:1008D00092E00E94550580911004909111049C01B2
:1008E0002F5F3F4F30931104209310042091BB00E1
:1008F000FC01EE5EFB4F20838FEF8093F603809127
:10090000F703882309F493CEBCCF8EE992E00E94CE
:10091000550580911004909111049C012F5F3F4F69
:1009200030931104209310044091BB00FC01EE5E53
:10093000FB4F40838091260490912704019728174C
:1009400039070CF001CFAACE8A3049F09091C0004F
:1009500095FFFCCF8093C60080E090E008959091D1
:10096000C00095FFFCCF9DE09093C600EFCF909321
:10097000C5008093C40086E08093C20088E980931C
:10098000C10008959091C00095FFFCCF8093C600F0
:1009900008958091C00087FFFCCF8091C600089524
:1009A0008091C000881F8827881F0895FC0120813E
:1009B000222351F031969091C00095FFFCCF2093F7
:1009C000C60021912111F7CF089580E092E0909325
:1009D0002B0480932A041092C50082E38093C40004
:1009E00086E08093C20088E98093C1000895CF9388
:1009F000DF93CDB7DEB727970FB6F894DEBF0FBEF3
:100A0000CDBF0E94E50478940E94C801198288E451
:100A10008A8385E68B838CE68C838D838FE68E8339
:100A20001F8240E067E0CE0101960E94E90140E0AC
:100A300066E081E00E94300282E194E00E94550568
:100A400040E067E0CE0101960E94E90140E066E0E7
:100A500081E00E94300282E194E00E94550540E06E
:100A600066E081E00E94300282E194E00E94550538
:100A700040E067E0CE0101960E94E9018EE092E03D
:100A80000E94550580E090E027960FB6F894DEBFEF
:100A90000FBECDBFDF91CF910895EE0FFF1F881FCE
:100AA0008BBF0790F691E02D19940F931F93CF936E
:100AB000DF93E0912A04F0912B04238121FF1BC0D6
:100AC0008C01D0E0C0E0F80181918F0160912A048F
:100AD00070912B04DB011896ED91FC9119978823F6
:100AE00031F01995892B79F3DFEFCFEFECCF8AE066
:100AF0001995892B19F08FEF9FEF02C08D2F9C2F36
:0E0B0000DF91CF911F910F910895F894FFCFD0
:100B0E000000000200000000A40400000000627952
:100B1E006520627965005245505F53544152545FCF
:100B2E005452414E534D495454454400534C415731
:100B3E005F54525F41434B5F5256004D5F444154E8
:100B4E00415F54525F41434B5F525600534C4157E5
:100B5E005F54525F4E41434B5F5256004D5F4441CE
:100B6E0054415F54525F4E41434B5F525600534CBB
:100B7E0041525F54525F4E41434B5F5256004152B9
:100B8E00424954524154494F4E5F4C4F53540053B7
:100B9E004C41525F54525F41434B5F5256004441A9
:100BAE0054415F52565F41434B5F5452004441548F
:100BBE00415F52565F4E41434B5F54520041524289
:100BCE004954524154494F4E5F4C4F53545F535208
:100BDE005F41444452004152424954524154494F9C
:100BEE004E5F4C4F53545F53525F42524400425239
:100BFE0044575F52565F41434B5F545200534C4132
:100C0E00575F52565F41434B5F545200444154412B
:100C1E005F4252445F52565F41434B5F5452004411
:100C2E004154415F534C415F52565F41434B5F54B9
:100C3E005200444154415F4252445F52565F4E410E
:100C4E00434B5F545200444154415F534C415F52F9
:100C5E00565F4E41434B5F545200535F44415441E3
:100C6E005F54525F4E41434B5F525600535F4C44AC
:100C7E004154415F54525F41434B5F5256005354AF
:100C8E004152545F53544F505F464F525F534C4145
:100C9E005645004152424954524154494F4E5F4CC1
:100CAE004F53545F535400534C41525F52565F4161
:100CBE00434B5F545200535F444154415F54525F63
:100CCE0041434B5F5256005457495F4E4F5F52455A
:100CDE004C4556414E545F494E464F005457495F5E
:100CEE00494C4C4547414C5F53544152545F535409
:040CFE004F50000053
:00000001FF
