:100000000C945D010C947E010C947E010C947E0195
:100010000C947E010C947E010C947E010C947E0164
:100020000C947E010C947E010C947E010C947E0154
:100030000C947E010C947E010C947E010C947E0144
:100040000C947E010C947E010C947E010C947E0134
:100050000C947E010C947E010C947E010C947E0124
:100060000C947E010C947E010C947E010C947E0114
:100070000C947E010C947E010C947E010C947E0104
:100080000C947E010C947E010C947E010C947E01F4
:100090000C947E010C947E010C947E010C94FC0265
:1000A0000C947E010C947E010C947E010C947E01D4
:1000B0000C947E010C947E010C947E010C947E01C4
:1000C0000C947E010C947E010C947E010C947E01B4
:1000D0000C947E010C947E010C947E010C947E01A4
:1000E0000C947E01AD032C032C032C032C032C0356
:1000F0002C032C0341032C032C032C032C032C0373
:100100002C032C033B032C032C032C032C032C0368
:100110002C032C0356032C032C032C032C032C033D
:100120002C032C039D032C032C032C032C032C03E6
:100130002C032C035C032C032C032C032C032C0317
:100140002C032C039D032C032C032C032C032C03C6
:100150002C032C039D032C032C032C032C032C03B6
:100160002C032C0304042C032C032C032C032C033E
:100170002C032C039D032C032C032C032C032C0396
:100180002C032C031B042C032C032C032C032C0307
:100190002C032C03B5032C032C032C032C032C035E
:1001A0002C032C0319032C032C032C032C032C03EA
:1001B0002C032C0319032C032C032C032C032C03DA
:1001C0002C032C0319032C032C032C032C032C03CA
:1001D0002C032C0319032C032C032C032C032C03BA
:1001E0002C032C03CE032C032C032C032C032C03F5
:1001F0002C032C03E0032C032C032C032C032C03D3
:100200002C032C03CE032C032C032C032C032C03D4
:100210002C032C03E0032C032C032C032C032C03B2
:100220002C032C03F9032C032C032C032C032C0389
:100230002C032C0370032C032C032C032C032C0302
:100240002C032C0370032C032C032C032C032C03F2
:100250002C032C0379032C032C032C032C032C03D9
:100260002C032C03F9032C032C032C032C032C0349
:100270002C032C03F9030C94B5030C94CE030C94BB
:100280001B040C9419030C949D030C9404040C940B
:1002900079030C94AD030C94E0030C945C030C9470
:1002A00056030C9442040C94F9030C943B030C94F5
:1002B00041030C9470030C942C0311241FBECFEF48
:1002C000D1E2DEBFCDBF00E00CBF12E0A0E0B2E0A3
:1002D000EAEBF0E100E00BBF02C007900D92A832FC
:1002E000B107D9F722E0A8E2B2E001C01D92A23620
:1002F000B207E1F70E94D1040C945B080C94000053
:10030000E8E2F2E0118210828FEF82831382109272
:10031000B90088E48093B80085E08093BC00109217
:100320002D0210922C021092450210924402089560
:1003300010922902109228029FEF90932A021092A5
:100340002B021092B90098E49093B80095E0909336
:10035000BC0010922D0210922C02109245021092B5
:100360004402880F611103C08093BA000895816030
:100370008093BA000895209128023091290281E0EB
:10038000232B09F080E00895653128F046C025E070
:100390002A95F1F700002091280230912902232BA1
:1003A000B1F721E030E030932902209328024093F6
:1003B0002B0270E06115710559F0DC01E0E3F2E019
:1003C0009B01205D3D4F8D918193E217F307D9F793
:1003D00070932F0260932E0210922D0210922C0225
:1003E00080912802909129020297C9F085EA8093B2
:1003F000BC008091280290912902892B61F08FE343
:100400009CE90197F1F700C00000809128029091CB
:100410002902892BA1F780E0089581E00895809159
:100420002C0290912D029C012F5F3F4F30932D02A3
:1004300020932C02FC01E05DFD4F80818093BB0086
:1004400085E88093BC00D5CF643128F04FC095E09B
:100450009A95F1F700002091280230912902232B70
:10046000B1F7109245021092440270E070935B0263
:1004700060935A02880F81602091280230912902EE
:10048000232B51F095E09A95F1F700002091280276
:1004900030912902232BB1F721E030E0309329027B
:1004A0002093280240932B028093300230932F0236
:1004B00020932E0210922D0210922C02809128027D
:1004C000909129020297A1F085EA8093BC0006C0B2
:1004D0008FE39CE90197F1F700C0000080912802AA
:1004E00090912902892BA1F780E0089581E0089579
:1004F00080912C0290912D029C012F5F3F4F3093F1
:100500002D0220932C02FC01E05DFD4F8081809341
:10051000BB0085E88093BC00E1CF653128F03BC08B
:1005200025E02A95F1F70000209128023091290258
:10053000232BB1F721E030E03093290220932802E9
:1005400010922D0210922C0270E070932F02609393
:100550002E0225E42093BC006115710551F0DC01E9
:10056000E0E3F2E0605D7D4F8D918193E617F70740
:10057000D9F78091280290912902892B51F085E0CA
:100580008A95F1F700008091280290912902892B29
:10059000B1F780E0089581E008958091280290915C
:1005A0002902892B51F085E08A95F1F700008091AE
:1005B000280290912902892BB1F781E090E0909375
:1005C000290280932802109245021092440285E489
:1005D0008093BC008091280290912902892B51F0D0
:1005E00085E08A95F1F70000809128029091290218
:1005F000892BB1F780E008951F920F920FB60F92EA
:1006000011240BB60F922F933F938F939F93AF9329
:10061000BF93EF93FF938091B900887F90E0893C6E
:100620009105D0F4FC018827EE58FF4F8F4F0C94B2
:100630004E0586E090E0909329028093280288EF8F
:1006400080932A02809144029091450243970CF4D2
:1006500070C085E88093BC00FF91EF91BF91AF918E
:100660009F918F913F912F910F900BBE0F900FBED6
:100670000F901F90189582E090E09093290280934C
:10068000280280912C0290912D029C012F5F3F4FF8
:1006900030932D0220932C02FC01E05DFD4F808100
:1006A0008093BB0085E88093BC00D6CF83E090E0C8
:1006B000909329028093280220912C0230912D02E0
:1006C00080912E0290912F0228173907D4F2809141
:1006D0002B02882309F4C1C085EA8093BC00BCCFFB
:1006E00085E090E0909329028093280285E480932E
:1006F000BC0080912C0290912D029C012F5F3F4FF6
:1007000030932D0220932C02FC01E05DFD4F80818F
:100710008093BB0088EF80932A0220912C023091B5
:100720002D0280912E0290912F02281739070CF08C
:1007300090CF85EC8093BC008FCF80912802909160
:100740002902019709F494C08091B900887F8093B1
:100750002A0280912B028111BFCF85E98093BC00D2
:10076000109229021092280277CF80914402909132
:1007700045029C012F5F3F4F309345022093440276
:100780002091BB00FC01EA5BFD4F20838FEF80933B
:100790002A0280912B02882301F39ECF809144028C
:1007A000909145029C012F5F3F4F3093450220936B
:1007B00044022091BB00FC01EA5BFD4F20833FCF48
:1007C00080914402909145029C012F5F3F4F3093EE
:1007D0004502209344022091BB00FC01EA5BFD4FDF
:1007E00020838FEF80932A0280912B02811134CFD6
:1007F000B7CF8FEF80932A0285E88093BC00809169
:100800002B02811129CFACCF84E090E09093290294
:100810008093280288EF80932A022091440230912D
:10082000450280915A0290915B020197281739077F
:100830000CF00FCF7ECF80914402909145029C0135
:100840002F5F3F4F30934502209344022091BB001D
:10085000FC01EA5BFD4F2083DDCF85E98093BC007E
:100860008FEF80932A021092290210922802F4CE70
:1008700080912C0290912D02019790932D028093EC
:100880002C022ACF8A3049F09091C00095FFFCCF0E
:100890008093C60080E090E008959091C00095FF9D
:1008A000FCCF9DE09093C600EFCF9093C50080935E
:1008B000C40086E08093C20088E98093C100089557
:1008C0009091C00095FFFCCF8093C6000895809161
:1008D000C00087FFFCCF8091C60008958091C000C2
:1008E000881F8827881F0895FC012081222351F04A
:1008F00031969091C00095FFFCCF2093C6002191C6
:100900002111F7CF089580E092E090935F028093E9
:100910005E021092C50082E38093C40086E080935B
:10092000C20088E98093C10008951092C50083E356
:100930008093C40086E08093C20088E98093C10060
:1009400008959091C00095FFFCCF8093C600089554
:100950008091C00087FFFCCF8091C6000895FC0104
:100960009091C00097FFFCCF9091C600919399237E
:1009700029F09A3011F09D3099F711929E2F981B13
:10098000892F0895FC012081222351F03196909106
:10099000C00095FFFCCF2093C60021912111F7CF15
:1009A0000895CF93DF93CDB7DEB764970FB6F89471
:1009B000DEBF0FBECDBF0E9495040E9483047894D1
:1009C00061E081E00E94980185E0EEE0F2E0DE0166
:1009D0001B9601900D928A95E1F785E0FE017096D5
:1009E000DF01982F1D929A95E9F7EEE0F2E0DE0123
:1009F0001196982F01900D929A95E1F7FE01369687
:100A0000DF011D928A95E9F786E4E82E82E0F82E50
:100A10000EE112E088E192E00E9471050E94CD0291
:100A2000FF92EF921F930F930E945D050E94CD02EB
:100A3000FF92EF921F930F930E945D056AE0CE0133
:100A40000B960E948D020E94CD02FF92EF921F939F
:100A50000F930E945D050E94CD0266E472E0CE0114
:100A600001960E945605FF92EF921F930F930E94EA
:100A70005D050E94CD02BE016F5F7F4FCE010B96D8
:100A80000E945605FF92EF921F930F930E945D05FF
:100A90000FB6F894DEBF0FBECDBFBCCFEE0FFF1F69
:100AA000881F8BBF0790F691E02D1994FB01DC01A4
:100AB00001900D920020E1F70895CF93DF93CDB719
:100AC000DEB7AE014A5F5F4FFA0161917191AF01EC
:100AD00080915E0290915F020E94A105DF91CF910B
:100AE00008950F931F93CF93DF93E0915E02F091EF
:100AF0005F02238121FF1BC08C01D0E0C0E0F80120
:100B000081918F0160915E0270915F02DB01189606
:100B1000ED91FC911997882331F01995892B79F380
:100B2000DFEFCFEFECCF8AE01995892B19F08FEF2B
:100B30009FEF02C08D2F9C2FDF91CF911F910F91BE
:100B400008952F923F924F925F926F927F928F9271
:100B50009F92AF92BF92CF92DF92EF92FF920F934C
:100B60001F93CF93DF93CDB7DEB72B970FB6F894D3
:100B7000DEBF0FBECDBF6C017B018A01FC01178275
:100B80001682838181FFCCC1CE0101963C01F60122
:100B90009381F70193FD859193FF81917F018823D4
:100BA00009F4BAC1853239F493FD859193FF81919F
:100BB0007F01853229F4B60190E00E94C107E7CF9A
:100BC000912C212C312CFFE1F315D8F08B3279F0E8
:100BD00038F4803279F08332A1F4232D20611DC0D6
:100BE0008D3261F0803369F4232D216016C0832D8E
:100BF0008260382EE32DE4603E2E2AC0F32DF8608B
:100C00001DC037FC2DC020ED280F2A3040F08E3259
:100C1000B9F436FC81C1232D2064322E19C036FE72
:100C200006C08AE0989E200D1124922E11C0EAE0A1
:100C30002E9E200D1124222EF32DF0623F2E08C08F
:100C40008C3621F4832D8068382E02C0883641F41A
:100C5000F70193FD859193FF81917F018111B3CFBE
:100C6000982F9F7D9554933028F40C5F1F4F9FE37E
:100C700099830DC0833631F0833771F0833509F0E5
:100C800059C021C0F801808189830E5F1F4F8824DD
:100C90008394912C530113C02801F2E04F0E511C94
:100CA000F801A080B18036FE03C0692D70E002C05B
:100CB0006FEF7FEFC5010E94B6074C018201F32D53
:100CC000FF773F2E16C0280122E0420E511CF8018A
:100CD000A080B18036FE03C0692D70E002C06FEFC6
:100CE0007FEFC5010E94AB074C01F32DF0683F2E4A
:100CF000820133FC1BC0822D90E088169906B0F467
:100D0000B60180E290E00E94C1072A94F4CFF50179
:100D100037FC859137FE81915F01B60190E00E941A
:100D2000C10721102A9421E0821A910881149104AC
:100D300071F7E8C0843611F0893641F5F80137FEC5
:100D400007C060817181828193810C5F1F4F08C051
:100D500060817181072E000C880B990B0E5F1F4F6D
:100D6000F32DFF763F2E97FF09C0909580957095E3
:100D700061957F4F8F4F9F4FF0683F2E2AE030E004
:100D8000A3010E94FD07882E861845C0853731F4DF
:100D9000232D2F7EB22E2AE030E025C0932D997F9F
:100DA000B92E8F36C1F018F4883579F0B5C0803788
:100DB00019F0883721F0B0C0E92FE061BE2EB4FEF3
:100DC0000DC0FB2DF460BF2E09C034FE0AC0292FD0
:100DD0002660B22E06C028E030E005C020E130E0F9
:100DE00002C020E132E0F801B7FE07C060817181E6
:100DF000828193810C5F1F4F06C06081718180E00A
:100E000090E00E5F1F4FA3010E94FD07882E8618F9
:100E1000FB2DFF773F2E36FE0DC0232D2E7FA22EF9
:100E2000891458F434FE0BC032FC09C0832D8E7E29
:100E3000A82E05C0B82CA32C03C0B82C01C0B92C17
:100E4000A4FE0FC0FE01E80DF11D8081803321F466
:100E50009A2D997EA92E09C0A2FE06C0B394B39420
:100E600004C08A2D867809F0B394A3FC11C0A0FEBB
:100E700006C0B21488F4280C922C9B180EC0B21431
:100E800060F4B60180E290E00E94C107B394F7CF0E
:100E9000B21418F42B1802C0982C212CA4FE10C0F8
:100EA000B60180E390E00E94C107A2FE17C0A1FC3A
:100EB00003C088E790E002C088E590E0B6010CC06E
:100EC0008A2D867859F0A1FE02C08BE201C080E233
:100ED000A7FC8DE2B60190E00E94C107891438F4A6
:100EE000B60180E390E00E94C1079A94F7CF8A94FC
:100EF000F301E80DF11D8081B60190E00E94C10769
:100F00008110F5CF222009F442CEB60180E290E0B4
:100F10000E94C1072A94F6CFF6018681978102C00C
:100F20008FEF9FEF2B960FB6F894DEBF0FBECDBFAD
:100F3000DF91CF911F910F91FF90EF90DF90CF90B5
:100F4000BF90AF909F908F907F906F905F904F90E9
:100F50003F902F900895FC01059061507040011062
:100F6000D8F7809590958E0F9F1F0895FC016150D2
:100F7000704001900110D8F7809590958E0F9F1FBB
:100F800008950F931F93CF93DF93FB01238121FDDE
:100F900003C08FEF9FEF2CC022FF16C04681578100
:100FA000248135814217530744F4A081B1819D010A
:100FB0002F5F3F4F318320838C93268137812F5FB2
:100FC0003F4F3783268314C08B01EC01FB01008463
:100FD000F185E02D1995892BE1F6D80116968D91B2
:100FE0009C911797019617969C938E931697CE0116
:100FF000DF91CF911F910F910895FA01AA27283010
:1010000051F1203181F1E8946F936E7F6E5F7F4FD5
:101010008F4F9F4FAF4FB1E03ED0B4E03CD0670F51
:10102000781F891F9A1FA11D680F791F8A1F911DA4
:10103000A11D6A0F711D811D911DA11D20D009F4F4
:1010400068943F912AE0269F11243019305D319336
:10105000DEF6CF010895462F4770405D4193B3E01F
:101060000FD0C9F7F6CF462F4F70405D4A3318F0C6
:10107000495D31FD4052419302D0A9F7EACFB4E077
:10108000A6959795879577956795BA95C9F700972F
:101090006105710508959B01AC010A2E06945795D0
:1010A000479537952795BA95C9F7620F731F841F27
:0A10B000951FA01D0895F894FFCFCE
:1010BA0000000002000000004204000000006E6F01
:1010CA006E65000000000000536C61766500427591
:0810DA00663A2025730A0000AC
:00000001FF
