:100000000C945D010C947E010C947E010C947E0195
:100010000C947E010C947E010C947E010C947E0164
:100020000C947E010C947E010C947E010C947E0154
:100030000C947E010C947E010C947E010C947E0144
:100040000C947E010C947E010C947E010C947E0134
:100050000C947E010C947E010C947E010C947E0124
:100060000C947E010C94FC040C947E010C947E0193
:100070000C947E010C947E010C947E010C947E0104
:100080000C947E010C947E010C947E010C947E01F4
:100090000C947E010C947E010C947E010C94FC0265
:1000A0000C947E010C947E010C947E010C947E01D4
:1000B0000C947E010C947E010C947E010C947E01C4
:1000C0000C947E010C947E010C947E010C947E01B4
:1000D0000C947E010C947E010C947E010C947E01A4
:1000E0000C947E01AD032C032C032C032C032C0356
:1000F0002C032C0341032C032C032C032C032C0373
:100100002C032C033B032C032C032C032C032C0368
:100110002C032C0356032C032C032C032C032C033D
:100120002C032C039D032C032C032C032C032C03E6
:100130002C032C035C032C032C032C032C032C0317
:100140002C032C039D032C032C032C032C032C03C6
:100150002C032C039D032C032C032C032C032C03B6
:100160002C032C0304042C032C032C032C032C033E
:100170002C032C039D032C032C032C032C032C0396
:100180002C032C031B042C032C032C032C032C0307
:100190002C032C03B5032C032C032C032C032C035E
:1001A0002C032C0319032C032C032C032C032C03EA
:1001B0002C032C0319032C032C032C032C032C03DA
:1001C0002C032C0319032C032C032C032C032C03CA
:1001D0002C032C0319032C032C032C032C032C03BA
:1001E0002C032C03CE032C032C032C032C032C03F5
:1001F0002C032C03E0032C032C032C032C032C03D3
:100200002C032C03CE032C032C032C032C032C03D4
:100210002C032C03E0032C032C032C032C032C03B2
:100220002C032C03F9032C032C032C032C032C0389
:100230002C032C0370032C032C032C032C032C0302
:100240002C032C0370032C032C032C032C032C03F2
:100250002C032C0379032C032C032C032C032C03D9
:100260002C032C03F9032C032C032C032C032C0349
:100270002C032C03F9030C94B5030C94CE030C94BB
:100280001B040C9419030C949D030C9404040C940B
:1002900079030C94AD030C94E0030C945C030C9470
:1002A00056030C9442040C94F9030C943B030C94F5
:1002B00041030C9470030C942C0311241FBECFEF48
:1002C000D1E2DEBFCDBF00E00CBF12E0A0E0B2E0A3
:1002D000EAE7FBE000E00BBF02C007900D92AE32F0
:1002E000B107D9F722E0AEE2B2E001C01D92A03F13
:1002F000B207E1F70E9428050C94BB050C9400009E
:10030000E6EBF2E0118210828FEF8283138210926B
:10031000B90088E48093B80085E08093BC00109217
:10032000BB021092BA021092D3021092D202089528
:100330001092B7021092B6029FEF9093B8021092FB
:10034000B9021092B90098E49093B80095E09093A8
:10035000BC001092BB021092BA021092D30210920B
:10036000D202880F611103C08093BA0008958160A2
:100370008093BA0008952091B6023091B70281E0CF
:10038000232B09F080E00895653128F046C025E070
:100390002A95F1F700002091B6023091B702232B85
:1003A000B1F721E030E03093B7022093B6024093DA
:1003B000B90270E06115710559F0DC01EEEBF2E075
:1003C0009B0122543D4F8D918193E217F307D9F79A
:1003D0007093BD026093BC021092BB021092BA02ED
:1003E0008091B6029091B7020297C9F085EA809396
:1003F000BC008091B6029091B702892B61F08FE327
:100400009CE90197F1F700C000008091B60290913D
:10041000B702892BA1F780E0089581E008958091CB
:10042000BA029091BB029C012F5F3F4F3093BB02F9
:100430002093BA02FC01E254FD4F80818093BB00FF
:1004400085E88093BC00D5CF643128F04FC095E09B
:100450009A95F1F700002091B6023091B702232B54
:10046000B1F71092D3021092D20270E07093E902B9
:100470006093E802880F81602091B6023091B70244
:10048000232B51F095E09A95F1F700002091B602E8
:100490003091B702232BB1F721E030E03093B7025F
:1004A0002093B6024093B9028093BE023093BD02FE
:1004B0002093BC021092BB021092BA028091B60245
:1004C0009091B7020297A1F085EA8093BC0006C024
:1004D0008FE39CE90197F1F700C000008091B6021C
:1004E0009091B702892BA1F780E0089581E00895EB
:1004F0008091BA029091BB029C012F5F3F4F3093D5
:10050000BB022093BA02FC01E254FD4F808180932C
:10051000BB0085E88093BC00E1CF653128F03BC08B
:1005200025E02A95F1F700002091B6023091B7023C
:10053000232BB1F721E030E03093B7022093B602CD
:100540001092BB021092BA0270E07093BD026093E9
:10055000BC0225E42093BC006115710551F0DC015B
:10056000EEEBF2E062547D4F8D918193E617F70731
:10057000D9F78091B6029091B702892B51F085E0AE
:100580008A95F1F700008091B6029091B702892B0D
:10059000B1F780E0089581E008958091B6029091CE
:1005A000B702892B51F085E08A95F1F70000809120
:1005B000B6029091B702892BB1F781E090E0909359
:1005C000B7028093B6021092D3021092D20285E451
:1005D0008093BC008091B6029091B702892B51F0B4
:1005E00085E08A95F1F700008091B6029091B702FC
:1005F000892BB1F780E008951F920F920FB60F92EA
:1006000011240BB60F922F933F938F939F93AF9329
:10061000BF93EF93FF938091B900887F90E0893C6E
:100620009105D0F4FC018827EE58FF4F8F4F0C94B2
:10063000AC0586E090E09093B7028093B60288EF15
:100640008093B8028091D2029091D30243970CF428
:1006500070C085E88093BC00FF91EF91BF91AF918E
:100660009F918F913F912F910F900BBE0F900FBED6
:100670000F901F90189582E090E09093B7028093BE
:10068000B6028091BA029091BB029C012F5F3F4F4E
:100690003093BB022093BA02FC01E254FD4F8081EB
:1006A0008093BB0085E88093BC00D6CF83E090E0C8
:1006B0009093B7028093B6022091BA023091BB02A8
:1006C0008091BC029091BD0228173907D4F2809125
:1006D000B902882309F4C1C085EA8093BC00BCCF6D
:1006E00085E090E09093B7028093B60285E4809312
:1006F000BC008091BA029091BB029C012F5F3F4FDA
:100700003093BB022093BA02FC01E254FD4F80817A
:100710008093BB0088EF8093B8022091BA02309199
:10072000BB028091BC029091BD02281739070CF0E2
:1007300090CF85EC8093BC008FCF8091B6029091D2
:10074000B702019709F494C08091B900887F809323
:10075000B8028091B9028111BFCF85E98093BC00B6
:100760001092B7021092B60277CF8091D202909188
:10077000D3029C012F5F3F4F3093D3022093D202CC
:100780002091BB00FC01EC52FD4F20838FEF809342
:10079000B8028091B902882301F39ECF8091D202E2
:1007A0009091D3029C012F5F3F4F3093D30220934F
:1007B000D2022091BB00FC01EC52FD4F20833FCFC1
:1007C0008091D2029091D3029C012F5F3F4F3093D2
:1007D000D3022093D2022091BB00FC01EC52FD4FCA
:1007E00020838FEF8093B8028091B902811134CFBA
:1007F000B7CF8FEF8093B80285E88093BC008091DB
:10080000B902811129CFACCF84E090E09093B70278
:100810008093B60288EF8093B8022091D202309183
:10082000D3028091E8029091E902019728173907D5
:100830000CF00FCF7ECF8091D2029091D3029C0119
:100840002F5F3F4F3093D3022093D2022091BB0001
:10085000FC01EC52FD4F2083DDCF85E98093BC0085
:100860008FEF8093B8021092B7021092B602F4CEC6
:100870008091BA029091BB0201979093BB02809342
:10088000BA022ACF8A3049F09091C00095FFFCCF80
:100890008093C60080E090E008959091C00095FF9D
:1008A000FCCF9DE09093C600EFCF9093C50080935E
:1008B000C40086E08093C20088E98093C100089557
:1008C0009091C00095FFFCCF8093C6000895809161
:1008D000C00087FFFCCF8091C60008958091C000C2
:1008E000881F8827881F0895FC012081222351F04A
:1008F00031969091C00095FFFCCF2093C6002191C6
:100900002111F7CF089580E092E09093ED0280935B
:10091000EC021092C50082E38093C40086E08093CD
:10092000C20088E98093C1000895F8941092C50030
:1009300083E38093C400A2ECB0E096E09C93E1ECEA
:10094000F0E08081886180838081806880839C93CF
:100950001092B5021092B402789408959091B50265
:100960008091B4029817D1F3E091B402EF5FEF7178
:10097000E093B402F0E0EE58FD4F80819091C10009
:1009800090689093C10008959091C00095FFFCCFAE
:100990008093C6000895DC012091B5029091B402C5
:1009A0002917D1F3E091B402EF5FEF71E093B40245
:1009B000F0E0EE58FD4F90812091C1002068209317
:1009C000C1009D93992329F09A3011F09D3021F7B1
:1009D0001D929A2F981B892F0895FC0120812223B4
:1009E00051F031969091C00095FFFCCF2093C60046
:1009F00021912111F7CF08951F920F920FB60F92F8
:100A000011240BB60F928F939F93EF93FF939091C6
:100A1000C600E091B502EF5FEF718091B402E81774
:100A200089F0E093B502F0E0EE58FD4F9083FF911E
:100A3000EF919F918F910F900BBE0F900FBE0F9073
:100A40001F9018958091C1008F778093C100EFCFE0
:100A5000CF93DF93CDB7DEB764970FB6F894DEBFC0
:100A60000FBECDBF0E9495040E948304789461E07C
:100A700081E00E94980185E0EEE0F2E0DE011B9645
:100A800001900D928A95E1F785E0FE017096DF01F5
:100A9000982F1D929A95E9F7EEE0F2E0DE011196AB
:100AA000982F01900D929A95E1F7FE013696DF019D
:100AB0001D928A95E9F70E94CD0284ED92E00E9492
:100AC000ED0488E192E00E94ED040E94CD0284EDE5
:100AD00092E00E94ED0488E192E00E94ED046AE059
:100AE000CE010B960E948D020E94CD0284ED92E011
:100AF0000E94ED0488E192E00E94ED040E94CD0284
:100B000064ED72E0CE0101960E94B40584ED92E09E
:100B10000E94ED0488E192E00E94ED040E94CD0263
:100B200084ED92E00E94ED0488E192E00E94ED04E1
:100B3000BE016F5F7F4FCE010B960E94B4058AE124
:100B400092E00E94ED04CE010B960E94ED0488E134
:100B500092E00E94ED04AFCFEE0FFF1F881F8BBF06
:100B60000790F691E02D1994FB01DC0101900D92A4
:0A0B70000020E1F70895F894FFCF8C
:100B7A0000000002000000004204000000006E6F46
:100B8A006E650000000000000A0063757272656EEF
:0E0B9A00745F76656C6F636974793A200000B1
:00000001FF
