:100000000C945D010C947E010C947E010C947E0195
:100010000C947E010C947E010C947E010C947E0164
:100020000C947E010C947E010C947E010C947E0154
:100030000C947E010C947E010C947E010C947E0144
:100040000C947E010C947E010C947E010C947E0134
:100050000C947E010C947E010C947E010C947E0124
:100060000C947E010C947E010C947E010C947E0114
:100070000C947E010C947E010C947E010C947E0104
:100080000C947E010C947E010C947E010C947E01F4
:100090000C947E010C947E010C947E010C94FC0265
:1000A0000C947E010C947E010C947E010C947E01D4
:1000B0000C947E010C947E010C947E010C947E01C4
:1000C0000C947E010C947E010C947E010C947E01B4
:1000D0000C947E010C947E010C947E010C947E01A4
:1000E0000C947E01AD032C032C032C032C032C0356
:1000F0002C032C0341032C032C032C032C032C0373
:100100002C032C033B032C032C032C032C032C0368
:100110002C032C0356032C032C032C032C032C033D
:100120002C032C039D032C032C032C032C032C03E6
:100130002C032C035C032C032C032C032C032C0317
:100140002C032C039D032C032C032C032C032C03C6
:100150002C032C039D032C032C032C032C032C03B6
:100160002C032C0304042C032C032C032C032C033E
:100170002C032C039D032C032C032C032C032C0396
:100180002C032C031B042C032C032C032C032C0307
:100190002C032C03B5032C032C032C032C032C035E
:1001A0002C032C0319032C032C032C032C032C03EA
:1001B0002C032C0319032C032C032C032C032C03DA
:1001C0002C032C0319032C032C032C032C032C03CA
:1001D0002C032C0319032C032C032C032C032C03BA
:1001E0002C032C03CE032C032C032C032C032C03F5
:1001F0002C032C03E0032C032C032C032C032C03D3
:100200002C032C03CE032C032C032C032C032C03D4
:100210002C032C03E0032C032C032C032C032C03B2
:100220002C032C03F9032C032C032C032C032C0389
:100230002C032C0370032C032C032C032C032C0302
:100240002C032C0370032C032C032C032C032C03F2
:100250002C032C0379032C032C032C032C032C03D9
:100260002C032C03F9032C032C032C032C032C0349
:100270002C032C03F9030C949D030C941B040C9485
:1002800042040C9441030C94B5030C9479030C9430
:10029000F9030C942C030C9456030C943B030C941C
:1002A00019030C945C030C94AD030C94E0030C94C0
:1002B00070030C94CE030C94040411241FBECFEFE2
:1002C000D1E2DEBFCDBF00E00CBF12E0A0E0B2E0A3
:1002D000E8E6FAE000E00BBF02C007900D92A631FD
:1002E000B107D9F722E0A6E1B2E001C01D92A03526
:1002F000B207E1F70E9495040C9432050C940000BB
:10030000E6E1F2E0118210828FEF82831382109275
:10031000B90088E48093B80085E08093BC00109217
:100320001B0210921A0210923302109232020895A8
:1003300010921702109216029FEF909318021092DB
:1003400019021092B90098E49093B80095E0909348
:10035000BC0010921B0210921A02109233021092EB
:100360003202880F611103C08093BA000895816042
:100370008093BA000895209116023091170281E00F
:10038000232B09F080E00895653128F046C025E070
:100390002A95F1F700002091160230911702232BC5
:1003A000B1F721E030E0309317022093160240931A
:1003B000190270E06115710559F0DC01EEE1F2E01F
:1003C0009B01225E3D4F8D918193E217F307D9F790
:1003D00070931D0260931C0210921B0210921A026D
:1003E00080911602909117020297C9F085EA8093D6
:1003F000BC008091160290911702892B61F08FE367
:100400009CE90197F1F700C00000809116029091DD
:100410001702892BA1F780E0089581E0089580916B
:100420001A0290911B029C012F5F3F4F30931B02D9
:1004300020931A02FC01E25EFD4F80818093BB0095
:1004400085E88093BC00D5CF643128F04FC095E09B
:100450009A95F1F700002091160230911702232B94
:10046000B1F7109233021092320270E07093490299
:1004700060934802880F8160209116023091170224
:10048000232B51F095E09A95F1F700002091160288
:1004900030911702232BB1F721E030E0309317029F
:1004A000209316024093190280931E0230931D027E
:1004B00020931C0210921B0210921A0280911602C5
:1004C000909117020297A1F085EA8093BC0006C0C4
:1004D0008FE39CE90197F1F700C0000080911602BC
:1004E00090911702892BA1F780E0089581E008958B
:1004F00080911A0290911B029C012F5F3F4F309315
:100500001B0220931A02FC01E25EFD4F8081809362
:10051000BB0085E88093BC00E1CF653128F03BC08B
:1005200025E02A95F1F7000020911602309117027C
:10053000232BB1F721E030E030931702209316020D
:1005400010921B0210921A0270E070931D026093C9
:100550001C0225E42093BC006115710551F0DC01FB
:10056000EEE1F2E0625E7D4F8D918193E617F70731
:10057000D9F78091160290911702892B51F085E0EE
:100580008A95F1F700008091160290911702892B4D
:10059000B1F780E0089581E008958091160290916E
:1005A0001702892B51F085E08A95F1F700008091C0
:1005B000160290911702892BB1F781E090E0909399
:1005C000170280931602109233021092320285E4D1
:1005D0008093BC008091160290911702892B51F0F4
:1005E00085E08A95F1F7000080911602909117023C
:1005F000892BB1F780E008951F920F920FB60F92EA
:1006000011240BB60F922F933F938F939F93AF9329
:10061000BF93EF93FF938091B900887F90E0893C6E
:100620009105D0F4FC018827EE58FF4F8F4F0C94B2
:10063000FA0486E090E0909317028093160288EF08
:1006400080931802809132029091330243970CF408
:1006500070C085E88093BC00FF91EF91BF91AF918E
:100660009F918F913F912F910F900BBE0F900FBED6
:100670000F901F90189582E090E09093170280935E
:10068000160280911A0290911B029C012F5F3F4F2E
:1006900030931B0220931A02FC01E25EFD4F808121
:1006A0008093BB0085E88093BC00D6CF83E090E0C8
:1006B000909317028093160220911A0230911B0228
:1006C00080911C0290911D0228173907D4F2809165
:1006D0001902882309F4C1C085EA8093BC00BCCF0D
:1006E00085E090E0909317028093160285E4809352
:1006F000BC0080911A0290911B029C012F5F3F4F1A
:1007000030931B0220931A02FC01E25EFD4F8081B0
:100710008093BB0088EF8093180220911A023091D9
:100720001B0280911C0290911D02281739070CF0C2
:1007300090CF85EC8093BC008FCF80911602909172
:100740001702019709F494C08091B900887F8093C3
:100750001802809119028111BFCF85E98093BC00F6
:10076000109217021092160277CF80913202909168
:1007700033029C012F5F3F4F3093330220933202AC
:100780002091BB00FC01EC5CFD4F20838FEF809338
:10079000180280911902882301F39ECF80913202C2
:1007A000909133029C012F5F3F4F3093330220938F
:1007B00032022091BB00FC01EC5CFD4F20833FCF57
:1007C00080913202909133029C012F5F3F4F309312
:1007D0003302209332022091BB00FC01EC5CFD4F00
:1007E00020838FEF8093180280911902811134CFFA
:1007F000B7CF8FEF8093180285E88093BC0080917B
:100800001902811129CFACCF84E090E090931702B8
:100810008093160288EF8093180220913202309163
:1008200033028091480290914902019728173907B5
:100830000CF00FCF7ECF80913202909133029C0159
:100840002F5F3F4F30933302209332022091BB0041
:10085000FC01EC5CFD4F2083DDCF85E98093BC007B
:100860008FEF809318021092170210921602F4CEA6
:1008700080911A0290911B02019790931B02809322
:100880001A022ACF8A3049F09091C00095FFFCCF20
:100890008093C60080E090E008959091C00095FF9D
:1008A000FCCF9DE09093C600EFCF9093C50080935E
:1008B000C40086E08093C20088E98093C100089557
:1008C0009091C00095FFFCCF8093C6000895809161
:1008D000C00087FFFCCF8091C60008958091C000C2
:1008E000881F8827881F0895FC012081222351F04A
:1008F00031969091C00095FFFCCF2093C6002191C6
:100900002111F7CF089580E092E090934D028093FB
:100910004C021092C50082E38093C40086E080936D
:10092000C20088E98093C1000895CF93DF93CDB7CB
:10093000DEB72F970FB6F894DEBF0FBECDBF0E9473
:100940008304789461E081E00E94980187E58A87BA
:100950008FE68B8792E79C878CE68D8784E68E876F
:100960001F8683E5898381E68A839B8395E69C8342
:1009700094E79D839E838F8381E2888719860E94F6
:10098000CD0284E392E00E94020566E0CE010A9661
:100990000E948D020E94CD0284E392E00E94020533
:1009A00066E0CE010A960E948D0266E0CE010A96AC
:1009B0000E948D020E94CD0284E392E00E94020513
:1009C0000E94CD0284E392E00E94020569E0CE011C
:1009D00001960E948D028EE092E00E94020580E066
:1009E00090E02F960FB6F894DEBF0FBECDBFDF911B
:1009F000CF910895EE0FFF1F881F8BBF0790F691D0
:100A0000E02D19940F931F93CF93DF93E0914C0245
:100A1000F0914D02238121FF1BC08C01D0E0C0E08A
:100A2000F80181918F0160914C0270914D02DB01C0
:100A30001896ED91FC911997882331F01995892B1F
:100A400079F3DFEFCFEFECCF8AE01995892B19F01E
:100A50008FEF9FEF02C08D2F9C2FDF91CF911F91C1
:080A60000F910895F894FFCFF7
:100A6800000000020000000042040000000062795B
:060A7800652062796500B3
:00000001FF
