:100000000C945D010C947E010C947E010C947E0195
:100010000C947E010C947E010C947E010C947E0164
:100020000C947E010C947E010C947E010C947E0154
:100030000C947E010C947E010C947E010C947E0144
:100040000C947E010C947E010C947E010C947E0134
:100050000C947E010C947E010C947E010C947E0124
:100060000C947E010C9426050C9452050C947E0190
:100070000C947E010C947E010C947E010C947E0104
:100080000C947E010C947E010C947E010C947E01F4
:100090000C947E010C947E010C947E010C94F00271
:1000A0000C947E010C947E010C947E010C947E01D4
:1000B0000C947E010C947E010C947E010C947E01C4
:1000C0000C947E010C947E010C947E010C947E01B4
:1000D0000C947E010C947E010C947E010C947E01A4
:1000E0000C947E01A103200320032003200320039E
:1000F00020032003350320032003200320032003D3
:10010000200320032F0320032003200320032003C8
:10011000200320034A03200320032003200320039D
:100120002003200391032003200320032003200346
:100130002003200350032003200320032003200377
:100140002003200391032003200320032003200326
:100150002003200391032003200320032003200316
:1001600020032003F803200320032003200320039F
:1001700020032003910320032003200320032003F6
:10018000200320030F042003200320032003200367
:1001900020032003A90320032003200320032003BE
:1001A000200320030D03200320032003200320034A
:1001B000200320030D03200320032003200320033A
:1001C000200320030D03200320032003200320032A
:1001D000200320030D03200320032003200320031A
:1001E00020032003C2032003200320032003200355
:1001F00020032003D4032003200320032003200333
:1002000020032003C2032003200320032003200334
:1002100020032003D4032003200320032003200312
:1002200020032003ED0320032003200320032003E9
:100230002003200364032003200320032003200362
:100240002003200364032003200320032003200352
:10025000200320036D032003200320032003200339
:1002600020032003ED0320032003200320032003A9
:1002700020032003ED030C9450030C94A1030C9471
:1002800091030C9420030C94D4030C9464030C94F9
:10029000A9030C94F8030C94C2030C9435030C943A
:1002A0004A030C940F040C942F030C946D030C94CC
:1002B00036040C940D030C94ED0311241FBECFEFF4
:1002C000D1E2DEBFCDBF00E00CBF12E0A0E0B2E0A3
:1002D000E4EEFBE000E00BBF02C007900D92AE32EF
:1002E000B107D9F722E0AEE2B2E001C01D92A03F13
:1002F000B207E1F70E9480050C94F0050C94000011
:10030000E6EBF2E0118210828FEF8283138210926B
:10031000B90088E48093B80085E08093BC00109217
:10032000BB021092BA021092D3021092D202089528
:100330001092B7021092B6029FEF9093B8021092FB
:10034000B9021092B90098E49093B80095E09093A8
:10035000BC001092BB021092BA021092D30210920B
:10036000D202880F611103C08093BA0008958160A2
:100370008093BA000895F8942091B6023091B702A4
:10038000789481E0232B09F080E00895653130F006
:1003900081E0089525E02A95F1F70000F894209176
:1003A000B6023091B7027894232BA1F721E030E018
:1003B0003093B7022093B6024093B90270E0611502
:1003C000710559F0DC01EEEBF2E09B0122543D4F48
:1003D0008D9181932E173F07D9F77093BD026093DB
:1003E000BC021092BB021092BA028091B6029091A8
:1003F000B702029791F085EA8093BC00F89480914F
:10040000B6029091B7027894892B11F480E0089598
:1004100085E08A95F1F70000F1CF8091BA029091C2
:10042000BB029C012F5F3F4F3093BB022093BA0267
:10043000FC01E254FD4F80818093BB0085E88093EE
:10044000BC00DCCF643130F081E0089595E09A95EE
:10045000F1F70000F8942091B6023091B702789439
:10046000232BA1F71092D3021092D20270E0709366
:10047000E9026093E802880F8160F8942091B60247
:100480003091B7027894232B29F521E030E03093A6
:10049000B7022093B6024093B9028093BE02309314
:1004A000BD022093BC021092BB021092BA0280914E
:1004B000B6029091B7020297B9F085EA8093BC002A
:1004C000F8948091B6029091B7027894892B39F410
:1004D00080E0089595E09A95F1F70000CECF85E091
:1004E0008A95F1F70000ECCF8091BA029091BB029F
:1004F0009C012F5F3F4F3093BB022093BA02FC0157
:10050000E254FD4F80818093BB0085E88093BC005E
:10051000D7CF653130F081E0089525E02A95F1F7D5
:100520000000F8942091B6023091B7027894232B02
:10053000A1F721E030E03093B7022093B602109289
:10054000BB021092BA0270E07093BD026093BC02CD
:1005500025E42093BC006115710551F0DC01EEEB40
:10056000F2E062547D4F8D9181936E177F07D9F72A
:10057000F8948091B6029091B7027894892B11F487
:1005800080E0089585E08A95F1F70000F1CFF894B6
:100590008091B6029091B7027894892BB9F481E0EA
:1005A00090E09093B7028093B6021092D30210921B
:1005B000D20285E48093BC00F8948091B6029091B9
:1005C000B7027894892B39F480E0089585E08A9504
:1005D000F1F70000DCCF85E08A95F1F70000ECCF61
:1005E0001F920F920FB60F9211240BB60F922F93FA
:1005F0003F938F939F93AF93BF93EF93FF9380911C
:10060000B900887F90E0893C9105D0F4FC018827EF
:10061000EE58FF4F8F4F0C94E10586E090E09093E9
:10062000B7028093B60288EF8093B8028091D2021D
:100630009091D30243970CF470C085E88093BC007E
:10064000FF91EF91BF91AF919F918F913F912F912A
:100650000F900BBE0F900FBE0F901F90189582E069
:1006600090E09093B7028093B6028091BA02909185
:10067000BB029C012F5F3F4F3093BB022093BA0215
:10068000FC01E254FD4F80818093BB0085E880939C
:10069000BC00D6CF83E090E09093B7028093B6027F
:1006A0002091BA023091BB028091BC029091BD02B0
:1006B00028173907D4F28091B902882309F4C1C000
:1006C00085EA8093BC00BCCF85E090E09093B702B0
:1006D0008093B60285E48093BC008091BA02909129
:1006E000BB029C012F5F3F4F3093BB022093BA02A5
:1006F000FC01E254FD4F80818093BB0088EF809322
:10070000B8022091BA023091BB028091BC02909154
:10071000BD02281739070CF090CF85EC8093BC0000
:100720008FCF8091B6029091B702019709F494C0DF
:100730008091B900887F8093B8028091B9028111BD
:10074000BFCF85E98093BC001092B7021092B60229
:1007500077CF8091D2029091D3029C012F5F3F4FBF
:100760003093D3022093D2022091BB00FC01EC52C3
:10077000FD4F20838FEF8093B8028091B9028823C8
:1007800001F39ECF8091D2029091D3029C012F5F02
:100790003F4F3093D3022093D2022091BB00FC0143
:1007A000EC52FD4F20833FCF8091D2029091D30233
:1007B0009C012F5F3F4F3093D3022093D2022091B0
:1007C000BB00FC01EC52FD4F20838FEF8093B802F9
:1007D0008091B902811134CFB7CF8FEF8093B802E7
:1007E00085E88093BC008091B902811129CFACCFFC
:1007F00084E090E09093B7028093B60288EF8093F4
:10080000B8022091D2023091D3028091E8029091F7
:10081000E9020197281739070CF00FCF7ECF80919E
:10082000D2029091D3029C012F5F3F4F3093D302AD
:100830002093D2022091BB00FC01EC52FD4F20839B
:10084000DDCF85E98093BC008FEF8093B8021092D2
:10085000B7021092B602F4CE8091BA029091BB0218
:1008600001979093BB028093BA022ACF8A3049F055
:100870009091C00095FFFCCF8093C60080E090E08F
:1008800008959091C00095FFFCCF9DE09093C60025
:10089000EFCF9093C5008093C40086E08093C200A0
:1008A00088E98093C10008959091C00095FFFCCF26
:1008B0008093C60008958091C00087FFFCCF80918F
:1008C000C60008958091C000881F8827881F08955A
:1008D000FC012081222351F031969091C00095FFB8
:1008E000FCCF2093C60021912111F7CF089580E01D
:1008F00092E09093ED028093EC021092C50082E3A7
:100900008093C40086E08093C20088E98093C10090
:100910000895F8941092C50083E38093C400E1EC3D
:10092000F0E08081886180838081806C808386E0B4
:100930008093C2001092B5021092B4021092B302DA
:100940001092B202789408959091B5028091B40209
:100950009817D1F3E091B402EF5FEF71E093B40226
:10096000F0E0EE58FD4F80819091C1009068909327
:10097000C10008952091B3022F5F2F719091B202B0
:100980002917E1F3E22FF0E0EE56FD4F808320932C
:10099000B3028091C10080628093C1000895DC01A0
:1009A0002091B5029091B4022917D1F3E091B402DD
:1009B000EF5FEF71E093B402F0E0EE58FD4F9081ED
:1009C0002091C10020682093C1009D939923E1F0FC
:1009D0009A3011F09D3021F7FD013197108220915E
:1009E000B5029091B4022917D1F3E091B402EF5F00
:1009F000EF71E093B402F0E0EE58FD4F90819091DA
:100A0000C10090689093C1009A2F981B892F089578
:100A1000FC0130813323C9F0DC0111962091B3022F
:100A20002F5F2F719091B2022917E1F3E22FF0E0CE
:100A3000EE56FD4F30832093B3029091C100906237
:100A40009093C1003D913111E9CF08951F920F920B
:100A50000FB60F9211240BB60F928F939F93EF93C3
:100A6000FF939091C600E091B502EF5FEF71809126
:100A7000B402E81789F0E093B502F0E0EE58FD4FBC
:100A80009083FF91EF919F918F910F900BBE0F90EC
:100A90000FBE0F901F9018958091C1008F778093A3
:100AA000C100EFCF1F920F920FB60F9211240BB619
:100AB0000F928F939F93EF93FF939091B302809146
:100AC000B2029817B9F0E091B202EF5FEF71E093D4
:100AD000B202F0E0EE56FD4F80818093C600FF9198
:100AE000EF919F918F910F900BBE0F900FBE0F90C3
:100AF0001F9018958091C1008F7D8093C100EFCF2A
:100B0000CF93DF93CDB7DEB764970FB6F894DEBF0F
:100B10000FBECDBF0E9489040E947704789461E0E3
:100B200081E00E94980185E0EEE0F2E0DE011B9694
:100B300001900D928A95E1F785E0FE017096DF0144
:100B4000982F1D929A95E9F7EEE0F2E0DE011196FA
:100B5000982F01900D929A95E1F7FE013696DF01EC
:100B60001D928A95E9F71EC00E94C702BE016F5F01
:100B70007F4FCE010B960E94E9050E94C7020E949A
:100B8000C7026AE0CE010B960E94890288E192E0DA
:100B90000E940805CE010B960E9408058BE292E0A8
:100BA0000E9408050E94C7020E94C7028091D402D9
:100BB0008823D1F264ED72E0CE0101960E94E9052E
:100BC000D3CFEE0FFF1F881F8BBF0790F691E02D4C
:100BD0001994FB01DC0101900D920020E1F70895CA
:040BE000F894FFCFB7
:100BE40000000002000000003604000000006E6FE8
:100BF4006E6500000000000063757272656E745FBC
:0E0C040076656C6F636974793A20000A00000F
:00000001FF
