:100000000C94A5010C94C6010C94C6010C94C60175
:100010000C94C6010C94C6010C94C6010C94C60144
:100020000C94C6010C94C6010C94C6010C94C60134
:100030000C94C6010C94C6010C94C6010C94C60124
:100040000C94C6010C94C6010C94C6010C94C60114
:100050000C94C6010C94C6010C94C6010C94C60104
:100060000C94C6010C94C6010C94C6010C94C601F4
:100070000C94C6010C94C6010C94C6010C94C601E4
:100080000C94C6010C94C6010C94C6010C94C601D4
:100090000C94C6010C94C6010C94C6010C94D002B9
:1000A0000C94C6010C94C6010C94C6010C94C601B4
:1000B0000C94C6010C94C6010C94C6010C94C601A4
:1000C0000C94C6010C94C6010C94C6010C94C60194
:1000D0000C94C6010C94C6010C94C6010C94C60184
:1000E0000C94C60120041103110311031103110321
:1000F000110311039D0311031103110311031103D4
:1001000011031103930311031103110311031103CD
:1001100011031103B603110311031103110311039A
:10012000110311032403110311031103110311031C
:1001300011031103C0031103110311031103110370
:1001400011031103280311031103110311031103F8
:1001500011031103300311031103110311031103E0
:1001600011031103310411031103110311031103CE
:10017000110311032C0311031103110311031103C4
:100180001103110367041103110311031103110378
:100190001103110349041103110311031103110386
:1001A00011031103FA0211031103110311031103C7
:1001B00011031103EE0211031103110311031103C3
:1001C00011031103F60211031103110311031103AB
:1001D00011031103F202110311031103110311039F
:1001E000110311030304110311031103110311037C
:1001F00011031103E203110311031103110311038E
:1002000011031103FF031103110311031103110360
:1002100011031103DE031103110311031103110371
:10022000110311034A0311031103110311031103F5
:1002300011031103630311031103110311031103CC
:10024000110311035F0311031103110311031103C0
:10025000110311037003110311031103110311039F
:1002600011031103420311031103110311031103BD
:1002700011031103460311031103110311031103A9
:1002800011031103110311031103110311031103CE
:1002900011031103110311031103110311031103BE
:1002A00011031103110311031103110311031103AE
:1002B000110311031103110311031103110311039E
:1002C000110311031103110311031103110311038E
:1002D000110311032C040C9420040C94DE030C94E1
:1002E0005F030C9486040C9403040C9449040C944E
:1002F00042030C9430030C94F6020C9431040C94D9
:100300004A030C949D030C9446030C94C0030C9474
:10031000FF030C94B6030C94F2020C94EE020C94BE
:1003200063030C9411030C9467040C942C040C9438
:10033000FA020C942C030C9493030C9428030C9451
:1003400024030C94E2030C94700311241FBECFEF1E
:10035000D1E2DEBFCDBF00E00CBF14E0A0E0B2E010
:10036000E8E5FAE000E00BBF02C007900D92A43070
:10037000B107D9F724E0A4E0B4E001C01D92AE3388
:10038000B207E1F70E94D9040C942A050C940000EE
:10039000E4E0F4E0118210828FEF828313821092E6
:1003A000B90088E48093B80085E08093BC00109287
:1003B0000904109208041092210410922004089558
:1003C000880F611106C08093BA0085E48093BC0059
:1003D000089581608093BA0085E48093BC000895FD
:1003E00020910404309105042D7F81E0232B09F036
:1003F00080E008950F931F93CF93DF93182F092F59
:10040000C62FD42F0E94C704C53148F03DC085E0F7
:100410008A95F1F700008EE092E00E94FA042091A4
:10042000040430910504C9018D7F892B81F7D09395
:1004300007046C2F70E06115710561F0A12FB02FDA
:10044000ECE0F4E0AB01445F5B4F8D9181934E177C
:100450005F07D9F770930B0460930A0410920904A4
:100460001092080481E090E09093050480930404C6
:100470002230310579F085EA8093BC0080E0DF917D
:10048000CF911F910F91089581E0DF91CF911F913E
:100490000F91089580910804909109049C012F5FA9
:1004A0003F4F3093090420930804FC01E45FFB4FA5
:1004B00080818093BB0085E88093BC0080E0DF9161
:1004C000CF911F910F9108951F93CF93DF93D82F52
:1004D000C62F142F0E94C704C43128F081E0DF9199
:1004E000CF911F91089510922104109220046C2F37
:1004F00070E07093370460933604DD0FD1600E9482
:10050000C7042091040430910504C9018D7F892B13
:1005100081F085E08A95F1F700008EE092E00E947C
:10052000FA042091040430910504A9014D7F452B64
:1005300081F710930704D0930C0481E090E090932E
:100540000B0480930A0410920904109208042230CC
:10055000310561F0909305048093040485EA80934B
:10056000BC0080E0DF91CF911F9108959093050426
:100570008093040480910804909109049C012F5FEA
:100580003F4F3093090420930804FC01E45FFB4FC4
:1005900080818093BB0085E88093BC0080E0E2CF3F
:1005A0001F920F920FB60F9211240BB60F922F933A
:1005B0003F934F935F936F937F938F939F93AF93EB
:1005C000BF93EF93FF938091B900887F90E0FC0187
:1005D0008827EE58FF4F8F4F0C94F2048EEC92E078
:1005E0000E94FA0487EE92E00E94FA048FEF92E0F4
:1005F0000E94FA048EE093E00E94FA0486E090E004
:100600009093050480930404809120049091210428
:1006100043970CF081C088EF8093060485EC8093AB
:10062000BC00FF91EF91BF91AF919F918F917F910E
:100630006F915F914F913F912F910F900BBE0F9053
:100640000FBE0F901F9018958DE592E00E94FA045E
:100650008DE692E00E94FA048FE792E00E94FA048D
:100660008FE892E00E94FA048091B900887F80931D
:10067000060480910704882309F4E6C085EA809384
:10068000BC00CFCF8BE693E00E94FA048DE793E0A5
:100690000E94FA048FE893E00E94FA048091B90066
:1006A000887F8093060485E88093BC0080910704CE
:1006B0008111B7CF1092050410920404B2CF84EADE
:1006C00093E00E94FA0488EB93E00E94FA0485E02C
:1006D00090E0909305048093040485E48093BC002B
:1006E00087EC93E00E94FA04809108049091090439
:1006F0009C012F5F3F4F3093090420930804FC01B5
:10070000E45FFB4F80818093BB008091080490914F
:10071000090443970CF47FCF88EF8093060485E8A3
:100720008093BC007ECF87E292E00E94FA0482E0D0
:1007300090E090930504809304048BE292E00E9481
:10074000FA0480910804909109049C012F5F3F4FA7
:100750003093090420930804FC01E45FFB4F80817F
:100760008093BB0085E88093BC005BCF8DE392E073
:100770000E94FA0483E090E09093050480930404BF
:100780008CE492E00E94FA0420910804309109045C
:1007900080910A0490910B042817390794F28091F4
:1007A000070481116BCF10920504109204048FEF9F
:1007B0008093060485E98093BC0033CF83E493E003
:1007C0000E94FA0487E593E00E94FA0480912004D5
:1007D000909121049C012F5F3F4F3093210420937F
:1007E00020042091BB00FC01EE5DFB4F20838FEFC6
:1007F0008093060480910704811113CF5BCF8DE1B4
:1008000093E00E94FA0480E393E00E94FA0480914E
:100810002004909121049C012F5F3F4F30932104CD
:10082000209320044091BB00FC01EE5DFB4F408310
:1008300088EF80930604233131050CF070CFEECEA3
:100840008DEE93E00E94FA041092050410920404C5
:1008500085E98093BC00E5CE88ED93E00E94FA0420
:10086000E0CE80EA92E00E94FA0484E090E0909367
:100870000504809304048091360490913704019715
:100880002091200430912104281739070CF044CF1F
:10089000C2CE8EEB92E00E94FA04809120049091E7
:1008A00021049C012F5F3F4F3093210420932004AB
:1008B0002091BB00FC01EE5DFB4F20838FEF809306
:1008C000060480910704882309F4BECFD7CE8FEAAF
:1008D00092E00E94FA0480912004909121049C01EE
:1008E0002F5F3F4F30932104209320044091BB00A1
:1008F000FC01EE5DFB4F40838091360490913704FC
:100900000197281739070CF007CF85CE8A3049F0B8
:100910009091C00095FFFCCF8093C60080E090E0EE
:1009200008959091C00095FFFCCF9DE09093C60084
:10093000EFCF9093C5008093C40086E08093C200FF
:1009400088E98093C10008959091C00095FFFCCF85
:100950008093C60008958091C00087FFFCCF8091EE
:10096000C60008958091C000881F8827881F0895B9
:10097000FC012081222351F031969091C00095FF17
:10098000FCCF2093C60021912111F7CF089580E07C
:1009900092E090933B0480933A041092C50082E366
:1009A0008093C40086E08093C20088E98093C100F0
:1009B00008950E94C70478940E94C80161E081E014
:1009C0000E94E0012FEF83ED90E3215080409040A2
:1009D000E1F700C0000082E294E00E94FA0480E0A7
:1009E00090E00895EE0FFF1F881F8BBF0790F691D0
:1009F000E02D19940F931F93CF93DF93E0913A0466
:100A0000F0913B04238121FF1BC08C01D0E0C0E0AA
:100A1000F80181918F0160913A0470913B04DB01F0
:100A20001896ED91FC911997882331F01995892B2F
:100A300079F3DFEFCFEFECCF8AE01995892B19F02E
:100A40008FEF9FEF02C08D2F9C2FDF91CF911F91D1
:080A50000F910895F894FFCF07
:100A58000000000200000000860400000000536F40
:100A68006E6F20626C6F636361746F2071756920AB
:100A7800616975746F21005245505F535441525457
:100A88005F5452414E534D495454454400534C41D0
:100A9800575F54525F41434B5F5256004D5F44418C
:100AA80054415F54525F41434B5F525600534C418F
:100AB800575F54525F4E41434B5F5256004D5F445F
:100AC8004154415F54525F4E41434B5F525600536D
:100AD8004C41525F54525F4E41434B5F5256004166
:100AE80052424954524154494F4E5F4C4F5354005F
:100AF800534C41525F54525F41434B5F525600443E
:100B08004154415F52565F41434B5F545200444148
:100B180054415F52565F4E41434B5F54520041521D
:100B2800424954524154494F4E5F4C4F53545F53BE
:100B3800525F41444452004152424954524154493F
:100B48004F4E5F4C4F53545F53525F4252440042E2
:100B58005244575F52565F41434B5F545200534CC7
:100B680041575F52565F41434B5F545200444154D2
:100B7800415F4252445F52565F41434B5F545200BB
:100B8800444154415F534C415F52565F41434B5F70
:100B9800545200444154415F4252445F52565F4EA2
:100BA80041434B5F545200444154415F534C415FB1
:100BB80052565F4E41434B5F545200535F44415479
:100BC800415F54525F4E41434B5F525600535F4C56
:100BD800444154415F54525F41434B5F5256005366
:100BE800544152545F53544F505F464F525F534CD9
:100BF800415645004152424954524154494F4E5F73
:100C08004C4F53545F535400534C41525F52565FFC
:100C180041434B5F545200535F444154415F545227
:100C28005F41434B5F5256005457495F4E4F5F52E6
:100C3800454C4556414E545F494E464F005457491E
:100C48005F494C4C4547414C5F53544152545F53A4
:040C5800544F5000A5
:00000001FF
