:100000000C94A5010C94C6010C94C6010C94C60175
:100010000C94C6010C94C6010C94C6010C94C60144
:100020000C94C6010C94C6010C94C6010C94C60134
:100030000C94C6010C94C6010C94C6010C94C60124
:100040000C94C6010C94C6010C94C6010C94C60114
:100050000C94C6010C94C6010C94C6010C94C60104
:100060000C94C6010C94C6010C94C6010C94C601F4
:100070000C94C6010C94C6010C94C6010C94C601E4
:100080000C94C6010C94C6010C94C6010C94C601D4
:100090000C94C6010C94C6010C94C6010C94E502A4
:1000A0000C94C6010C94C6010C94C6010C94C601B4
:1000B0000C94C6010C94C6010C94C6010C94C601A4
:1000C0000C94C6010C94C6010C94C6010C94C60194
:1000D0000C94C6010C94C6010C94C6010C94C60184
:1000E0000C94C6013A04260326032603260326039E
:1000F00026032603B7032603260326032603260327
:1001000026032603AD032603260326032603260320
:1001100026032603D00326032603260326032603ED
:100120002603260339032603260326032603260374
:1001300026032603DA0326032603260326032603C3
:10014000260326033D032603260326032603260350
:100150002603260345032603260326032603260338
:10016000260326034B042603260326032603260321
:10017000260326034103260326032603260326031C
:1001800026032603810426032603260326032603CB
:1001900026032603630426032603260326032603D9
:1001A000260326030F03260326032603260326031E
:1001B000260326030303260326032603260326031A
:1001C000260326030B032603260326032603260302
:1001D00026032603070326032603260326032603F6
:1001E000260326031D0426032603260326032603CF
:1001F00026032603FC0326032603260326032603E1
:1002000026032603190426032603260326032603B2
:1002100026032603F80326032603260326032603C4
:10022000260326035F03260326032603260326034D
:100230002603260378032603260326032603260324
:100240002603260374032603260326032603260318
:1002500026032603850326032603260326032603F7
:100260002603260357032603260326032603260315
:10027000260326035B032603260326032603260301
:100280002603260326032603260326032603260326
:100290002603260326032603260326032603260316
:1002A0002603260326032603260326032603260306
:1002B00026032603260326032603260326032603F6
:1002C00026032603260326032603260326032603E6
:1002D0002603260346040C94D0030C9463040C9468
:1002E0000F030C94DA030C94AD030C941D040C94CE
:1002F00045030C940B030C9457030C9419040C94B1
:1003000041030C9474030C9403030C945B030C944E
:1003100007030C9485030C943A040C94FC030C948E
:10032000F8030C9481040C94B7030C9439030C94D7
:100330004B040C9478030C945F030C943D030C94D1
:10034000A0040C9426030C94460411241FBECFEF86
:10035000D1E2DEBFCDBF00E00CBF13E0A0E0B2E011
:10036000E2EDFAE000E00BBF02C007900D92A43F5F
:10037000B107D9F724E0A4EFB3E001C01D92AE327B
:10038000B207E1F70E94F3040C9467050C94000097
:10039000E4EFF3E0118210828FEF828313821092D8
:1003A000B90088E48093B80085E08093BC00109287
:1003B000F9031092F803109211041092100408959A
:1003C0002091F4033091F5032D7F81E0232B09F078
:1003D00080E008950F931F93CF93DF93182F092F79
:1003E000C62FD42F0E94E104C53128F035C085E026
:1003F0008A95F1F700008091F4039091F5038D7FC9
:10040000892BA9F781E090E09093F5038093F403A2
:10041000D093F7036C2F70E06115710561F0A12F87
:10042000B02FECEFF3E09B0124503C4F8D91819372
:100430002E173F07D9F77093FB036093FA031092CE
:10044000F9031092F80385EA8093BC0080E0DF9105
:10045000CF911F910F91089581E0DF91CF911F916E
:100460000F910895CF93DF93643120F081E0DF9105
:10047000CF910895D42FC82F109211041092100418
:10048000262F30E03093270420932604CC0FC16040
:100490000E94E1048091F4039091F5038D7F892BF4
:1004A00059F085E08A95F1F700008091F40390916E
:1004B000F5038D7F892BA9F781E090E09093F503F8
:1004C0008093F403D093F703C093FC039093FB0352
:1004D0008093FA031092F9031092F80385EA80934F
:1004E000BC0080E0DF91CF910895453108F04AC00B
:1004F00021E030E03093F5032093F4031092F903E8
:100500001092F80350E05093FB034093FA03880FD6
:1005100081608093BA0085E48093BC002091F80349
:100520003091F9038091F8039091F903840F951F9E
:1005300028173907F4F4FB01E20FF31FD901A45087
:10054000BC4F81918D932F5F3F4F8091F803909125
:10055000F903840F951F281739079CF38091F40342
:100560009091F5038D7F892B59F085E08A95F1F7FD
:1005700000008091F4039091F5038D7F892BA9F7FA
:1005800080E0089581E0089521E030E03093F503A4
:100590002093F403880F81608093BA0085E48093F0
:1005A000BC008091F4039091F5038D7F892B59F065
:1005B00085E08A95F1F700008091F4039091F503AE
:1005C0008D7F892BA9F780E008951F920F920FB6B7
:1005D0000F9211240BB60F922F933F934F935F937B
:1005E0006F937F938F939F93AF93BF93EF93FF93FB
:1005F0008091B900887F90E0FC018827EE58FF4F7A
:100600008F4F0C942F058DEB92E00E94370586EDFD
:1006100092E00E9437058EEE92E00E9437058DEF42
:1006200092E00E94370586E090E09093F503809376
:10063000F403809110049091110443970CF086C04C
:1006400088EF8093F60385EC8093BC00FF91EF91D7
:10065000BF91AF919F918F917F916F915F914F91DA
:100660003F912F910F900BBE0F900FBE0F901F90D8
:1006700018958CE492E00E9437058CE592E00E9488
:1006800037058EE692E00E9437058EE792E00E94E1
:1006900037058091B900887F8093F6038091F70336
:1006A000882309F4EBC085EA8093BC00CFCF8AE5AC
:1006B00093E00E9437058CE693E00E9437058EE7B1
:1006C00093E00E9437058091B900887F8093F603FC
:1006D00085E88093BC008091F7038111B7CF109219
:1006E000F5031092F403B2CF83E993E00E9437053B
:1006F00087EA93E00E94370585E090E09093F50348
:100700008093F40385E48093BC0086EB93E00E9421
:1007100037058091F8039091F9039C012F5F3F4FBB
:100720003093F9032093F803FC01E450FC4F8081DF
:100730008093BB002091F8033091F9038091FA0374
:100740009091FB03281739070CF47ACF88EF809338
:10075000F60385E88093BC0079CF86E192E00E94A1
:10076000370582E090E09093F5038093F4038AE1EB
:1007700092E00E9437058091F8039091F9039C0163
:100780002F5F3F4F3093F9032093F803FC01E450AF
:10079000FC4F80818093BB0085E88093BC0056CFDE
:1007A0008CE292E00E94370583E090E09093F5039D
:1007B0008093F4038BE392E00E9437052091F803C5
:1007C0003091F9038091FA039091FB0328173907C0
:1007D00094F28091F703811166CF1092F503109285
:1007E000F4038FEF8093F60385E98093BC002ECF4E
:1007F00082E393E00E94370586E493E00E94370588
:1008000080911004909111049C012F5F3F4F309311
:100810001104209310042091BB00FC01EE5EFB4FFD
:1008200020838FEF8093F6038091F70381110ECF21
:1008300056CF8CE093E00E9437058FE193E00E9451
:10084000370580911004909111049C012F5F3F4F58
:1008500030931104209310044091BB00FC01EE5E24
:10086000FB4F408388EF8093F603233131050CF072
:1008700070CFE9CE8CED93E00E9437051092F5031E
:100880001092F40385E98093BC00E0CE87EC93E0FE
:100890000E943705DBCE8FE892E00E94370584E0A6
:1008A00090E09093F5038093F40380912604909157
:1008B000270401972091100430911104281739075B
:1008C0000CF044CFBDCE8DEA92E00E9437058091B6
:1008D0001004909111049C012F5F3F4F309311043D
:1008E000209310042091BB00FC01EE5EFB4F20839F
:1008F0008FEF8093F6038091F703882309F4BECF2E
:10090000D2CE8EE992E00E9437058091100490913A
:1009100011049C012F5F3F4F30931104209310046A
:100920004091BB00FC01EE5EFB4F408380912604AA
:10093000909127040197281739070CF007CF80CE34
:100940008A3049F09091C00095FFFCCF8093C6009B
:1009500080E090E008959091C00095FFFCCF9DE06D
:100960009093C600EFCF9093C5008093C40086E0BB
:100970008093C20088E98093C10008959091C000DF
:1009800095FFFCCF8093C60008958091C00087FF3B
:10099000FCCF8091C60008958091C000881F8827F1
:1009A000881F0895FC012081222351F031969091F7
:1009B000C00095FFFCCF2093C60021912111F7CFF5
:1009C000089580E092E090932B0480932A04109283
:1009D000C50082E38093C40086E08093C20088E96A
:1009E0008093C1000895CF93DF9300D000D0CDB79E
:1009F000DEB70E94E10478940E94C80187E58983EC
:100A00008FE68A8382E78B838CE68C8384E68D83F2
:100A10001E8281E00E94C40204C085E08A95F1F73D
:100A200000000E94E0018823C1F382E194E00E946B
:100A3000370546E0BE016F5F7F4F81E00E9475027F
:100A40008EE092E00E94370580E090E026960FB697
:100A5000F894DEBF0FBECDBFDF91CF910895EE0FAA
:100A6000FF1F881F8BBF0790F691E02D19940F93FD
:100A70001F93CF93DF93E0912A04F0912B042381FD
:100A800021FF1BC08C01D0E0C0E0F80181918F01F3
:100A900060912A0470912B04DB011896ED91FC9172
:100AA0001997882331F01995892B79F3DFEFCFEF70
:100AB000ECCF8AE01995892B19F08FEF9FEF02C0D8
:100AC0008D2F9C2FDF91CF911F910F910895F89456
:020AD000FFCF56
:100AD2000000000200000000A00400000000627993
:100AE2006520627965005245505F53544152545F0C
:100AF2005452414E534D495454454400534C41576E
:100B02005F54525F41434B5F5256004D5F44415424
:100B1200415F54525F41434B5F525600534C415721
:100B22005F54525F4E41434B5F5256004D5F44410A
:100B320054415F54525F4E41434B5F525600534CF7
:100B420041525F54525F4E41434B5F5256004152F5
:100B5200424954524154494F4E5F4C4F53540053F3
:100B62004C41525F54525F41434B5F5256004441E5
:100B720054415F52565F41434B5F545200444154CB
:100B8200415F52565F4E41434B5F545200415242C5
:100B92004954524154494F4E5F4C4F53545F535244
:100BA2005F41444452004152424954524154494FD8
:100BB2004E5F4C4F53545F53525F42524400425275
:100BC20044575F52565F41434B5F545200534C416E
:100BD200575F52565F41434B5F5452004441544168
:100BE2005F4252445F52565F41434B5F545200444E
:100BF2004154415F534C415F52565F41434B5F54F6
:100C02005200444154415F4252445F52565F4E414A
:100C1200434B5F545200444154415F534C415F5235
:100C2200565F4E41434B5F545200535F444154411F
:100C32005F54525F4E41434B5F525600535F4C44E8
:100C42004154415F54525F41434B5F5256005354EB
:100C52004152545F53544F505F464F525F534C4181
:100C62005645004152424954524154494F4E5F4CFD
:100C72004F53545F535400534C41525F52565F419D
:100C8200434B5F545200535F444154415F54525F9F
:100C920041434B5F5256005457495F4E4F5F524596
:100CA2004C4556414E545F494E464F005457495F9A
:100CB200494C4C4547414C5F53544152545F535445
:040CC2004F5000008F
:00000001FF
