:100000000C9474000C9495000C9495000C9495003D
:100010000C9495000C9495000C9495000C9495000C
:100020000C9495000C9495000C9495000C949500FC
:100030000C9495000C9495000C9495000C949500EC
:100040000C9495000C9495000C9495000C949500DC
:100050000C9495000C9495000C9495000C949500CC
:100060000C9495000C94EA000C9428010C949500D3
:100070000C9495000C9495000C9495000C949500AC
:100080000C9495000C9495000C9495000C9495009C
:100090000C9495000C9495000C9495000C9495008C
:1000A0000C9495000C9495000C9495000C9495007C
:1000B0000C9495000C9495000C9495000C9495006C
:1000C0000C9495000C9495000C9495000C9495005C
:1000D0000C9495000C9495000C9495000C9495004C
:1000E0000C9495000C94970011241FBECFEFD1E221
:1000F000DEBFCDBF00E00CBF12E0A0E0B2E0EAE658
:10010000FAE000E00BBF02C007900D92AC32B107DD
:10011000D9F722E0ACE2B2E001C01D92AD35B207E2
:10012000E1F70E94B7010C9433050C9400008A306B
:1001300049F09091C00095FFFCCF8093C60080E00D
:1001400090E008959091C00095FFFCCF9DE09093C2
:10015000C600EFCF9093C5008093C40086E08093E3
:10016000C20088E98093C10008959091C00095FF76
:10017000FCCF8093C60008958091C00087FFFCCF1C
:100180008091C60008958091C000881F8827881F2D
:100190000895FC012081222351F031969091C000F6
:1001A00095FFFCCF2093C60021912111F7CF089530
:1001B00080E092E090935A02809359021092C50019
:1001C00082E38093C40086E08093C20088E9809334
:1001D000C10008951F920F920FB60F9211240BB613
:1001E0000F922F933F934F935F936F937F938F93D0
:1001F0009F93AF93BF93EF93FF9383E192E09F931D
:100200008F930E9435022091C60080912E0290E0CB
:10021000FC01E15DFD4F2083019664E170E00E94E6
:100220000D0280932E020F900F90FF91EF91BF91DE
:10023000AF919F918F917F916F915F914F913F917E
:100240002F910F900BBE0F900FBE0F901F9018951F
:100250001F920F920FB60F9211240BB60F922F938D
:100260003F935F936F937F938F939F93AF93BF93CE
:10027000EF93FF9380910E0290E0019664E170E0AD
:100280000E940D0220912C0230E08217930749F062
:1002900080930E029927FC01ED5BFD4F80818093D6
:1002A000C600FF91EF91BF91AF919F918F917F9188
:1002B0006F915F913F912F910F900BBE0F900FBEEA
:1002C0000F901F9018951092C50083E38093C4008F
:1002D000E1ECF0E088E9808396E09093C2008083AF
:1002E00078940895CF93DF9330912D0220912E02C0
:1002F0003217F1F0EC0182E292E00E944902E091B3
:100300002D02F0E0E15DFD4F8081888380912D0218
:1003100090E0019664E170E00E940D0280932D024E
:1003200087E292E00E94490281E0DF91CF91089537
:1003300080E0DF91CF910895FC0120912C0230E004
:10034000C901019664E170E00E940D0240910E0225
:1003500050E08417950749F09081F901ED5BFD4F5E
:10036000908380932C0281E0089580E00895CF93DC
:10037000DF93CDB7DEB764970FB6F894DEBF0FBE3C
:10038000CDBF0E94D8000E9463018FE0A82E82E0BA
:10039000B82E8E010F5F1F4F7801C12CD12C0AC0DF
:1003A000EFEFEE1AFE0AF4018081882349F09FEFF7
:1003B000C91AD90A4701C7010E9472018111F0CF01
:1003C000C114D10419F181E090E08C0F9D1FC80E7B
:1003D000D91E7C01F70181917F011F928F93BF92FB
:1003E000AF920E9435020F900F900F900F90EC1477
:1003F000FD0481F77801C8010E949C01882349F21D
:100400000F5F1F4FF7018081882319F27801C8011F
:100410000E949C018111F4CFBCCF97FB072E16F4EC
:10042000009407D077FD09D00E94210207FC05D077
:100430003EF4909581959F4F0895709561957F4FFB
:100440000895AA1BBB1B51E107C0AA1FBB1FA6171B
:10045000B70710F0A61BB70B881F991F5A95A9F76D
:1004600080959095BC01CD010895CF93DF93CDB7D2
:10047000DEB7AE014A5F5F4FFA0161917191AF0142
:100480008091590290915A020E947902DF91CF9196
:1004900008950F931F93CF93DF93E0915902F0914A
:1004A0005A02238121FF1BC08C01D0E0C0E0F8017B
:1004B00081918F016091590270915A02DB01189667
:1004C000ED91FC911997882331F01995892B79F3D7
:1004D000DFEFCFEFECCF8AE01995892B19F08FEF82
:1004E0009FEF02C08D2F9C2FDF91CF911F910F9115
:1004F00008952F923F924F925F926F927F928F92C8
:100500009F92AF92BF92CF92DF92EF92FF920F93A2
:100510001F93CF93DF93CDB7DEB72B970FB6F89429
:10052000DEBF0FBECDBF6C017B018A01FC011782CB
:100530001682838181FFCCC1CE0101963C01F60178
:100540009381F70193FD859193FF81917F0188232A
:1005500009F4BAC1853239F493FD859193FF8191F5
:100560007F01853229F4B60190E00E949904E7CF1B
:10057000912C212C312CFFE1F315D8F08B3279F03E
:1005800038F4803279F08332A1F4232D20611DC02C
:100590008D3261F0803369F4232D216016C0832DE4
:1005A0008260382EE32DE4603E2E2AC0F32DF860E1
:1005B0001DC037FC2DC020ED280F2A3040F08E32B0
:1005C000B9F436FC81C1232D2064322E19C036FEC9
:1005D00006C08AE0989E200D1124922E11C0EAE0F8
:1005E0002E9E200D1124222EF32DF0623F2E08C0E6
:1005F0008C3621F4832D8068382E02C0883641F471
:10060000F70193FD859193FF81917F018111B3CF14
:10061000982F9F7D9554933028F40C5F1F4F9FE3D4
:1006200099830DC0833631F0833771F0833509F03B
:1006300059C021C0F801808189830E5F1F4F882433
:100640008394912C530113C02801F2E04F0E511CEA
:10065000F801A080B18036FE03C0692D70E002C0B1
:100660006FEF7FEFC5010E948E044C018201F32DD4
:10067000FF773F2E16C0280122E0420E511CF801E0
:10068000A080B18036FE03C0692D70E002C06FEF1C
:100690007FEFC5010E9483044C01F32DF0683F2ECB
:1006A000820133FC1BC0822D90E088169906B0F4BD
:1006B000B60180E290E00E9499042A94F4CFF501FB
:1006C00037FC859137FE81915F01B60190E00E9471
:1006D000990421102A9421E0821A9108811491042E
:1006E00071F7E8C0843611F0893641F5F80137FE1C
:1006F00007C060817181828193810C5F1F4F08C0A8
:1007000060817181072E000C880B990B0E5F1F4FC3
:10071000F32DFF763F2E97FF09C090958095709539
:1007200061957F4F8F4F9F4FF0683F2E2AE030E05A
:10073000A3010E94D504882E861845C0853731F460
:10074000232D2F7EB22E2AE030E025C0932D997FF5
:10075000B92E8F36C1F018F4883579F0B5C08037DE
:1007600019F0883721F0B0C0E92FE061BE2EB4FE49
:100770000DC0FB2DF460BF2E09C034FE0AC0292F26
:100780002660B22E06C028E030E005C020E130E04F
:1007900002C020E132E0F801B7FE07C0608171813C
:1007A000828193810C5F1F4F06C06081718180E060
:1007B00090E00E5F1F4FA3010E94D504882E86187B
:1007C000FB2DFF773F2E36FE0DC0232D2E7FA22E50
:1007D000891458F434FE0BC032FC09C0832D8E7E80
:1007E000A82E05C0B82CA32C03C0B82C01C0B92C6E
:1007F000A4FE0FC0FE01E80DF11D8081803321F4BD
:100800009A2D997EA92E09C0A2FE06C0B394B39476
:1008100004C08A2D867809F0B394A3FC11C0A0FE11
:1008200006C0B21488F4280C922C9B180EC0B21487
:1008300060F4B60180E290E00E949904B394F7CF8F
:10084000B21418F42B1802C0982C212CA4FE10C04E
:10085000B60180E390E00E949904A2FE17C0A1FCBB
:1008600003C088E790E002C088E590E0B6010CC0C4
:100870008A2D867859F0A1FE02C08BE201C080E289
:10088000A7FC8DE2B60190E00E949904891438F427
:10089000B60180E390E00E9499049A94F7CF8A947D
:1008A000F301E80DF11D8081B60190E00E949904EA
:1008B0008110F5CF222009F442CEB60180E290E00B
:1008C0000E9499042A94F6CFF6018681978102C08E
:1008D0008FEF9FEF2B960FB6F894DEBF0FBECDBF04
:1008E000DF91CF911F910F91FF90EF90DF90CF900C
:1008F000BF90AF909F908F907F906F905F904F9040
:100900003F902F900895FC010590615070400110B8
:10091000D8F7809590958E0F9F1F0895FC01615028
:10092000704001900110D8F7809590958E0F9F1F11
:1009300008950F931F93CF93DF93FB01238121FD34
:1009400003C08FEF9FEF2CC022FF16C04681578156
:10095000248135814217530744F4A081B1819D0160
:100960002F5F3F4F318320838C93268137812F5F08
:100970003F4F3783268314C08B01EC01FB010084B9
:10098000F185E02D1995892BE1F6D80116968D9108
:100990009C911797019617969C938E931697CE016C
:1009A000DF91CF911F910F910895FA01AA27283066
:1009B00051F1203181F1E8946F936E7F6E5F7F4F2C
:1009C0008F4F9F4FAF4FB1E03ED0B4E03CD0670FA8
:1009D000781F891F9A1FA11D680F791F8A1F911DFB
:1009E000A11D6A0F711D811D911DA11D20D009F44B
:1009F00068943F912AE0269F11243019305D31938D
:100A0000DEF6CF010895462F4770405D4193B3E075
:100A10000FD0C9F7F6CF462F4F70405D4A3318F01C
:100A2000495D31FD4052419302D0A9F7EACFB4E0CD
:100A3000A6959795879577956795BA95C9F7009785
:100A40006105710508959B01AC010A2E0694579526
:100A5000479537952795BA95C9F7620F731F841F7D
:0A0A6000951FA01D0895F894FFCF24
:100A6A0000000002000000009700000000001325AB
:100A7A00640A005553415254305F52585F76656399
:0C0A8A007400646F706F006573636F0090
:00000001FF
