:100000000C9472000C9493000C9493000C94930045
:100010000C9493000C9493000C9493000C94930014
:100020000C9493000C947A010C9493000C9493001C
:100030000C9493000C9493000C9493000C949300F4
:100040000C9493000C9493000C9493000C949300E4
:100050000C9493000C9493000C9493000C949300D4
:100060000C9493000C942D010C9493000C94930029
:100070000C9493000C9493000C9493000C949300B4
:100080000C9493000C9493000C9493000C949300A4
:100090000C9493000C9493000C9493000C94930094
:1000A0000C9493000C9493000C9493000C94930084
:1000B0000C9493000C9493000C9493000C94950072
:1000C0000C9493000C9493000C9493000C94930064
:1000D0000C9493000C9493000C9493000C94930054
:1000E0000C94930011241FBECFEFD1E2DEBFCDBF31
:1000F00000E00CBF12E0A0E0B2E0ECE4F4E100E0CC
:100100000BBF02C007900D92A232B107D9F722E0CF
:10011000A2E2B2E001C01D92A43BB207E1F70E9447
:10012000BD030C94240A0C9400001F920F920FB68A
:100130000F9211240BB60F922F933F934F935F931F
:100140006F937F938F939F93AF93BF93EF93FF939F
:100150008091AA029091AB020E94B402FF91EF91AC
:10016000BF91AF919F918F917F916F915F914F91CF
:100170003F912F910F900BBE0F900FBE0F901F90CD
:100180001895F8941092C50083E38093C400E1ECC5
:10019000F0E080818861808380818068808386E050
:1001A0008093C2001092A9021092A8021092A70296
:1001B0001092A602789408959091A9028091A802C5
:1001C000981781F0E091A802EF5FEF71E093A80229
:1001D000F0E0EA59FD4F80819091C10090689093C2
:1001E000C100089580E008959091C00095FFFCCF74
:1001F0008093C6000895DC0116C0E091A802EF5F6D
:10020000EF71E093A802F0E0EA59FD4F9081209150
:10021000C10020682093C1009D93992359F09A3022
:1002200041F09D3031F02091A9029091A80229134C
:10023000E4CF1D929A2F981B892F0895FC012081ED
:10024000222351F031969091C00095FFFCCF20936E
:10025000C60021912111F7CF08951F920F920FB67A
:100260000F9211240BB60F928F939F93EF93FF93EE
:100270009091C600E091A902EF5FEF718091A80212
:10028000E81789F0E093A902F0E0EA59FD4F908366
:10029000FF91EF919F918F910F900BBE0F900FBE2A
:1002A0000F901F9018958091C1008F778093C100A7
:1002B000EFCFF89484B18C7F84B985B1836085B920
:1002C000E8E6F0E0808181608083EBE6F0E0808109
:1002D0008360808383E08093AC028093AD021092B0
:1002E000AF021092AE02789408958091AE02909180
:1002F000AF0208951F920F920FB60F9211240BB602
:100300000F922F933F934F935F938F939F93EF930E
:10031000FF938091AD028093AC0283B18093AD02D4
:10032000E091AC028091AD022091AE023091AF021B
:10033000E370EE0FEE0F8370E82B0E2E000CFF0B18
:10034000EA5FFD4F8081A901480F511D87FD5A9535
:100350005093AF024093AE02FF91EF919F918F9126
:100360005F914F913F912F910F900BBE0F900FBE59
:100370000F901F9018958DE08093800089E0809306
:1003800081001092890010928B0010928D0081E004
:1003900080938C00279A0895809580938C0008950F
:1003A000089521E030E001C0220F8A95EAF78DB16F
:1003B000611104C0209528232DB90895282B2DB94B
:1003C000089521E030E001C0220F8A95EAF78EB14E
:1003D000611104C0209528232EB90895282B2EB929
:1003E0000895BC01109220018DE080932101072E19
:1003F000000C880B990B0E94D20425E83BEE49E7DC
:1004000051E40E9487050E94A10470932901609322
:100410002801F894E3E7F0E080818260808378949B
:100420000895CF92DF92EF92FF920F931F93CF9395
:10043000DF938B01D82FC92F69017A010E948205B1
:10044000181684F0F7FAF094F7F8F094A7019601E3
:10045000B8018D2F9C2F0E94950487FD03C0680171
:10046000ED2EFC2EC701B601DF91CF911F910F91A8
:10047000FF90EF90DF90CF9008954F925F926F9230
:100480007F928F929F92AF92BF92CF92DF92EF9224
:10049000FF920F931F93CF93DF932B013C014901F0
:1004A0005A01670178010E94BB010E94590184E64C
:1004B00090E00E94F10188E290E00E94F405EC01D6
:1004C0004C8A5D8A6E8A7F8A888E998EAA8EBB8EB0
:1004D000CC8EDD8EEE8EFF8E80E090E0A0EAB1E45F
:1004E00088A399A3AAA3BBA380E090E0A8E4B2E408
:1004F0008CA39DA3AEA3BFA31D821C821B821A8264
:100500001F821E821A861B861C861D8684E08883B5
:1005100085E08983198618861E861F86188A198A9F
:1005200061E084E00E94D10161E089810E94D101F3
:10053000CE01DF91CF911F910F91FF90EF90DF904F
:10054000CF90BF90AF909F908F907F906F905F9073
:100550004F9008950C948C06FC01738B628B089568
:10056000FC017783668308952F923F924F925F92AA
:100570006F927F928F929F92AF92BF92CF92DF92B3
:10058000EF92FF920F931F93CF93DF93EC010E94A2
:1005900075012A813B81AC01421B530B6E817F8127
:1005A0009B838A835D834C838A899B89009709F4A6
:1005B000A6C0019709F0C7C0CA84DB84EC84FD841F
:1005C000CA01861B970BBC01072E000C880B990BE8
:1005D0000E94D2043B018C0188A099A0AAA0BBA0D4
:1005E000A50194010E948205181674F0B7FAB09420
:1005F000B7F8B094A5019401B301C8010E94950415
:1006000087FD02C0430158018A869B86AC86BD8661
:100610004CA05DA06EA07FA0288D398D4A8D5B8D8A
:10062000C501B4010E9487052E853F8548895989F7
:100630000E9429041B018C019B01AC01C301B20182
:100640000E94950487FD0EC077FA709477F8709435
:100650009101A801C301B2010E948205181614F08D
:10066000210138014E865F86688A798AA701960142
:10067000C501B4010E9428042C8D3D8D4E8D5F8DE7
:100680000E9487056B017C0168857985072E000C27
:10069000880B990B0E94D204A30192010E942904A5
:1006A0009B01AC01C701B6010E9429046B017C01CA
:1006B0002C893D894E895F89C501B4010E94870557
:1006C0009B01AC01C701B6010E9429046B017C01AA
:1006D00020E030E04FE753E40E94820518160CF446
:1006E00046C020E030E04FE753ECC701B6010E945E
:1006F000950487FD3FC0C701B6010E949A0479871F
:10070000688777FD24C060E088810E94E10161E094
:1007100089810E94E1018885998597FD24C0DF9138
:10072000CF911F910F91FF90EF90DF90CF90BF90EE
:10073000AF909F908F907F906F905F904F903F9081
:100740002F900C94CC016885798577FFDCCF61E030
:1007500088810E94E10160E089810E94E101888531
:10076000998597FFDCCF919581959109D8CF6FEF4F
:1007700070E0C5CF61E07FEFC2CF0E94C1001DECE9
:10078000E12E1CECF12E0CEC1DE320E030E0A90181
:100790006DEC7CEC8CEC9EE30E943D029093AB02EE
:1007A0008093AA0261E070E00E94AC0280E091E0D8
:1007B0000E94F4056C0180E091E00E94F4055C0168
:1007C00096E1E92E92E0F92EC6010E94FB008230EC
:1007D00050F0C6010E941507BC018091AA029091B9
:1007E000AB020E94B002C091AA02D091AB020C8170
:1007F0001D816A857B858C859D850E949A04600F8A
:10080000711F7F936F938F818F938E818F931F932F
:100810000F938B818F938A818F93FF92EF92BF9278
:10082000AF920E943B07C5010E941E018AE00E9410
:10083000F4008FE39CE90197F1F700C000008DB749
:100840009EB70C960FB6F8949EBF0FBE8DBFBCCF5F
:100850005058BB27AA270E9440040C9448050E94C8
:100860003A0538F00E94410520F039F49F3F19F411
:1008700026F40C9437050EF4E095E7FB0C94310553
:10088000E92F0E94590558F3BA17620773078407C6
:10089000950720F079F4A6F50C947B050EF4E0950D
:1008A0000B2EBA2FA02D0B01B90190010C01CA012A
:1008B000A0011124FF27591B99F0593F50F4503ED5
:1008C00068F11A16F040A22F232F342F4427585FC7
:1008D000F3CF469537952795A795F0405395C9F7DF
:1008E0007EF41F16BA0B620B730B840BBAF0915097
:1008F000A1F0FF0FBB1F661F771F881FC2F70EC036
:10090000BA0F621F731F841F48F487957795679508
:10091000B795F7959E3F08F0B0CF9395880F08F0F4
:100920009927EE0F9795879508950E940D0508F475
:1009300081E008950E94A1046894B1110C947C0593
:1009400008950E94610588F09F5798F0B92F992764
:10095000B751B0F0E1F0660F771F881F991F1AF0AA
:10096000BA95C9F714C0B13091F00E947B05B1E08F
:1009700008950C947B05672F782F8827B85F39F08E
:10098000B93FCCF3869577956795B395D9F73EF443
:1009900090958095709561957F4F8F4F9F4F0895EB
:1009A000E89409C097FB3EF4909580957095619509
:1009B0007F4F8F4F9F4F9923A9F0F92F96E9BB27BF
:1009C0009395F695879577956795B795F111F8CF3B
:1009D000FAF4BB0F11F460FF1BC06F5F7F4F8F4FA6
:1009E0009F4F16C0882311F096E911C0772321F09C
:1009F0009EE8872F762F05C0662371F096E8862F34
:100A000070E060E02AF09A95660F771F881FDAF78A
:100A1000880F9695879597F90895990F0008550FB7
:100A2000AA0BE0E8FEEF16161706E807F907C0F074
:100A300012161306E407F50798F0621B730B840B7C
:100A4000950B39F40A2661F0232B242B252B21F456
:100A500008950A2609F4A140A6958FEF811D811DF6
:100A6000089597F99F6780E870E060E008959FEF30
:100A700080EC089500240A94161617061806090635
:100A8000089500240A941216130614060506089504
:100A9000092E0394000C11F4882352F0BB0F40F48C
:100AA000BF2B11F460FF04C06F5F7F4F8F4F9F4FCC
:100AB000089557FD9058440F551F59F05F3F71F04E
:100AC0004795880F97FB991F61F09F3F79F08795B5
:100AD0000895121613061406551FF2CF4695F1DF3E
:100AE00008C0161617061806991FF1CF86957105CE
:100AF000610508940895E894BB2766277727CB0102
:100B000097F908950E940D0508F48FEF08950E944B
:100B10009A050C9448050E943A0538F00E94410558
:100B200020F0952311F00C9431050C943705112415
:100B30000C947C050E94590570F3959FC1F3950FA5
:100B400050E0551F629FF001729FBB27F00DB11D51
:100B5000639FAA27F00DB11DAA1F649F6627B00DE1
:100B6000A11D661F829F2227B00DA11D621F739FCA
:100B7000B00DA11D621F839FA00D611D221F749FD8
:100B80003327A00D611D231F849F600D211D822F1F
:100B9000762F6A2F11249F5750409AF0F1F0882346
:100BA0004AF0EE0FFF1FBB1F661F771F881F915073
:100BB0005040A9F79E3F510580F00C9431050C94EC
:100BC0007C055F3FE4F3983ED4F38695779567956F
:100BD000B795F795E7959F5FC1F7FE2B880F911D9D
:100BE0009695879597F908950F931F93CF93DF9369
:100BF0008230910510F482E090E0E091B202F09131
:100C0000B30220E030E0A0E0B0E0309719F140817D
:100C100051810281138148175907C8F0841795073D
:100C200069F4109731F012960C93129713961C9357
:100C300027C00093B2021093B30222C021153105E0
:100C400019F04217530718F49A01BD01EF01DF01B3
:100C5000F801DBCF21153105F9F0281B390B2430C1
:100C6000310580F48A819B816115710521F0FB01BA
:100C70009383828304C09093B3028093B202FE01F7
:100C8000329644C0FE01E20FF31F819391932250EC
:100C90003109398328833AC02091B0023091B102E2
:100CA000232B41F420910202309103023093B102D0
:100CB0002093B002209100023091010221153105EC
:100CC00041F42DB73EB74091040250910502241B18
:100CD000350BE091B002F091B102E217F307A0F4F6
:100CE0002E1B3F0B2817390778F0AC014E5F5F4F82
:100CF0002417350748F04E0F5F1F5093B102409301
:100D0000B0028193919302C0E0E0F0E0CF01DF9167
:100D1000CF911F910F910895CF93DF93009709F41E
:100D200081C0FC01329713821282A091B202B0916D
:100D3000B302109781F420813181820F931F20919B
:100D4000B0023091B1022817390751F5F093B10282
:100D5000E093B00267C0ED0120E030E0CE17DF077E
:100D600040F44A815B819E0141155105F1F0EA0191
:100D7000F5CFD383C28340815181840F951FC8175B
:100D8000D90759F488819981840F951F0296918320
:100D900080838A819B81938382832115310529F485
:100DA000F093B302E093B2023DC0E901FB83EA8312
:100DB00049915991C40FD51FEC17FD0761F480814B
:100DC0009181840F951F0296E9019983888382811E
:100DD00093819B838A83E0E0F0E012968D919C9151
:100DE0001397009719F0FD01DC01F7CF8D919C91CD
:100DF00011979D012E5F3F4F820F931F2091B002EC
:100E00003091B1022817390769F4309729F410920C
:100E1000B3021092B20202C013821282B093B102E6
:100E2000A093B002DF91CF910895FC018827992704
:100E3000E89421912032E9F3293010F02E30C8F3E4
:100E40002B3241F02D3239F4689404C00E943307EC
:100E5000820F911D219120532A30C0F31EF49095EA
:100E600081959F4F08957AE0979F902D879F802DC1
:100E7000910D112408950F931F93CF93DF93CDB756
:100E8000DEB72E970FB6F894DEBF0FBECDBF0E892A
:100E90001F8986E08C831A8309838FEF9FE79E83E7
:100EA0008D83AE01465E5F4F688D798DCE010196D0
:100EB0000E946A07EF81F885E00FF11F10822E96DD
:100EC0000FB6F894DEBF0FBECDBFDF91CF911F915B
:100ED0000F9108952F923F924F925F926F927F925F
:100EE0008F929F92AF92BF92CF92DF92EF92FF923A
:100EF0000F931F93CF93DF93CDB7DEB72B970FB62A
:100F0000F894DEBF0FBECDBF6C017B018A01FC01EE
:100F100017821682838181FFCCC1CE0101963C01EC
:100F2000F6019381F70193FD859193FF81917F01F4
:100F3000882309F4BAC1853239F493FD859193FF72
:100F400081917F01853229F4B60190E00E948A09DF
:100F5000E7CF912C212C312CFFE1F315D8F08B3207
:100F600079F038F4803279F08332A1F4232D2061B6
:100F70001DC08D3261F0803369F4232D216016C0CD
:100F8000832D8260382EE32DE4603E2E2AC0F32D9F
:100F9000F8601DC037FC2DC020ED280F2A3040F02E
:100FA0008E32B9F436FC81C1232D2064322E19C053
:100FB00036FE06C08AE0989E200D1124922E11C0A4
:100FC000EAE02E9E200D1124222EF32DF0623F2EFA
:100FD00008C08C3621F4832D8068382E02C08836F4
:100FE00041F4F70193FD859193FF81917F01811178
:100FF000B3CF982F9F7D9554933028F40C5F1F4FEB
:101000009FE399830DC0833631F0833771F08335C8
:1010100009F059C021C0F801808189830E5F1F4FFC
:1010200088248394912C530113C02801F2E04F0EC1
:10103000511CF801A080B18036FE03C0692D70E01C
:1010400002C06FEF7FEFC5010E947F094C01820152
:10105000F32DFF773F2E16C0280122E0420E511CCF
:10106000F801A080B18036FE03C0692D70E002C097
:101070006FEF7FEFC5010E9474094C01F32DF068FA
:101080003F2E820133FC1BC0822D90E0881699060A
:10109000B0F4B60180E290E00E948A092A94F4CF6D
:1010A000F50137FC859137FE81915F01B60190E033
:1010B0000E948A0921102A9421E0821A9108811441
:1010C000910471F7E8C0843611F0893641F5F801D2
:1010D00037FE07C060817181828193810C5F1F4F51
:1010E00008C060817181072E000C880B990B0E5F80
:1010F0001F4FF32DFF763F2E97FF09C090958095E7
:10110000709561957F4F8F4F9F4FF0683F2E2AE07B
:1011100030E0A3010E94C609882E861845C0853795
:1011200031F4232D2F7EB22E2AE030E025C0932DFE
:10113000997FB92E8F36C1F018F4883579F0B5C093
:10114000803719F0883721F0B0C0E92FE061BE2E5A
:10115000B4FE0DC0FB2DF460BF2E09C034FE0AC0E2
:10116000292F2660B22E06C028E030E005C020E11D
:1011700030E002C020E132E0F801B7FE07C0608134
:101180007181828193810C5F1F4F06C060817181E4
:1011900080E090E00E5F1F4FA3010E94C609882ED9
:1011A0008618FB2DFF773F2E36FE0DC0232D2E7F98
:1011B000A22E891458F434FE0BC032FC09C0832DD2
:1011C0008E7EA82E05C0B82CA32C03C0B82C01C05D
:1011D000B92CA4FE0FC0FE01E80DF11D8081803303
:1011E00021F49A2D997EA92E09C0A2FE06C0B394BF
:1011F000B39404C08A2D867809F0B394A3FC11C07F
:10120000A0FE06C0B21488F4280C922C9B180EC0C5
:10121000B21460F4B60180E290E00E948A09B394AF
:10122000F7CFB21418F42B1802C0982C212CA4FE6E
:1012300010C0B60180E390E00E948A09A2FE17C0A8
:10124000A1FC03C088E790E002C088E590E0B60109
:101250000CC08A2D867859F0A1FE02C08BE201C035
:1012600080E2A7FC8DE2B60190E00E948A09891411
:1012700038F4B60180E390E00E948A099A94F7CF8F
:101280008A94F301E80DF11D8081B60190E00E947F
:101290008A098110F5CF222009F442CEB60180E2FE
:1012A00090E00E948A092A94F6CFF6018681978100
:1012B00002C08FEF9FEF2B960FB6F894DEBF0FBEE4
:1012C000CDBFDF91CF911F910F91FF90EF90DF90F5
:1012D000CF90BF90AF909F908F907F906F905F90D6
:1012E0004F903F902F900895FC0105906150704001
:1012F0000110D8F7809590958E0F9F1F0895FC01DF
:101300006150704001900110D8F7809590958E0F34
:101310009F1F08950F931F93CF93DF93FB012381AA
:1013200021FD03C08FEF9FEF2CC022FF16C0468126
:101330005781248135814217530744F4A081B1813C
:101340009D012F5F3F4F318320838C93268137810E
:101350002F5F3F4F3783268314C08B01EC01FB01C5
:101360000084F185E02D1995892BE1F6D8011696B8
:101370008D919C911797019617969C938E93169733
:10138000CE01DF91CF911F910F910895FA01AA2705
:10139000283051F1203181F1E8946F936E7F6E5FB8
:1013A0007F4F8F4F9F4FAF4FB1E03ED0B4E03CD066
:1013B000670F781F891F9A1FA11D680F791F8A1F49
:1013C000911DA11D6A0F711D811D911DA11D20D0B0
:1013D00009F468943F912AE0269F11243019305D6A
:1013E0003193DEF6CF010895462F4770405D41935B
:1013F000B3E00FD0C9F7F6CF462F4F70405D4A33A8
:1014000018F0495D31FD4052419302D0A9F7EACF6F
:10141000B4E0A6959795879577956795BA95C9F79E
:1014200000976105710508959B01AC010A2E069491
:101430005795479537952795BA95C9F7620F731F4A
:0C144000841F951FA01D0895F894FFCF95
:10144C000000B40220000001FF00FF0000010100B9
:10145C0000FF00FF010025642C25642C25642C253D
:02146C0064001A
:00000001FF
