:100000000C9472000C9493000C9493000C94930045
:100010000C9493000C9493000C9493000C94930014
:100020000C9493000C9477010C9493000C9493001F
:100030000C9493000C9493000C9493000C949300F4
:100040000C9493000C9493000C9493000C949300E4
:100050000C9493000C9493000C9493000C949300D4
:100060000C9493000C942B010C9493000C9493002B
:100070000C9493000C9493000C9493000C949300B4
:100080000C9493000C9493000C9493000C949300A4
:100090000C9493000C9493000C9493000C94930094
:1000A0000C9493000C9493000C9493000C94930084
:1000B0000C9493000C9493000C9493000C94950072
:1000C0000C9493000C9493000C9493000C94930064
:1000D0000C9493000C9493000C9493000C94930054
:1000E0000C94930011241FBECFEFD1E2DEBFCDBF31
:1000F00000E00CBF12E0A0E0B2E0E2E8FEE000E0C9
:100100000BBF02C007900D92A832B107D9F722E0C9
:10011000A8E2B2E001C01D92AA3BB207E1F70E943B
:10012000B8030C943F070C9400001F920F920FB677
:100130000F9211240BB60F922F933F934F935F931F
:100140006F937F938F939F93AF93BF93EF93FF939F
:100150008091B0029091B1020E945102FF91EF9103
:10016000BF91AF919F918F917F916F915F914F91CF
:100170003F912F910F900BBE0F900FBE0F901F90CD
:100180001895F8941092C50083E38093C400A2EC04
:10019000B0E096E09C93E1ECF0E0808188618083A0
:1001A0008081806880839C931092AF021092AE028F
:1001B000789408959091AF028091AE02981781F0E3
:1001C000E091AE02EF5FEF71E093AE02F0E0E45930
:1001D000FD4F80819091C10090689093C100089577
:1001E00080E008959091C00095FFFCCF8093C600F9
:1001F0000895DC0116C0E091AE02EF5FEF71E0936D
:10020000AE02F0E0E459FD4F90812091C1002068DA
:100210002093C1009D93992359F09A3041F09D306D
:1002200031F02091AF029091AE022913E4CF1D92DC
:100230009A2F981B892F0895FC012081222351F0C9
:1002400031969091C00095FFFCCF2093C60021917C
:100250002111F7CF08951F920F920FB60F9211241C
:100260000BB60F928F939F93EF93FF939091C600DD
:10027000E091AF02EF5FEF718091AE02E81789F075
:10028000E093AF02F0E0E459FD4F9083FF91EF91CE
:100290009F918F910F900BBE0F900FBE0F901F90EC
:1002A00018958091C1008F778093C100EFCFF894AB
:1002B00084B1807F84B985B18F6085B9E8E6F0E0CC
:1002C000808181608083EBE6F0E080818F608083B5
:1002D00083B18F708093B3028091B3028093B20296
:1002E000789408958091B4029091B50208951F9278
:1002F0000F920FB60F9211240BB60F922F933F93CC
:100300004F935F938F939F93EF93FF938091B302EB
:100310008093B20283B18F708093B302E091B202F6
:100320008091B3022091B4023091B502EF70EE0FCC
:10033000EE0F8F70E82B0E2E000CFF0BE050FE4FDF
:100340008081A901480F511D5093B5024093B4021A
:10035000FF91EF919F918F915F914F913F912F91DD
:100360000F900BBE0F900FBE0F901F9018958DE051
:100370008093800089E08093810010928900109220
:100380008B0010928D0081E080938C00279A089555
:10039000809580938C0008958DB180638DB9089508
:1003A000611102C01EB808958EB90895BC01109263
:1003B00020018DE080932101072E000C880B990B02
:1003C0000E94FC0425E83BEE49E751E40E94B10598
:1003D0000E94CB047093290160932801F894E3E70D
:1003E000F0E0808182608083789408954F925F92DC
:1003F0006F927F928F929F92AF92BF92CF92DF9235
:10040000EF92FF920F931F932B013C0149015A0178
:10041000670178010E94CC010E94B7010E94570138
:100420008AE090E00E94D60187E290E00E941E06DA
:10043000FC01458656866786708A818A928AA38ADD
:10044000B48AC58AD68AE78AF08E11A212A213A2B4
:1004500014A2158E168E178E10A2118E128E138E68
:10046000148E168217821086118612861F910F91A4
:10047000FF90EF90DF90CF90BF90AF909F908F90C4
:100480007F906F905F904F9008950C94B606FC019A
:1004900076A365A30895FC0154874387758364831D
:1004A00008954F925F926F927F928F929F92AF9238
:1004B000BF92CF92DF92EF92FF921F93CF93DF9381
:1004C000CDB7DEB72A970FB6F894DEBF0FBECDBF0B
:1004D0009A8789870E947201AC01A985BA858D919E
:1004E0009C919A01281B390BADECBCEC0E94D10306
:1004F0007C01F694E794F694E794F694E794E98502
:10050000FA85C480D58051834083F382E28283855B
:100510009485892B09F0F5C010E2DF0195968D9145
:100520009C919697009709F4C8C0019709F0D3C031
:10053000B60180E090E00E94FA044B015C01B70133
:1005400080E090E00E94FA049B01AC01C501B40177
:100550000E94E0036B017C01E985FA8527813085E3
:10056000418552850E94E003A985BA8555962D9153
:100570003D914D915C9158970E94B10520E030E08B
:1005800040E251E40E9452044B015C01E985FA8586
:1005900061A372A383A394A32189328943895489D7
:1005A000C701B6010E94B10520E030E040E251E40D
:1005B0000E94B105A985BA855D962D913D914D9119
:1005C0005C9190970E94E1032B013C01E985FA853B
:1005D000658F768F878F90A32585368547855089CF
:1005E000C701B6010E94B10569837A838B839C831E
:1005F000A985BA8559966D937D938D939C935C974D
:1006000016966C9170E080E090E00E94FA046D8391
:100610007E838F839887A3019201C501B4010E9454
:10062000E10329813A814B815C810E94E1032D81A4
:100630003E814F8158850E94E1034B015C0120E01F
:1006400030E0A9010E944D0487FD65C020E030E044
:100650004FE753E4C501B4010E94AC0518160CF431
:1006600053C0C501B4010E94C404E985FA856683BC
:10067000DF011796CD92DD92ED92FC921A9761E020
:10068000812F0E94D001E985FA8586812A960FB6CE
:10069000F894DEBF0FBECDBFDF91CF911F91FF90C9
:1006A000EF90DF90CF90BF90AF909F908F907F9012
:1006B0006F905F904F900C94C80161E0812F0E9471
:1006C000D0018C2D0E94C801E985FA85C682178267
:1006D0001086118612862A960FB6F894DEBF0FBEDA
:1006E000CDBFDF91CF911F91FF90EF90DF90CF9022
:1006F000BF90AF909F908F907F906F905F904F9042
:10070000089510E1DF010ACF8FEFA985BA8516960B
:100710008C931697AECFE985FA851682DF01A9CFB3
:10072000FC0165857685878590890895FC0165893A
:1007300076898789908D0895FC0161897289838902
:1007400094890895FC01808191810895FC01828142
:1007500093810895FC01828193810895FC01868133
:1007600090E00895FC0167817085818592850895E8
:10077000CF93DF93CDB7DEB7DA950FB6F894DEBF2F
:100780000FBECDBF0E94C10086E192E00E941C0115
:10079000CE0101960E94F900CE0101960E941C0133
:1007A000F7CFA29FB001B39FC001A39F700D811D21
:1007B0001124911DB29F700D811D1124911D08956A
:1007C0005058BB27AA270E94F8030C9472050E9478
:1007D000640538F00E946B0520F039F49F3F19F44E
:1007E00026F40C9461050EF4E095E7FB0C945B0590
:1007F000E92F0E94830558F3BA176207730784072D
:10080000950720F079F4A6F50C94A5050EF4E09573
:100810000B2EBA2FA02D0B01B90190010C01CA01BA
:10082000A0011124FF27591B99F0593F50F4503E65
:1008300068F11A16F040A22F232F342F4427585F57
:10084000F3CF469537952795A795F0405395C9F76F
:100850007EF41F16BA0B620B730B840BBAF0915027
:10086000A1F0FF0FBB1F661F771F881FC2F70EC0C6
:10087000BA0F621F731F841F48F487957795679599
:10088000B795F7959E3F08F0B0CF9395880F08F085
:100890009927EE0F9795879508950E94370508F4DC
:1008A00081E008950E9466040C9472050E946B0515
:1008B00058F00E94640540F029F45F3F29F00C9441
:1008C0005B0551110C94A6050C9461050E948305EB
:1008D00068F39923B1F3552391F3951B550BBB276F
:1008E000AA2762177307840738F09F5F5F4F220FB4
:1008F000331F441FAA1FA9F335D00E2E3AF0E0E8AB
:1009000032D091505040E695001CCAF72BD0FE2FF4
:1009100029D0660F771F881FBB1F26173707480788
:10092000AB07B0E809F0BB0B802DBF01FF27935840
:100930005F4F3AF09E3F510578F00C945B050C94A4
:10094000A6055F3FE4F3983ED4F3869577956795C7
:10095000B795F7959F5FC9F7880F911D9695879575
:1009600097F90895E1E0660F771F881FBB1F621794
:1009700073078407BA0720F0621B730B840BBA0B52
:10098000EE1F88F7E09508950E94CB046894B1119A
:100990000C94A60508950E948B0588F09F5798F047
:1009A000B92F9927B751B0F0E1F0660F771F881F74
:1009B000991F1AF0BA95C9F714C0B13091F00E948E
:1009C000A505B1E008950C94A505672F782F882719
:1009D000B85F39F0B93FCCF3869577956795B395B5
:1009E000D9F73EF490958095709561957F4F8F4F24
:1009F0009F4F0895E89409C097FB3EF49095809529
:100A0000709561957F4F8F4F9F4F9923A9F0F92FD4
:100A100096E9BB279395F695879577956795B79552
:100A2000F111F8CFFAF4BB0F11F460FF1BC06F5F38
:100A30007F4F8F4F9F4F16C0882311F096E911C04A
:100A4000772321F09EE8872F762F05C0662371F06B
:100A500096E8862F70E060E02AF09A95660F771F7F
:100A6000881FDAF7880F9695879597F90895990F5B
:100A70000008550FAA0BE0E8FEEF16161706E80768
:100A8000F907C0F012161306E407F50798F0621B89
:100A9000730B840B950B39F40A2661F0232B242B5E
:100AA000252B21F408950A2609F4A140A6958FEF7D
:100AB000811D811D089597F99F6780E870E060E0CF
:100AC00008959FEF80EC089500240A9416161706E7
:100AD00018060906089500240A941216130614062F
:100AE00005060895092E0394000C11F4882352F092
:100AF000BB0F40F4BF2B11F460FF04C06F5F7F4F4A
:100B00008F4F9F4F089557FD9058440F551F59F030
:100B10005F3F71F04795880F97FB991F61F09F3FEA
:100B200079F087950895121613061406551FF2CF13
:100B30004695F1DF08C0161617061806991FF1CF63
:100B400086957105610508940895E894BB2766278A
:100B50007727CB0197F908950E94370508F48FEFA6
:100B600008950E94C4050C9472050E94640538F033
:100B70000E946B0520F0952311F00C945B050C94FA
:100B8000610511240C94A6050E94830570F3959FBE
:100B9000C1F3950F50E0551F629FF001729FBB2774
:100BA000F00DB11D639FAA27F00DB11DAA1F649F10
:100BB0006627B00DA11D661F829F2227B00DA11DC3
:100BC000621F739FB00DA11D621F839FA00D611D49
:100BD000221F749F3327A00D611D231F849F600D6A
:100BE000211D822F762F6A2F11249F5750409AF093
:100BF000F1F088234AF0EE0FFF1FBB1F661F771F1F
:100C0000881F91505040A9F79E3F510580F00C94E9
:100C10005B050C94A6055F3FE4F3983ED4F38695FC
:100C200077956795B795F795E7959F5FC1F7FE2B89
:100C3000880F911D9695879597F908950F931F93A7
:100C4000CF93DF938230910510F482E090E0E09141
:100C5000B802F091B90220E030E0A0E0B0E03097B7
:100C600019F1408151810281138148175907C8F059
:100C70008417950769F4109731F012960C93129728
:100C800013961C9327C00093B8021093B90222C098
:100C90002115310519F04217530718F49A01BD01C7
:100CA000EF01DF01F801DBCF21153105F9F0281B39
:100CB000390B2430310580F48A819B8161157105DF
:100CC00021F0FB019383828304C09093B902809347
:100CD000B802FE01329644C0FE01E20FF31F819379
:100CE000919322503109398328833AC02091B6026A
:100CF0003091B702232B41F420911202309113025C
:100D00003093B7022093B602209110023091110265
:100D10002115310541F42DB73EB740911402509191
:100D20001502241B350BE091B602F091B702E217D1
:100D3000F307A0F42E1B3F0B2817390778F0AC01FE
:100D40004E5F5F4F2417350748F04E0F5F1F5093DB
:100D5000B7024093B6028193919302C0E0E0F0E0C5
:100D6000CF01DF91CF911F910F910895CF93DF9322
:100D7000009709F481C0FC01329713821282A0917E
:100D8000B802B091B902109781F420813181820FAD
:100D9000931F2091B6023091B7022817390751F5F9
:100DA000F093B702E093B60267C0ED0120E030E0B7
:100DB000CE17DF0740F44A815B819E014115510542
:100DC000F1F0EA01F5CFD383C28340815181840FD2
:100DD000951FC817D90759F488819981840F951FE9
:100DE0000296918380838A819B81938382832115DC
:100DF000310529F4F093B902E093B8023DC0E9014E
:100E0000FB83EA8349915991C40FD51FEC17FD0765
:100E100061F480819181840F951F0296E901998385
:100E20008883828193819B838A83E0E0F0E012963D
:100E30008D919C911397009719F0FD01DC01F7CF7C
:100E40008D919C9111979D012E5F3F4F820F931FB3
:100E50002091B6023091B7022817390769F430970C
:100E600029F41092B9021092B80202C013821282C1
:100E7000B093B702A093B602DF91CF910895F89492
:020E8000FFCFA2
:100E82000001FF00FF000001010000FF00FF010060
:100E92000000BA022000777269746520726570657D
:080EA20061742069740A00006C
:00000001FF
