:100000000C9474000C9495000C9495000C9495003D
:100010000C9495000C9495000C9495000C9495000C
:100020000C9495000C9436010C9495000C9495005A
:100030000C9495000C9495000C9495000C949500EC
:100040000C9495000C9495000C9495000C949500DC
:100050000C9495000C9495000C9495000C949500CC
:100060000C9495000C9495000C9495000C949500BC
:100070000C9495000C9495000C9495000C949500AC
:100080000C9495000C9495000C9495000C9495009C
:100090000C9495000C9495000C9495000C9495008C
:1000A0000C9495000C9495000C9495000C9495007C
:1000B0000C9495000C9495000C9495000C9497006A
:1000C0000C9495000C9495000C9495000C9495005C
:1000D0000C9495000C9495000C9495000C9495004C
:1000E0000C9495000C94C30011241FBECFEFD1E2F5
:1000F000DEBFCDBF00E00CBF12E0A0E0B2E0E8EA56
:10010000FFE000E00BBF02C007900D92A237B107DD
:10011000D9F722E0A2E7B2E001C01D92A238B207EF
:10012000E1F70E9450020C94D2070C9400001F9239
:100130000F920FB60F9211240BB60F922F933F938D
:100140004F935F936F937F938F939F93AF93BF93DF
:10015000EF93FF9380917202909173020E94FF01CE
:10016000FF91EF91BF91AF919F918F917F916F918F
:100170005F914F913F912F910F900BBE0F900FBE4B
:100180000F901F9018958A3049F09091C00095FF0C
:10019000FCCF8093C60080E090E008959091C0006D
:1001A00095FFFCCF9DE09093C600EFCF9093C500E4
:1001B0008093C40086E08093C20088E98093C100E8
:1001C00008959091C00095FFFCCF8093C6000895DC
:1001D0008091C00087FFFCCF8091C6000895809178
:1001E000C000881F8827881F0895FC0120812223D2
:1001F00051F031969091C00095FFFCCF2093C6003E
:1002000021912111F7CF089580E092E090937F0231
:1002100080937E021092C50082E38093C40086E042
:100220008093C20088E98093C1000895F89484B156
:10023000807F84B985B18F6085B9E8E6F0E0808180
:1002400081608083EBE6F0E080818F60808383B102
:100250008F708093750280917502809374027894F8
:100260000895809176029091770208951F920F92DF
:100270000FB60F9211240BB60F922F933F934F930B
:100280005F938F939F93EF93FF9380917502809379
:10029000740283B18F7080937502E0917402809133
:1002A00075022091760230917702EF70EE0FEE0F1B
:1002B0008F70E82B0E2E000CFF0BE25FFD4F80814C
:1002C000A901480F511D5093770240937602FF9188
:1002D000EF919F918F915F914F913F912F910F904F
:1002E0000BBE0F900FBE0F901F9018958DE080935E
:1002F000800089E0809381001092890010928B0029
:1003000010928D0081E080938C00279A089580954B
:1003100080938C0008958DB180638DB9089561112B
:1003200002C01EB808958EB90895BC011092200134
:100330008DE080932101072E000C880B990B0E9401
:10034000BA0225E83BEE49E751E40E941E030E94F1
:1003500089027093290160932801F894E3E7F0E0A3
:10036000808182608083789408954F925F926F922B
:100370007F928F929F92AF92BF92CF92DF92EF9235
:10038000FF920F931F932B013C0149015A01670112
:1003900078010E948B010E9476010E9416018AE07A
:1003A00090E00E9495018BE190E00E94B303FC0174
:1003B000418652866386748685869686A786B08A2D
:1003C000C18AD28AE38AF48A1F910F91FF90EF903D
:1003D000DF90CF90BF90AF909F908F907F906F9065
:1003E0005F904F9008950C944B04FC01728F618FC5
:1003F0000895FC01508747837583648308951F9394
:10040000CF93DF93EC018A8D8F93898D8F938BE34C
:1004100092E09F938F930E94D4040E94310128811F
:100420003981AC01421B530B998388835B834A83D8
:1004300088858F938F818F9389E592E09F938F9327
:100440000E94D4048DB79EB708960FB6F8949EBF4D
:100450000FBE8DBF8F819885892B01F580E2298D94
:100460003A8D2115310551F02130310599F487E697
:1004700092E0DF91CF911F910C94E8041C8161E020
:100480000E948F01812F0E9487011E831D8A1E8A70
:100490001F8A188EDF91CF911F91089580E1DFCFE1
:1004A0000E940401E12CF12C8701A8019701C801E9
:1004B000B7010E94B501909373028093720260E0CD
:1004C00070E00E94F50141E050E068E870E0809142
:1004D0007202909173020E94F901C4E2D2E0E091AD
:1004E0007202F091730285818F9384818F93DF93E1
:1004F000CF930E94D4049FEF23ED80E391502040DE
:100500008040E1F700C000000F900F900F900F9017
:10051000E6CF0E94FD0288F09F5798F0B92F9927E7
:10052000B751B0F0E1F0660F771F881F991F1AF0DE
:10053000BA95C9F714C0B13091F00E941703B1E029
:1005400008950C941703672F782F8827B85F39F028
:10055000B93FCCF3869577956795B395D9F73EF477
:1005600090958095709561957F4F8F4F9F4F08951F
:10057000E89409C097FB3EF490958095709561953D
:100580007F4F8F4F9F4F9923A9F0F92F96E9BB27F3
:100590009395F695879577956795B795F111F8CF6F
:1005A000FAF4BB0F11F460FF1BC06F5F7F4F8F4FDA
:1005B0009F4F16C0882311F096E911C0772321F0D0
:1005C0009EE8872F762F05C0662371F096E8862F68
:1005D00070E060E02AF09A95660F771F881FDAF7BF
:1005E000880F9695879597F9089557FD9058440F71
:1005F000551F59F05F3F71F04795880F97FB991F82
:1006000061F09F3F79F0879508951216130614063E
:10061000551FF2CF4695F1DF08C0161617061806CB
:10062000991FF1CF86957105610508940895E894A6
:10063000BB2766277727CB0197F908950E943103DE
:100640000C94A2030E94940338F00E949B0320F0B4
:10065000952311F00C948B030C94910311240C94AA
:1006600018030E94F50270F3959FC1F3950F50E0B7
:10067000551F629FF001729FBB27F00DB11D639F54
:10068000AA27F00DB11DAA1F649F6627B00DA11DFA
:10069000661F829F2227B00DA11D621F739FB00DA0
:1006A000A11D621F839FA00D611D221F749F332710
:1006B000A00D611D231F849F600D211D822F762FA9
:1006C0006A2F11249F5750409AF0F1F088234AF086
:1006D000EE0FFF1FBB1F661F771F881F91505040F2
:1006E000A9F79E3F510580F00C948B030C941803DE
:1006F0005F3FE4F3983ED4F3869577956795B79579
:10070000F795E7959F5FC1F7FE2B880F911D969592
:10071000879597F9089597F99F6780E870E060E002
:1007200008959FEF80EC089500240A94161617068A
:1007300018060906089500240A94121613061406D2
:1007400005060895092E0394000C11F4882352F035
:10075000BB0F40F4BF2B11F460FF04C06F5F7F4FED
:100760008F4F9F4F08950F931F93CF93DF93823046
:10077000910510F482E090E0E0917A02F0917B0222
:1007800020E030E0A0E0B0E0309719F140815181E5
:100790000281138148175907C8F08417950769F437
:1007A000109731F012960C93129713961C9327C052
:1007B00000937A0210937B0222C02115310519F0B3
:1007C0004217530718F49A01BD01EF01DF01F80148
:1007D000DBCF21153105F9F0281B390B2430310509
:1007E00080F48A819B816115710521F0FB0193835F
:1007F000828304C090937B0280937A02FE0132963A
:1008000044C0FE01E20FF31F8193919322503109FE
:10081000398328833AC02091780230917902232BC2
:1008200041F42091200230912102309379022093EB
:10083000780220911E0230911F022115310541F4EA
:100840002DB73EB74091220250912302241B350B55
:10085000E0917802F0917902E217F307A0F42E1BE1
:100860003F0B2817390778F0AC014E5F5F4F241714
:10087000350748F04E0F5F1F50937902409378027E
:100880008193919302C0E0E0F0E0CF01DF91CF913E
:100890001F910F910895CF93DF93009709F481C0C2
:1008A000FC01329713821282A0917A02B0917B02EE
:1008B000109781F420813181820F931F209178025B
:1008C000309179022817390751F5F0937902E093B6
:1008D000780267C0ED0120E030E0CE17DF0740F47A
:1008E0004A815B819E0141155105F1F0EA01F5CF86
:1008F000D383C28340815181840F951FC817D907C4
:1009000059F488819981840F951F02969183808381
:100910008A819B81938382832115310529F4F09389
:100920007B02E0937A023DC0E901FB83EA834991AF
:100930005991C40FD51FEC17FD0761F48081918197
:10094000840F951F0296E9019983888382819381A0
:100950009B838A83E0E0F0E012968D919C9113973F
:10096000009719F0FD01DC01F7CF8D919C91119753
:100970009D012E5F3F4F820F931F2091780230918F
:1009800079022817390769F4309729F410927B020D
:1009900010927A0202C013821282B0937902A0935D
:1009A0007802DF91CF910895CF93DF93CDB7DEB773
:1009B000AE014A5F5F4FFA0161917191AF01809181
:1009C0007E0290917F020E941805DF91CF910895D9
:1009D0000F931F93CF93DF93E0917E02F0917F02FC
:1009E000238121FF1BC08C01D0E0C0E0F801819180
:1009F0008F0160917E0270917F02DB011896ED916C
:100A0000FC911997882331F01995892B79F3DFEF41
:100A1000CFEFECCF8AE01995892B19F08FEF9FEF7C
:100A200002C08D2F9C2FDF91CF911F910F910895C0
:100A30002F923F924F925F926F927F928F929F92EE
:100A4000AF92BF92CF92DF92EF92FF920F931F93DC
:100A5000CF93DF93CDB7DEB72B970FB6F894DEBFF9
:100A60000FBECDBF6C017B018A01FC01178216828B
:100A7000838181FFCCC1CE0101963C01F6019381B7
:100A8000F70193FD859193FF81917F01882309F4FC
:100A9000BAC1853239F493FD859193FF81917F012D
:100AA000853229F4B60190E00E943807E7CF912CF7
:100AB000212C312CFFE1F315D8F08B3279F038F48A
:100AC000803279F08332A1F4232D20611DC08D3254
:100AD00061F0803369F4232D216016C0832D82607C
:100AE000382EE32DE4603E2E2AC0F32DF8601DC0A1
:100AF00037FC2DC020ED280F2A3040F08E32B9F49B
:100B000036FC81C1232D2064322E19C036FE06C06A
:100B10008AE0989E200D1124922E11C0EAE02E9EAC
:100B2000200D1124222EF32DF0623F2E08C08C36AA
:100B300021F4832D8068382E02C0883641F4F701F5
:100B400093FD859193FF81917F018111B3CF982F00
:100B50009F7D9554933028F40C5F1F4F9FE399833A
:100B60000DC0833631F0833771F0833509F059C0F9
:100B700021C0F801808189830E5F1F4F88248394F0
:100B8000912C530113C02801F2E04F0E511CF801C3
:100B9000A080B18036FE03C0692D70E002C06FEF07
:100BA0007FEFC5010E942D074C018201F32DFF77D5
:100BB0003F2E16C0280122E0420E511CF801A080F1
:100BC000B18036FE03C0692D70E002C06FEF7FEF89
:100BD000C5010E9422074C01F32DF0683F2E8201CF
:100BE00033FC1BC0822D90E088169906B0F4B60144
:100BF00080E290E00E9438072A94F4CFF50137FC98
:100C0000859137FE81915F01B60190E00E9438071F
:100C100021102A9421E0821A91088114910471F71D
:100C2000E8C0843611F0893641F5F80137FE07C077
:100C300060817181828193810C5F1F4F08C0608148
:100C40007181072E000C880B990B0E5F1F4FF32D3F
:100C5000FF763F2E97FF09C090958095709561951E
:100C60007F4F8F4F9F4FF0683F2E2AE030E0A30167
:100C70000E947407882E861845C0853731F4232DCD
:100C80002F7EB22E2AE030E025C0932D997FB92E19
:100C90008F36C1F018F4883579F0B5C0803719F077
:100CA000883721F0B0C0E92FE061BE2EB4FE0DC040
:100CB000FB2DF460BF2E09C034FE0AC0292F266028
:100CC000B22E06C028E030E005C020E130E002C0CE
:100CD00020E132E0F801B7FE07C0608171818281B6
:100CE00093810C5F1F4F06C06081718180E090E0AE
:100CF0000E5F1F4FA3010E947407882E8618FB2DDC
:100D0000FF773F2E36FE0DC0232D2E7FA22E891495
:100D100058F434FE0BC032FC09C0832D8E7EA82E01
:100D200005C0B82CA32C03C0B82C01C0B92CA4FE5C
:100D30000FC0FE01E80DF11D8081803321F49A2D52
:100D4000997EA92E09C0A2FE06C0B394B39404C034
:100D50008A2D867809F0B394A3FC11C0A0FE06C0CA
:100D6000B21488F4280C922C9B180EC0B21460F4B4
:100D7000B60180E290E00E943807B394F7CFB21436
:100D800018F42B1802C0982C212CA4FE10C0B60118
:100D900080E390E00E943807A2FE17C0A1FC03C0C8
:100DA00088E790E002C088E590E0B6010CC08A2D8B
:100DB000867859F0A1FE02C08BE201C080E2A7FC58
:100DC0008DE2B60190E00E943807891438F4B6012C
:100DD00080E390E00E9438079A94F7CF8A94F30159
:100DE000E80DF11D8081B60190E00E943807811066
:100DF000F5CF222009F442CEB60180E290E00E94B5
:100E000038072A94F6CFF6018681978102C08FEFCA
:100E10009FEF2B960FB6F894DEBF0FBECDBFDF91CC
:100E2000CF911F910F91FF90EF90DF90CF90BF90E7
:100E3000AF909F908F907F906F905F904F903F907A
:100E40002F900895FC010590615070400110D8F773
:100E5000809590958E0F9F1F0895FC016150704002
:100E600001900110D8F7809590958E0F9F1F0895DF
:100E70000F931F93CF93DF93FB01238121FD03C0C9
:100E80008FEF9FEF2CC022FF16C04681578124812F
:100E900035814217530744F4A081B1819D012F5F32
:100EA0003F4F318320838C93268137812F5F3F4FC3
:100EB0003783268314C08B01EC01FB010084F1858C
:100EC000E02D1995892BE1F6D80116968D919C910C
:100ED0001797019617969C938E931697CE01DF91E4
:100EE000CF911F910F910895FA01AA27283051F14F
:100EF000203181F1E8946F936E7F6E5F7F4F8F4F4B
:100F00009F4FAF4FB1E03ED0B4E03CD0670F781FA9
:100F1000891F9A1FA11D680F791F8A1F911DA11D8E
:100F20006A0F711D811D911DA11D20D009F46894C7
:100F30003F912AE0269F11243019305D3193DEF66F
:100F4000CF010895462F4770405D4193B3E00FD025
:100F5000C9F7F6CF462F4F70405D4A3318F0495D10
:100F600031FD4052419302D0A9F7EACFB4E0A695F3
:100F70009795879577956795BA95C9F70097610515
:100F8000710508959B01AC010A2E0694579547956B
:100F900037952795BA95C9F7620F731F841F951F60
:080FA000A01D0895F894FFCF95
:100FA8000000000200000000C30000000000000173
:100FB800FF00FF000001010000FF00FF010000002A
:100FC8008202200056656C6F6369746120616E67E8
:100FD8006F6C6172653A2025640A00656E747269E7
:100FE800616D6F3120636F6E2071756573746F204A
:100FF8007469706F2025640A00646972657A696F84
:101008006E652025640A00434C4F5345204C4F4FD2
:02101800500086
:00000001FF
