:100000000C94A5010C94C6010C94C6010C94C60175
:100010000C94C6010C94C6010C94C6010C94C60144
:100020000C94C6010C94C6010C94C6010C94C60134
:100030000C94C6010C94C6010C94C6010C94C60124
:100040000C94C6010C94C6010C94C6010C94C60114
:100050000C94C6010C94C6010C94C6010C94C60104
:100060000C94C6010C94C6010C94C6010C94C601F4
:100070000C94C6010C94C6010C94C6010C94C601E4
:100080000C94C6010C94C6010C94C6010C94C601D4
:100090000C94C6010C94C6010C94C6010C94AD02DC
:1000A0000C94C6010C94C6010C94C6010C94C601B4
:1000B0000C94C6010C94C6010C94C6010C94C601A4
:1000C0000C94C6010C94C6010C94C6010C94C60194
:1000D0000C94C6010C94C6010C94C6010C94C60184
:1000E0000C94C6013103F402F402F402F402F402A7
:1000F000F402F4026C03F402F402F402F402F402D7
:10010000F402F4026203F402F402F402F402F402D0
:10011000F402F4020703F402F402F402F402F4021B
:10012000F402F4021103F402F402F402F402F40201
:10013000F402F4021903F402F402F402F402F402E9
:10014000F402F4021503F402F402F402F402F402DD
:10015000F402F4028903F402F402F402F402F40259
:10016000F402F402ED03F402F402F402F402F402E5
:10017000F402F4028503F402F402F402F402F4023D
:10018000F402F4021204F402F402F402F402F4029F
:10019000F402F402F403F402F402F402F402F402AE
:1001A000F402F402D702F402F402F402F402F402BC
:1001B000F402F402CB02F402F402F402F402F402B8
:1001C000F402F402D302F402F402F402F402F402A0
:1001D000F402F402CF02F402F402F402F402F40294
:1001E000F402F402A203F402F402F402F402F402B0
:1001F000F402F402CB03F402F402F402F402F40277
:10020000F402F4029E03F402F402F402F402F40293
:10021000F402F402C703F402F402F402F402F4025A
:10022000F402F4024103F402F402F402F402F402D0
:10023000F402F4025703F402F402F402F402F402AA
:10024000F402F4025303F402F402F402F402F4029E
:10025000F402F4025B03F402F402F402F402F40286
:10026000F402F4023903F402F402F402F402F40298
:10027000F402F4023D03F402F402F402F402F40284
:10028000F402F402F402F402F402F402F402F402BE
:10029000F402F402F402F402F402F402F402F402AE
:1002A000F402F402F402F402F402F402F402F4029E
:1002B000F402F402F402F402F402F402F402F4028E
:1002C000F402F402F402F402F402F402F402F4027E
:1002D000F402F402E8030C94D3020C9415040C9479
:1002E00085030C9407030C9415030C94E8030C94F9
:1002F000F4020C9431030C94CF020C94CB020C94B6
:10030000C7030C94CB030C945B030C946C030C9408
:1003100053030C94A2030C9412040C943D030C940C
:100320009E030C9419030C94D7020C9489030C942B
:1003300011030C94ED030C9462030C94F4030C94DD
:1003400041030C9439030C94570311241FBECFEFC3
:10035000D1E2DEBFCDBF00E00CBF13E0A0E0B2E011
:10036000EEEBF9E000E00BBF02C007900D92AC3E4F
:10037000B107D9F724E0ACEEB3E001C01D92A6327C
:10038000B207E1F70E9468040C94DD040C940000AD
:10039000ECEEF3E0118210828FEF828313821092D1
:1003A000B90088E48093B80085E08093BC0008958C
:1003B000880F81608093BA0085E48093BC0061114E
:1003C00001C0089508952091EC033091ED032D7F35
:1003D00081E0232B09F080E008950F931F93CF93C2
:1003E000DF93182F092FC62FD42F0E945604C53132
:1003F00028F039C085E08A95F1F700002091EC03E0
:100400003091ED03C9018D7F892BA1F7D093EF03C4
:100410006C2F70E06115710561F0A12FB02FE4EF32
:10042000F3E0AB014C505C4F8D9181934E175F0709
:10043000D9F77093F3036093F2031092F1031092D3
:10044000F00381E090E09093ED038093EC03223081
:10045000310579F085EA8093BC0080E0DF91CF918F
:100460001F910F91089581E0DF91CF911F910F911E
:1004700008958091F0039091F1039C012F5F3F4F0D
:100480003093F1032093F003FC01EC50FC4F80818A
:100490008093BB0085E88093BC0080E0DF91CF9122
:1004A0001F910F910895CF93DF93643120F081E085
:1004B000DF91CF910895D42FC82F10920904109284
:1004C0000804262F30E030931F0420931E04CC0F25
:1004D000C1600E94560404C085E08A95F1F70000CF
:1004E0008091EC039091ED039C012D7F232BA1F7CC
:1004F000D093EF03C093F40321E030E03093F30393
:100500002093F2031092F1031092F003029759F036
:100510003093ED032093EC0385EA8093BC0080E0E8
:10052000DF91CF9108953093ED032093EC038091F8
:10053000F0039091F1039C012F5F3F4F3093F10343
:100540002093F003FC01EC50FC4F80818093BB00B2
:1005500085E88093BC0080E0E3CF1F920F920FB636
:100560000F9211240BB60F922F933F934F935F93EB
:100570006F937F938F939F93AF93BF93EF93FF936B
:100580008091B900887F90E0FC018827EE58FF4FEA
:100590008F4F0C94A50485EB92E00E94AD048EEC85
:1005A00092E00E94AD0486EE92E00E94AD0485EFD9
:1005B00092E00E94AD0486E090E09093ED0380937A
:1005C000EC0380911E0490911F0401972091080470
:1005D00030910904281739070CF0D2C088EF8093B6
:1005E000EE0385EC8093BC00FF91EF91BF91AF913A
:1005F0009F918F917F916F915F914F913F912F913B
:100600000F900BBE0F900FBE0F901F90189584E2B5
:1006100092E00E94AD0483E090E09093ED0380931C
:10062000EC0383E392E00E94AD0483E492E00E9435
:10063000AD0485E592E00E94AD042091F003309175
:10064000F1038091F2039091F303281739070CF41A
:1006500047C08091EF03882341F085EA8093BC0076
:10066000C3CF84ED93E00E94AD0485E98093BC0084
:10067000BBCF82E593E00E94AD0484E693E00E9444
:10068000AD0486E793E00E94AD048091B900887FB5
:100690008093EE038091EF038111A6CF1092ED03BA
:1006A0001092EC03A1CF8BE893E00E94AD048FE998
:1006B00093E00E94AD048EEA93E00E94AD0485E0D1
:1006C00090E07BCF8EE092E00E94AD0482E090E06B
:1006D0009093ED038093EC0382E192E00E94AD04DD
:1006E0008091F0039091F1039C012F5F3F4F309375
:1006F000F1032093F003FC01EC50FC4F80818093C8
:10070000BB0085E88093BC006FCF86E692E00E9434
:10071000AD0486E792E00E94AD048091B900887F25
:100720008093EE038091EF03811197CF1092ED0338
:100730001092EC0385E98093BC0056CF84E093E0EF
:100740000E94AD0487E193E00E94AD04809108040B
:10075000909109049C012F5F3F4F3093090420932F
:1007600008044091BB00FC01E65FFB4F4083809191
:100770001E0490911F040197281739070CF42ECFFF
:1007800088EF8093EE0385E88093BC002DCF8AE24A
:1007900093E00E94AD048EE393E00E94AD0480914B
:1007A0000804909109049C012F5F3F4F3093090486
:1007B000209308042091BB00FC01E65FFB4F2083DF
:1007C0008FEF8093EE038091EF0381110DCF66CF01
:1007D0008FEB93E00E94AD0407CF87E892E00E9480
:1007E000AD0484E090E0E9CE85EA92E00E94AD0499
:1007F00080910804909109049C012F5F3F4F309332
:100800000904209308042091BB00FC01E65FFB4F24
:1008100020838FEF8093EE038091EF03882309F408
:1008200085CF1BCF86E992E08FCF8A3049F0909137
:10083000C00095FFFCCF8093C60080E090E0089553
:100840009091C00095FFFCCF9DE09093C600EFCF44
:100850009093C5008093C40086E08093C20088E92D
:100860008093C10008959091C00095FFFCCF8093C4
:10087000C60008958091C00087FFFCCF8091C6001C
:1008800008958091C000881F8827881F0895FC0163
:100890002081222351F031969091C00095FFFCCF2A
:1008A0002093C60021912111F7CF089580E092E0B6
:1008B00090932304809322041092C50082E38093D6
:1008C000C40086E08093C20088E98093C100089547
:1008D000CF93DF93CDB7DEB727970FB6F894DEBF7F
:1008E0000FBECDBF0E94560478940E94C80161E0FB
:1008F00081E00E94D801198288E48A8385E68B838F
:1009000081E38C838CE68D838FE68E838AE08F83F0
:1009100088EF8093EE0340E067E0CE0101960E94ED
:10092000ED012FEF83ED90E3215080409040E1F7FF
:1009300000C0000080E090E027960FB6F894DEBF7C
:100940000FBECDBFDF91CF910895EE0FFF1F881F1F
:100950008BBF0790F691E02D19940F931F93CF93BF
:10096000DF93E0912204F0912304238121FF1BC037
:100970008C01D0E0C0E0F80181918F0160912204E8
:1009800070912304DB011896ED91FC91199788234F
:1009900031F01995892B79F3DFEFCFEFECCF8AE0B7
:1009A0001995892B19F08FEF9FEF02C08D2F9C2F87
:0E09B000DF91CF911F910F910895F894FFCF22
:1009BE000000000200000000150400000000524577
:1009CE00505F53544152545F5452414E534D49540B
:1009DE0054454400534C41575F54525F41434B5F63
:1009EE00525600534C41575F54525F4E41434B5F3A
:1009FE005256004D5F444154415F54525F4E414345
:100A0E004B5F5256004D5F444154415F54525F411B
:100A1E00434B5F525600534C41525F54525F4E410E
:100A2E00434B5F5256004152424954524154494F32
:100A3E004E5F4C4F535400534C41525F54525F41E2
:100A4E00434B5F525600444154415F52565F4143FF
:100A5E004B5F545200444154415F52565F4E4143E6
:100A6E004B5F5452004152424954524154494F4EE9
:100A7E005F4C4F53545F53525F41444452004152B6
:100A8E00424954524154494F4E5F4C4F53545F5359
:100A9E00525F42524400425244575F52565F4143A6
:100AAE004B5F545200534C41575F52565F41434B7C
:100ABE005F545200444154415F4252445F52565F6C
:100ACE0041434B5F545200444154415F534C415F8C
:100ADE0052565F41434B5F545200444154415F4272
:100AEE0052445F52565F4E41434B5F545200444155
:100AFE0054415F534C415F52565F4E41434B5F54DE
:100B0E005200535F444154415F54525F4E41434B38
:100B1E005F525600535F4C444154415F54525F4103
:100B2E00434B5F52560053544152545F53544F50EF
:100B3E005F464F525F534C41564500415242495415
:100B4E00524154494F4E5F4C4F53545F53540053D0
:100B5E004C41525F52565F41434B5F545200535FBC
:100B6E00444154415F54525F41434B5F52560054CF
:100B7E0057495F4E4F5F52454C4556414E545F4963
:100B8E004E464F005457495F494C4C4547414C5FC8
:0C0B9E0053544152545F53544F50000018
:00000001FF
