:100000000C945B010C947C010C947C010C947C019D
:100010000C947C010C947C010C947C010C947C016C
:100020000C947C010C9422060C947C010C947C01B1
:100030000C947C010C947C010C947C010C947C014C
:100040000C947C010C947C010C947C010C947C013C
:100050000C947C010C947C010C947C010C947C012C
:100060000C947C010C9438070C9464070C947C016C
:100070000C947C010C947C010C947C010C947C010C
:100080000C947C010C947C010C947C010C947C01FC
:100090000C947C010C947C010C947C010C94EE0279
:1000A0000C947C010C947C010C947C010C947C01DC
:1000B0000C947C010C947C010C947C010C947C01CC
:1000C0000C947C010C947C010C947C010C947C01BC
:1000D0000C947C010C947C010C947C010C947C01AC
:1000E0000C947C019F031E031E031E031E031E03AC
:1000F0001E031E0333031E031E031E031E031E03E3
:100100001E031E032D031E031E031E031E031E03D8
:100110001E031E0348031E031E031E031E031E03AD
:100120001E031E038F031E031E031E031E031E0356
:100130001E031E034E031E031E031E031E031E0387
:100140001E031E038F031E031E031E031E031E0336
:100150001E031E038F031E031E031E031E031E0326
:100160001E031E03F6031E031E031E031E031E03AF
:100170001E031E038F031E031E031E031E031E0306
:100180001E031E030D041E031E031E031E031E0377
:100190001E031E03A7031E031E031E031E031E03CE
:1001A0001E031E030B031E031E031E031E031E035A
:1001B0001E031E030B031E031E031E031E031E034A
:1001C0001E031E030B031E031E031E031E031E033A
:1001D0001E031E030B031E031E031E031E031E032A
:1001E0001E031E03C0031E031E031E031E031E0365
:1001F0001E031E03D2031E031E031E031E031E0343
:100200001E031E03C0031E031E031E031E031E0344
:100210001E031E03D2031E031E031E031E031E0322
:100220001E031E03EB031E031E031E031E031E03F9
:100230001E031E0362031E031E031E031E031E0372
:100240001E031E0362031E031E031E031E031E0362
:100250001E031E036B031E031E031E031E031E0349
:100260001E031E03EB031E031E031E031E031E03B9
:100270001E031E03EB030C944E030C949F030C947B
:100280008F030C941E030C94D2030C9462030C9401
:10029000A7030C94F6030C94C0030C9433030C9442
:1002A00048030C940D040C942D030C946B030C94D4
:1002B0000B030C94EB0311241FBECFEFD1E2DEBF82
:1002C000CDBF00E00CBF12E0A0E0B2E0E4E8F7E14F
:1002D00000E00BBF02C007900D92AE37B107D9F70F
:1002E00023E0AEE7B2E001C01D92A635B207E1F708
:1002F0000E9492070C94C00B0C940000E6E0F3E01F
:10030000118210828FEF828313821092B90088E4E9
:100310008093B80085E08093BC0010920B0310928C
:100320000A0310922D0310922C03089510920703D4
:10033000109206039FEF9093080310920903109206
:10034000B90098E49093B80095E09093BC001092A7
:100350000B0310920A0310922D0310922C03880FA6
:10036000611103C08093BA00089581608093BA0040
:100370000895F8942091060330910703789481E062
:10038000232B09F080E008956F3130F081E008956B
:1003900025E02A95F1F70000F894209106033091AA
:1003A00007037894232BA1F721E030E03093070373
:1003B000209306034093090370E06115710559F01D
:1003C000DC01EEE0F3E09B01225F3C4F8D918193D5
:1003D0002E173F07D9F770930D0360930C0310920B
:1003E0000B0310920A038091060390910703029772
:1003F00091F085EA8093BC00F89480910603909177
:1004000007037894892B11F480E0089585E08A959C
:10041000F1F70000F1CF80910A0390910B039C014A
:100420002F5F3F4F30930B0320930A03FC01E25FE1
:10043000FC4F80818093BB0085E88093BC00DCCFBB
:100440006E3130F081E0089595E09A95F1F7000063
:10045000F89420910603309107037894232BA1F799
:1004600010922D0310922C0370E070934D03609353
:100470004C03880F8160F8942091060330910703A4
:100480007894232B29F521E030E030930703209363
:1004900006034093090380930E0330930D032093CA
:1004A0000C0310920B0310920A03809106039091A3
:1004B00007030297B9F085EA8093BC00F894809115
:1004C0000603909107037894892B39F480E008950E
:1004D00095E09A95F1F70000CECF85E08A95F1F787
:1004E0000000ECCF80910A0390910B039C012F5FD9
:1004F0003F4F30930B0320930A03FC01E25FFC4F54
:1005000080818093BB0085E88093BC00D7CF6F319A
:1005100030F081E0089525E02A95F1F70000F89485
:1005200020910603309107037894232BA1F721E053
:1005300030E0309307032093060310920B031092D0
:100540000A0370E070930D0360930C0325E420937D
:10055000BC006115710551F0DC01EEE0F3E0625F73
:100560007C4F8D9181936E177F07D9F7F894809116
:100570000603909107037894892B11F480E0089585
:1005800085E08A95F1F70000F1CFF8948091060399
:10059000909107037894892BB9F481E090E09093CF
:1005A00007038093060310922D0310922C0385E419
:1005B0008093BC00F894809106039091070378948F
:1005C000892B39F480E0089585E08A95F1F70000E1
:1005D000DCCF85E08A95F1F70000ECCF1F920F92F7
:1005E0000FB60F9211240BB60F922F933F938F9358
:1005F0009F93AF93BF93EF93FF938091B900887F50
:1006000090E0893C9105D0F4FC018827EE58FF4F1B
:100610008F4F0C94C40886E090E09093070380937A
:10062000060388EF8093080380912C0390912D039B
:100630004D970CF470C085E88093BC00FF91EF915A
:10064000BF91AF919F918F913F912F910F900BBED2
:100650000F900FBE0F901F90189582E090E090933E
:1006600007038093060380910A0390910B039C017A
:100670002F5F3F4F30930B0320930A03FC01E25F8F
:10068000FC4F80818093BB0085E88093BC00D6CF6F
:1006900083E090E0909307038093060320910A0380
:1006A00030910B0380910C0390910D0328173907AB
:1006B000D4F280910903882309F4C1C085EA8093AC
:1006C000BC00BCCF85E090E09093070380930603C5
:1006D00085E48093BC0080910A0390910B039C01F8
:1006E0002F5F3F4F30930B0320930A03FC01E25F1F
:1006F000FC4F80818093BB0088EF8093080320919A
:100700000A0330910B0380910C0390910D0328177D
:1007100039070CF090CF85EC8093BC008FCF80918F
:10072000060390910703019709F494C08091B900E2
:10073000887F80930803809109038111BFCF85E9E9
:100740008093BC00109207031092060377CF80912C
:100750002C0390912D039C012F5F3F4F30932D036D
:1007600020932C032091BB00FC01E25DFC4F208311
:100770008FEF8093080380910903882301F39ECFB4
:1007800080912C0390912D039C012F5F3F4F30935C
:100790002D0320932C032091BB00FC01E25DFC4F54
:1007A00020833FCF80912C0390912D039C012F5FDC
:1007B0003F4F30932D0320932C032091BB00FC016D
:1007C000E25DFC4F20838FEF809308038091090343
:1007D000811134CFB7CF8FEF8093080385E88093E2
:1007E000BC0080910903811129CFACCF84E090E057
:1007F000909307038093060388EF8093080320916A
:100800002C0330912D0380914C0390914D0301975F
:10081000281739070CF00FCF7ECF80912C039091D1
:100820002D039C012F5F3F4F30932D0320932C030A
:100830002091BB00FC01E25DFC4F2083DDCF85E908
:100840008093BC008FEF80930803109207031092EF
:100850000603F4CE80910A0390910B0301979093C5
:100860000B0380930A032ACFCF92DF92EF92FF927D
:100870000F931F93CF93DF938B01D82FC92F69015B
:100880007A010E94260A181684F0F7FAF094F7F815
:10089000F094A7019601B8018D2F9C2F0E94390971
:1008A00087FD03C06801ED2EFC2EC701B601DF9164
:1008B000CF911F910F91FF90EF90DF90CF9008950F
:1008C0004F925F926F927F928F929F92AF92BF9260
:1008D000CF92DF92EF92FF920F931F93CF93DF930C
:1008E0002B013C0149015A01670178010E9463060E
:1008F0000E94010684E690E00E94780688E290E07B
:100900000E94980AEC014C8A5D8A6E8A7F8A888EE2
:10091000998EAA8EBB8ECC8EDD8EEE8EFF8E80E001
:1009200090E0A0EAB1E488A399A3AAA3BBA380E0C6
:1009300090E0A8E4B2E48CA39DA3AEA3BFA31D8264
:100940001C821B821A821F821E821A861B861C86AC
:100950001D8684E0888385E08983198618861E8633
:100960001F86188A198A61E084E00E94E10561E02F
:1009700089810E94E105CE01DF91CF911F910F91F6
:10098000FF90EF90DF90CF90BF90AF909F908F90AF
:100990007F906F905F904F9008950C94300BFC0106
:1009A000738B628B0895FC017783668308952F9281
:1009B0003F924F925F926F927F928F929F92AF92EF
:1009C000BF92CF92DF92EF92FF920F931F93CF933C
:1009D000DF93EC010E941D062A813B81AC01421B82
:1009E000530B6E817F819B838A835D834C838A89CD
:1009F0009B89009709F4A6C0019709F0C7C0CA8473
:100A0000DB84EC84FD84CA01861B970BBC01072E96
:100A1000000C880B990B0E9476093B018C0188A081
:100A200099A0AAA0BBA0A50194010E94260A1816AD
:100A300074F0B7FAB094B7F8B094A5019401B3017B
:100A4000C8010E94390987FD02C0430158018A8606
:100A50009B86AC86BD864CA05DA06EA07FA0288D35
:100A6000398D4A8D5B8DC501B4010E942B0A2E85FC
:100A70003F85488959890E94CD081B018C019B0143
:100A8000AC01C301B2010E94390987FD0EC077FA9B
:100A9000709477F870949101A801C301B2010E948B
:100AA000260A181614F0210138014E865F86688ADE
:100AB000798AA7019601C501B4010E94CC082C8D4A
:100AC0003D8D4E8D5F8D0E942B0A6B017C016885E8
:100AD0007985072E000C880B990B0E947609A301DB
:100AE00092010E94CD089B01AC01C701B6010E9492
:100AF000CD086B017C012C893D894E895F89C50138
:100B0000B4010E942B0A9B01AC01C701B6010E94EF
:100B1000CD086B017C0120E030E04FE753E40E94F8
:100B2000260A18160CF446C020E030E04FE753ECDC
:100B3000C701B6010E94390987FD3FC0C701B60150
:100B40000E943E097987688777FD24C060E088812C
:100B50000E94F10561E089810E94F10588859985EF
:100B600097FD24C0DF91CF911F910F91FF90EF90DF
:100B7000DF90CF90BF90AF909F908F907F906F90BD
:100B80005F904F903F902F900C9474066885798504
:100B900077FFDCCF61E088810E94F10560E0898108
:100BA0000E94F1058885998597FFDCCF9195819505
:100BB0009109D8CF6FEF70E0C5CF61E07FEFC2CF72
:100BC000089521E030E001C0220F8A95EAF78DB147
:100BD000611104C0209528232DB90895282B2DB923
:100BE000089521E030E001C0220F8A95EAF78EB126
:100BF000611104C0209528232EB90895282B2EB901
:100C00000895F89484B18C7F84B985B1836085B9E7
:100C1000E8E6F0E0808181608083EBE6F0E08081AF
:100C20008360808383E080934E0380934F03109210
:100C3000510310925003789408958091500390913D
:100C4000510308951F920F920FB60F9211240BB605
:100C50000F922F933F934F935F938F939F93EF93B5
:100C6000FF9380914F0380934E0383B180934F0392
:100C7000E0914E0380914F03209150033091510336
:100C8000E370EE0FEE0F8370E82B0E2E000CFF0BBF
:100C9000E85CFD4F8081A901480F511D87FD5A95E1
:100CA0005093510340935003FF91EF919F918F9187
:100CB0005F914F913F912F910F900BBE0F900FBE00
:100CC0000F901F9018958DE08093800089E08093AD
:100CD00081001092890010928B0010928D0081E0AB
:100CE00080938C00279A0895809580938C000895B6
:100CF000BC01109220018DE080932101072E000C91
:100D0000880B990B0E94760925E83BEE49E751E4F0
:100D10000E942B0A0E9445097093290160932801C3
:100D2000F894E3E7F0E0808182608083789408950E
:100D3000F8941092C50083E38093C40088E98093FF
:100D4000C10086E08093C200109205031092040354
:100D50001092030310920203789408959091050372
:100D600080910403981781F0E0910403EF5FEF7125
:100D7000E0930403F0E0EE53FD4F80819091C100B9
:100D800090689093C100089580E008952091030336
:100D90002F5F2F71909102032917E1F3E22FF0E00A
:100DA000EE51FD4F8083209303038091C100806248
:100DB0008093C1000895DC0116C0E0910403EF5F49
:100DC000EF71E0930403F0E0EE53FD4F908120912A
:100DD000C10020682093C1009D93992359F09A3057
:100DE00069F09D3059F02091050390910403291377
:100DF000E4CF1D929A2F981B892F0895FD013197FA
:100E000010822091050390910403291799F3E09132
:100E10000403EF5FEF71E0930403F0E0EE53FD4F46
:100E200090819091C10090689093C1009A2F981B77
:100E3000892F0895FC0130813323C9F0DC0111961C
:100E4000209103032F5F2F71909102032917E1F383
:100E5000E22FF0E0EE51FD4F308320930303909199
:100E6000C10090629093C1003D913111E9CF089586
:100E70001F920F920FB60F9211240BB60F928F9301
:100E80009F93EF93FF939091C600E0910503EF5F6E
:100E9000EF7180910403E81789F0E0930503F0E017
:100EA000EE53FD4F9083FF91EF919F918F910F90A3
:100EB0000BBE0F900FBE0F901F9018958091C10030
:100EC0008F778093C100EFCF1F920F920FB60F92D2
:100ED00011240BB60F928F939F93EF93FF939091F2
:100EE0000303809102039817B9F0E0910203EF5FCA
:100EF000EF71E0930203F0E0EE51FD4F80818093AB
:100F0000C600FF91EF919F918F910F900BBE0F90B4
:100F10000FBE0F901F9018958091C1008F7D809318
:100F2000C100EFCFCF93DF93CDB7DEB7C759D1095B
:100F30000FB6F894DEBF0FBECDBF0E9498060E9488
:100F40007E01789485E0E6E0F2E0DE01AA59BF4F29
:100F500001900D928A95E1F784E1E6E6F0E0EC0F6E
:100F6000FD1F3596DF01282F1D922A95E9F795E0A0
:100F7000E6E0F2E0DE01A35BBF4F01900D929A958F
:100F8000E1F7EDE4F0E0EC0FFD1F3596DF01282FCF
:100F90001D922A95E9F795E0E6E0F2E0DE01D496AD
:100FA00001900D929A95E1F7FE01F996DF01282F45
:100FB0001D922A95E9F795E0E6E0F2E0DE015B9606
:100FC00001900D929A95E1F7FE01B096DF011D9216
:100FD0008A95E9F788E0EFE1F2E0DE01A158BF4F22
:100FE00001900D928A95E1F785E0E7E2F2E0DE01FB
:100FF000AD56BF4F01900D928A95E1F785E0ECE286
:10100000F2E0DE01A257BF4F01900D928A95E1F701
:1010100087E0E1E3F2E0DE01A957BF4F01900D92B6
:101020008A95E1F702E014E088E492E00E941A0752
:10103000CE018A599F4F0E941A0782E692E00E94D1
:101040001A0784E692E00E941A07CE01C4960E9415
:101050001A0782E692E00E941A07CE01835B9F4F37
:101060000E94DB06823008F44BC0CE014B960E94F2
:10107000DB06823008F444C0CE01835B9F4F0E94A0
:101080001A07CE014B960E941A07C257DF4F0883FA
:10109000CE58D04040E065E0CE0182579F4F0E947D
:1010A000C4010983BE01635B7F4FCE0102960E949B
:1010B000B90B40E06AE1CE0101960E94C401C2571B
:1010C000DF4F1883CE58D04040E065E0CE01825714
:1010D0009F4F0E94C4011983BE01655E7F4FCE0100
:1010E00002960E94B90B40E06AE1CE0101960E948F
:1010F000C40140E067E0CE0189579F4F0E94C401C0
:1011000040E068E0CE0181589F4F0E94C401CD5657
:10111000DF4F0883C359D04040E065E0CE018D56D3
:101120009F4F0E94C40140E069E181E00E942002DB
:101130006EE273E0CE018A599F4F0E94B90BCD56E3
:10114000DF4F1883C359D04040E065E0CE018D5693
:101150009F4F0E94C40140E069E182E00E942002AA
:101160006EE273E0CE01C4960E94B90B82E692E073
:101170000E941A07BFEF23ED80E3B150204080406A
:10118000E1F700C0000050CFEE0FFF1F881F8BBF9C
:101190000790F691E02D19945058BB27AA270E947A
:1011A000E4080C94EC090E94DE0938F00E94E5097D
:1011B00020F039F49F3F19F426F40C94DB090EF467
:1011C000E095E7FB0C94D509E92F0E94FD0958F33F
:1011D000BA17620773078407950720F079F4A6F51C
:1011E0000C941F0A0EF4E0950B2EBA2FA02D0B01C4
:1011F000B90190010C01CA01A0011124FF27591B5C
:1012000099F0593F50F4503E68F11A16F040A22F61
:10121000232F342F4427585FF3CF469537952795D2
:10122000A795F0405395C9F77EF41F16BA0B620BD1
:10123000730B840BBAF09150A1F0FF0FBB1F661F18
:10124000771F881FC2F70EC0BA0F621F731F841F5B
:1012500048F4879577956795B795F7959E3F08F081
:10126000B0CF9395880F08F09927EE0F9795879543
:1012700008950E94B10908F481E008950E9445098B
:101280006894B1110C94200A08950E94050A88F010
:101290009F5798F0B92F9927B751B0F0E1F0660F3A
:1012A000771F881F991F1AF0BA95C9F714C0B1307B
:1012B00091F00E941F0AB1E008950C941F0A672F55
:1012C000782F8827B85F39F0B93FCCF386957795AA
:1012D0006795B395D9F73EF4909580957095619593
:1012E0007F4F8F4F9F4F0895E89409C097FB3EF4BE
:1012F00090958095709561957F4F8F4F9F4F992363
:10130000A9F0F92F96E9BB279395F69587957795E0
:101310006795B795F111F8CFFAF4BB0F11F460FFA0
:101320001BC06F5F7F4F8F4F9F4F16C0882311F0F8
:1013300096E911C0772321F09EE8872F762F05C00C
:10134000662371F096E8862F70E060E02AF09A95A7
:10135000660F771F881FDAF7880F9695879597F99C
:101360000895990F0008550FAA0BE0E8FEEF161636
:101370001706E807F907C0F012161306E407F50789
:1013800098F0621B730B840B950B39F40A2661F0FD
:10139000232B242B252B21F408950A2609F4A140A0
:1013A000A6958FEF811D811D089597F99F6780E8AD
:1013B00070E060E008959FEF80EC089500240A94A7
:1013C0001616170618060906089500240A94121620
:1013D0001306140605060895092E0394000C11F453
:1013E000882352F0BB0F40F4BF2B11F460FF04C000
:1013F0006F5F7F4F8F4F9F4F089557FD9058440F59
:10140000551F59F05F3F71F04795880F97FB991F63
:1014100061F09F3F79F08795089512161306140620
:10142000551FF2CF4695F1DF08C0161617061806AD
:10143000991FF1CF86957105610508940895E89488
:10144000BB2766277727CB0197F908950E94B1093A
:1014500008F48FEF08950E943E0A0C94EC090E9454
:10146000DE0938F00E94E50920F0952311F00C9474
:10147000D5090C94DB0911240C94200A0E94FD0963
:1014800070F3959FC1F3950F50E0551F629FF001D7
:10149000729FBB27F00DB11D639FAA27F00DB11DF0
:1014A000AA1F649F6627B00DA11D661F829F222779
:1014B000B00DA11D621F739FB00DA11D621F839F00
:1014C000A00D611D221F749F3327A00D611D231FD6
:1014D000849F600D211D822F762F6A2F11249F5724
:1014E00050409AF0F1F088234AF0EE0FFF1FBB1F27
:1014F000661F771F881F91505040A9F79E3F5105E6
:1015000080F00C94D5090C94200A5F3FE4F3983ED8
:10151000D4F3869577956795B795F795E7959F5F8F
:10152000C1F7FE2B880F911D9695879597F9089521
:101530000F931F93CF93DF938230910510F482E0D5
:1015400090E0E0915403F091550320E030E0A0E0FA
:10155000B0E0309719F14081518102811381481721
:101560005907C8F08417950769F4109731F012965F
:101570000C93129713961C9327C000935403109357
:10158000550322C02115310519F04217530718F4ED
:101590009A01BD01EF01DF01F801DBCF2115310513
:1015A000F9F0281B390B2430310580F48A819B81A6
:1015B0006115710521F0FB019383828304C0909330
:1015C000550380935403FE01329644C0FE01E20F9E
:1015D000F31F8193919322503109398328833AC0B4
:1015E0002091520330915303232B41F420910202A6
:1015F0003091030230935303209352032091000251
:10160000309101022115310541F42DB73EB74091CB
:10161000040250910502241B350BE0915203F09116
:101620005303E217F307A0F42E1B3F0B28173907CB
:1016300078F0AC014E5F5F4F2417350748F04E0F2E
:101640005F1F50935303409352038193919302C0C1
:10165000E0E0F0E0CF01DF91CF911F910F9108956D
:10166000CF93DF93009709F481C0FC013297138276
:101670001282A0915403B0915503109781F42081F8
:101680003181820F931F2091520330915303281709
:10169000390751F5F0935303E093520367C0ED010E
:1016A00020E030E0CE17DF0740F44A815B819E01E5
:1016B00041155105F1F0EA01F5CFD383C283408192
:1016C0005181840F951FC817D90759F488819981D2
:1016D000840F951F0296918380838A819B819383D7
:1016E00082832115310529F4F0935503E0935403C7
:1016F0003DC0E901FB83EA8349915991C40FD51F8D
:10170000EC17FD0761F480819181840F951F02968B
:10171000E90199838883828193819B838A83E0E0B6
:10172000F0E012968D919C911397009719F0FD01AE
:10173000DC01F7CF8D919C9111979D012E5F3F4F5A
:10174000820F931F209152033091530328173907BA
:1017500069F4309729F4109255031092540302C093
:1017600013821282B0935303A0935203DF91CF915F
:101770000895FB01DC0101900D920020E1F708952E
:04178000F894FFCF0B
:101784000000560320006E6F6E650000000000002C
:101794000000000000000000000000000000000045
:1017A40073616D706C650000676574000073657427
:1017B40000006170706C79000001FF00FF000001FF
:1017C400010000FF00FF0100537461746F20636F18
:1017D4007272656E7465206D6F746F726520313A34
:1017E40020000A00537461746F20636F7272656E17
:0E17F4007465206D6F746F726520323A2000AC
:00000001FF
