:100000000C945B010C947C010C947C010C947C019D
:100010000C947C010C947C010C947C010C947C016C
:100020000C947C010C944E060C947C010C947C0185
:100030000C947C010C947C010C947C010C947C014C
:100040000C947C010C947C010C947C010C947C013C
:100050000C947C010C947C010C947C010C947C012C
:100060000C947C010C945C070C9488070C947C0124
:100070000C947C010C947C010C947C010C947C010C
:100080000C947C010C947C010C947C010C947C01FC
:100090000C947C010C947C010C947C010C941A034C
:1000A0000C947C010C947C010C947C010C947C01DC
:1000B0000C947C010C947C010C947C010C947E01CA
:1000C0000C947C010C947C010C947C010C947C01BC
:1000D0000C947C010C947C010C947C010C947C01AC
:1000E0000C947C01CB034A034A034A034A034A03A4
:1000F0004A034A035F034A034A034A034A034A0383
:100100004A034A0359034A034A034A034A034A0378
:100110004A034A0374034A034A034A034A034A034D
:100120004A034A03BB034A034A034A034A034A03F6
:100130004A034A037A034A034A034A034A034A0327
:100140004A034A03BB034A034A034A034A034A03D6
:100150004A034A03BB034A034A034A034A034A03C6
:100160004A034A0322044A034A034A034A034A034E
:100170004A034A03BB034A034A034A034A034A03A6
:100180004A034A0339044A034A034A034A034A0317
:100190004A034A03D3034A034A034A034A034A036E
:1001A0004A034A0337034A034A034A034A034A03FA
:1001B0004A034A0337034A034A034A034A034A03EA
:1001C0004A034A0337034A034A034A034A034A03DA
:1001D0004A034A0337034A034A034A034A034A03CA
:1001E0004A034A03EC034A034A034A034A034A0305
:1001F0004A034A03FE034A034A034A034A034A03E3
:100200004A034A03EC034A034A034A034A034A03E4
:100210004A034A03FE034A034A034A034A034A03C2
:100220004A034A0317044A034A034A034A034A0398
:100230004A034A038E034A034A034A034A034A0312
:100240004A034A038E034A034A034A034A034A0302
:100250004A034A0397034A034A034A034A034A03E9
:100260004A034A0317044A034A034A034A034A0358
:100270004A034A0317040C947A030C94CB030C949E
:10028000BB030C944A030C94FE030C948E030C9451
:10029000D3030C9422040C94EC030C945F030C9491
:1002A00074030C9439040C9459030C9497030C9424
:1002B00037030C94170411241FBECFEFD1E2DEBF29
:1002C000CDBF00E00CBF12E0A0E0B2E0E8E9FCE145
:1002D00000E00BBF02C007900D92A234B107D9F71E
:1002E00023E0A2E4B2E001C01D92AC31B207E1F715
:1002F0000E94B6070C944A0E0C9400001F920F92B5
:100300000FB60F9211240BB60F922F933F934F937A
:100310005F936F937F938F939F93AF93BF93EF936D
:10032000FF938091CE029091CF020E940305FF912E
:10033000EF91BF91AF919F918F917F916F915F915D
:100340004F913F912F910F900BBE0F900FBE0F90CA
:100350001F901895EAECF2E0118210828FEF8283F1
:1003600013821092B90088E48093B80085E08093EE
:10037000BC001092D1021092D0021092F30210929F
:10038000F20208951092CB021092CA029FEF90934E
:10039000CC021092CD021092B90098E49093B8006C
:1003A00095E09093BC001092D1021092D00210926E
:1003B000F3021092F202880F611103C08093BA0019
:1003C000089581608093BA000895F8942091CA023C
:1003D0003091CB02789481E0232B09F080E00895DE
:1003E0006F3130F081E0089525E02A95F1F70000A3
:1003F000F8942091CA023091CB027894232BA1F774
:1004000021E030E03093CB022093CA024093CD022A
:1004100070E06115710559F0DC01E4EDF2E09B013B
:100420002C523D4F8D9181932E173F07D9F7709332
:10043000D3026093D2021092D1021092D002809126
:10044000CA029091CB02029791F085EA8093BC009A
:10045000F8948091CA029091CB027894892B11F480
:1004600080E0089585E08A95F1F70000F1CF809152
:10047000D0029091D1029C012F5F3F4F3093D10267
:100480002093D002FC01EC52FD4F80818093BB0091
:1004900085E88093BC00DCCF6E3130F081E00895B8
:1004A00095E09A95F1F70000F8942091CA023091F6
:1004B000CB027894232BA1F71092F3021092F20250
:1004C00070E07093130360931203880F8160F894B7
:1004D0002091CA023091CB027894232B29F521E098
:1004E00030E03093CB022093CA024093CD02809338
:1004F000D4023093D3022093D2021092D1021092F0
:10050000D0028091CA029091CB020297B9F085EA9D
:100510008093BC00F8948091CA029091CB027894A9
:10052000892B39F480E0089595E09A95F1F7000061
:10053000CECF85E08A95F1F70000ECCF8091D00214
:100540009091D1029C012F5F3F4F3093D1022093B5
:10055000D002FC01EC52FD4F80818093BB0085E806
:100560008093BC00D7CF6F3130F081E0089525E053
:100570002A95F1F70000F8942091CA023091CB023D
:100580007894232BA1F721E030E03093CB02209325
:10059000CA021092D1021092D00270E07093D3027E
:1005A0006093D20225E42093BC006115710551F0DF
:1005B000DC01E4EDF2E06C527D4F8D9181936E177A
:1005C0007F07D9F7F8948091CA029091CB02789472
:1005D000892B11F480E0089585E08A95F1F70000F9
:1005E000F1CFF8948091CA029091CB027894892B34
:1005F000B9F481E090E09093CB028093CA0210920C
:10060000F3021092F20285E48093BC00F89480918A
:10061000CA029091CB027894892B39F480E0089536
:1006200085E08A95F1F70000DCCF85E08A95F1F747
:100630000000ECCF1F920F920FB60F9211240BB651
:100640000F922F933F938F939F93AF93BF93EF930B
:10065000FF938091B900887F90E0893C9105D0F4A8
:10066000FC018827EE58FF4F8F4F0C943F0886E01F
:1006700090E09093CB028093CA0288EF8093CC02E3
:100680008091F2029091F3024D970CF470C085E8CE
:100690008093BC00FF91EF91BF91AF919F918F919B
:1006A0003F912F910F900BBE0F900FBE0F901F9098
:1006B000189582E090E09093CB028093CA028091DB
:1006C000D0029091D1029C012F5F3F4F3093D10215
:1006D0002093D002FC01EC52FD4F80818093BB003F
:1006E00085E88093BC00D6CF83E090E09093CB0266
:1006F0008093CA022091D0023091D1028091D2021F
:100700009091D30228173907D4F28091CD02882323
:1007100009F4C1C085EA8093BC00BCCF85E090E0BD
:100720009093CB028093CA0285E48093BC008091B1
:10073000D0029091D1029C012F5F3F4F3093D102A4
:100740002093D002FC01EC52FD4F80818093BB00CE
:1007500088EF8093CC022091D0023091D102809119
:10076000D2029091D302281739070CF090CF85EC74
:100770008093BC008FCF8091CA029091CB020197E9
:1007800009F494C08091B900887F8093CC02809155
:10079000CD028111BFCF85E98093BC001092CB02BE
:1007A0001092CA0277CF8091F2029091F3029C01DD
:1007B0002F5F3F4F3093F3022093F2022091BB0052
:1007C000FC01EC50FD4F20838FEF8093CC02809191
:1007D000CD02882301F39ECF8091F2029091F30223
:1007E0009C012F5F3F4F3093F3022093F202209140
:1007F000BB00FC01EC50FD4F20833FCF8091F20203
:100800009091F3029C012F5F3F4F3093F3022093AE
:10081000F2022091BB00FC01EC50FD4F20838FEFD2
:100820008093CC028091CD02811134CFB7CF8FEF6E
:100830008093CC0285E88093BC008091CD02811129
:1008400029CFACCF84E090E09093CB028093CA0292
:1008500088EF8093CC022091F2023091F3028091D4
:100860001203909113030197281739070CF00FCF4B
:100870007ECF8091F2029091F3029C012F5F3F4F57
:100880003093F3022093F2022091BB00FC01EC5064
:10089000FD4F2083DDCF85E98093BC008FEF8093EF
:1008A000CC021092CB021092CA02F4CE8091D002F8
:1008B0009091D10201979093D1028093D0022ACFD8
:1008C000CF92DF92EF92FF920F931F93CF93DF931C
:1008D0008B01D82FC92F69017A010E94A10918162E
:1008E00084F0F7FAF094F7F8F094A7019601B801B4
:1008F0008D2F9C2F0E94B40887FD03C06801ED2E48
:10090000FC2EC701B601DF91CF911F910F91FF908F
:10091000EF90DF90CF9008954F925F926F927F9209
:100920008F929F92AF92BF92CF92DF92EF92FF92FF
:100930000F931F93CF93DF932B013C0149015A0181
:10094000670178010E948F060E942D0684E690E0E0
:100950000E94A40688E290E00E94130AEC014C8AEF
:100960005D8A6E8A7F8A888E998EAA8EBB8ECC8E87
:10097000DD8EEE8EFF8E80E090E0A0EAB1E488A3E9
:1009800099A3AAA3BBA380E090E0A8E4B2E48CA35F
:100990009DA3AEA3BFA31D821C821B821A821F824D
:1009A0001E821A861B861C861D8684E0888385E04D
:1009B0008983198618861E861F86188A198A61E01F
:1009C00084E00E940D0661E089810E940D06CE013F
:1009D000DF91CF911F910F91FF90EF90DF90CF901B
:1009E000BF90AF909F908F907F906F905F904F904F
:1009F00008950C94AB0AFC01738B628B0895FC0183
:100A00007783668308952F923F924F925F926F9201
:100A10007F928F929F92AF92BF92CF92DF92EF928E
:100A2000FF920F931F93CF93DF93EC010E9449062F
:100A30002A813B81AC01421B530B6E817F819B83DA
:100A40008A835D834C838A899B89009709F4A6C0B9
:100A5000019709F0C7C0CA84DB84EC84FD84CA0115
:100A6000861B970BBC01072E000C880B990B0E946C
:100A7000F1083B018C0188A099A0AAA0BBA0A50108
:100A800094010E94A109181674F0B7FAB094B7F84F
:100A9000B094A5019401B301C8010E94B40887FD78
:100AA00002C0430158018A869B86AC86BD864CA055
:100AB0005DA06EA07FA0288D398D4A8D5B8DC5010C
:100AC000B4010E94A6092E853F85488959890E9454
:100AD00048081B018C019B01AC01C301B2010E94BB
:100AE000B40887FD0EC077FA709477F8709491017E
:100AF000A801C301B2010E94A109181614F0210136
:100B000038014E865F86688A798AA7019601C501F9
:100B1000B4010E9447082C8D3D8D4E8D5F8D0E9443
:100B2000A6096B017C0168857985072E000C880B6E
:100B3000990B0E94F108A30192010E9448089B01B1
:100B4000AC01C701B6010E9448086B017C012C89E9
:100B50003D894E895F89C501B4010E94A6099B01A8
:100B6000AC01C701B6010E9448086B017C0120E07E
:100B700030E04FE753E40E94A10918160CF446C078
:100B800020E030E04FE753ECC701B6010E94B40803
:100B900087FD3FC0C701B6010E94B9087987688701
:100BA00077FD24C060E088810E941D0661E0898194
:100BB0000E941D068885998597FD24C0DF91CF91FD
:100BC0001F910F91FF90EF90DF90CF90BF90AF906B
:100BD0009F908F907F906F905F904F903F902F905D
:100BE0000C94A0066885798577FFDCCF61E0888169
:100BF0000E941D0660E089810E941D0688859985F6
:100C000097FFDCCF919581959109D8CF6FEF70E078
:100C1000C5CF61E07FEFC2CF089521E030E001C091
:100C2000220F8A95EAF78DB1611104C0209528231F
:100C30002DB90895282B2DB9089521E030E001C089
:100C4000220F8A95EAF78EB1611104C020952823FE
:100C50002EB90895282B2EB90895F89484B18C7F6D
:100C600084B985B1836085B9E8E6F0E08081816070
:100C70008083EBE6F0E080818360808383E0809373
:100C8000140380931503109217031092160378949F
:100C90000895809116039091170308951F920F9263
:100CA0000FB60F9211240BB60F922F933F934F93D1
:100CB0005F938F939F93EF93FF938091150380939E
:100CC000140383B180931503E091140380911503FD
:100CD0002091160330911703E370EE0FEE0F83702F
:100CE000E82B0E2E000CFF0BE15EFD4F8081A90169
:100CF000480F511D87FD5A955093170340931603D3
:100D0000FF91EF919F918F915F914F913F912F9123
:100D10000F900BBE0F900FBE0F901F9018958DE097
:100D20008093800089E08093810010928900109266
:100D30008B0010928D0081E080938C00279A08959B
:100D4000809580938C000895BC01109220018DE065
:100D500080932101072E000C880B990B0E94F1084B
:100D600025E83BEE49E751E40E94A6090E94C0082D
:100D70007093290160932801F894E3E7F0E0808103
:100D80008260808378940895F8941092C50083E37C
:100D90008093C40088E98093C10086E08093C200FC
:100DA0001092C9021092C8021092C7021092C60295
:100DB000789408959091C9028091C8029817D1F350
:100DC000E091C802EF5FEF71E093C802F0E0EA57EC
:100DD000FD4F80819091C10090689093C10008956B
:100DE0002091C7022F5F2F719091C6022917E1F35E
:100DF000E22FF0E0EA55FD4F80832093C7028091F7
:100E0000C10080628093C1000895DC012091C90275
:100E10009091C8022917D1F3E091C802EF5FEF71FA
:100E2000E093C802F0E0EA57FD4F90812091C100A5
:100E300020682093C1009D939923E1F09A3011F02E
:100E40009D3021F7FD01319710822091C9029091C8
:100E5000C8022917D1F3E091C802EF5FEF71E09368
:100E6000C802F0E0EA57FD4F90819091C100906870
:100E70009093C1009A2F981B892F0895FC0130810F
:100E80003323C9F0DC0111962091C7022F5F2F7127
:100E90009091C6022917E1F3E22FF0E0EA55FD4FE9
:100EA00030832093C7029091C10090629093C1005B
:100EB0003D913111E9CF08951F920F920FB60F9215
:100EC00011240BB60F928F939F93EF93FF93909102
:100ED000C600E091C902EF5FEF718091C802E81788
:100EE00089F0E093C902F0E0EA57FD4F9083FF914B
:100EF000EF919F918F910F900BBE0F900FBE0F90AF
:100F00001F9018958091C1008F778093C100EFCF1B
:100F10001F920F920FB60F9211240BB60F928F9360
:100F20009F93EF93FF939091C7028091C602981709
:100F3000B9F0E091C602EF5FEF71E093C602F0E016
:100F4000EA55FD4F80818093C600FF91EF919F91FC
:100F50008F910F900BBE0F900FBE0F901F901895A2
:100F60008091C1008F7D8093C100EFCFCF93DF933D
:100F7000CDB7DEB7E2970FB6F894DEBF0FBECDBF98
:100F80000E94C4061DECE12E1CECF12E0CEC1DE3BE
:100F900020E030E0A9016DEC7CEC8CEC9EE30E943B
:100FA0008C049093CF028093CE0261E070E00E94A7
:100FB000FB0461E081E00E94C201789486E0E6E0F3
:100FC000F2E0DE015A9601900D928A95E1F7FE015A
:100FD000B09683E1DF011D928A95E9F780E390E006
:100FE0009A8389837D9787E1DF011D928A95E9F7CE
:100FF0008E01065E1F4F9FE2E92E92E0F92E30C06F
:101000000E94F102CE0101960E94340BBC01809136
:10101000CE029091CF020E94FF04E091CE02F091A7
:10102000CF0287818F9386818F9385818F9384816F
:101030008F9383818F9382818F93FF92EF921F937F
:101040000F930E94610B0E94F1020E94F10269E17C
:10105000C8010E94B3020FB6F894DEBF0FBECDBF29
:101060000E94F1020E94F1028091F402882341F271
:1010700064EF72E0CE0101960E94520BC1CFEE0FD9
:10108000FF1F881F8BBF0790F691E02D19945058D1
:10109000BB27AA270E945F080C9467090E94590980
:1010A00038F00E94600920F039F49F3F19F426F4CB
:1010B0000C9456090EF4E095E7FB0C945009E92FC7
:1010C0000E94780958F3BA176207730784079507D7
:1010D00020F079F4A6F50C949A090EF4E0950B2E05
:1010E000BA2FA02D0B01B90190010C01CA01A0017A
:1010F0001124FF27591B99F0593F50F4503E68F1D5
:101100001A16F040A22F232F342F4427585FF3CF15
:10111000469537952795A795F0405395C9F77EF4E6
:101120001F16BA0B620B730B840BBAF09150A1F02F
:10113000FF0FBB1F661F771F881FC2F70EC0BA0FB5
:10114000621F731F841F48F4879577956795B7953D
:10115000F7959E3F08F0B0CF9395880F08F0992738
:10116000EE0F9795879508950E942C0908F481E069
:1011700008950E94C0086894B1110C949B090895C9
:101180000E94800988F09F5798F0B92F9927B7518E
:10119000B0F0E1F0660F771F881F991F1AF0BA951B
:1011A000C9F714C0B13091F00E949A09B1E00895D6
:1011B0000C949A09672F782F8827B85F39F0B93FC8
:1011C000CCF3869577956795B395D9F73EF49095CE
:1011D0008095709561957F4F8F4F9F4F0895E8944C
:1011E00009C097FB3EF490958095709561957F4F6F
:1011F0008F4F9F4F9923A9F0F92F96E9BB2793951D
:10120000F695879577956795B795F111F8CFFAF42C
:10121000BB0F11F460FF1BC06F5F7F4F8F4F9F4F5D
:1012200016C0882311F096E911C0772321F09EE8BB
:10123000872F762F05C0662371F096E8862F70E021
:1012400060E02AF09A95660F771F881FDAF7880FFB
:101250009695879597F90895990F0008550FAA0B51
:10126000E0E8FEEF16161706E807F907C0F01216B9
:101270001306E407F50798F0621B730B840B950BBC
:1012800039F40A2661F0232B242B252B21F4089511
:101290000A2609F4A140A6958FEF811D811D0895AE
:1012A00097F99F6780E870E060E008959FEF80EC19
:1012B000089500240A9416161706180609060895BC
:1012C00000240A9412161306140605060895092E22
:1012D0000394000C11F4882352F0BB0F40F4BF2B91
:1012E00011F460FF04C06F5F7F4F8F4F9F4F0895D1
:1012F00057FD9058440F551F59F05F3F71F04795C7
:10130000880F97FB991F61F09F3F79F087950895AB
:10131000121613061406551FF2CF4695F1DF08C0CA
:10132000161617061806991FF1CF869571056105E7
:1013300008940895E894BB2766277727CB0197F98F
:1013400008950E942C0908F48FEF08950E94B909AE
:101350000C9467090E94590938F00E94600920F036
:10136000952311F00C9450090C94560911240C94F7
:101370009B090E94780970F3959FC1F3950F50E087
:10138000551F629FF001729FBB27F00DB11D639F37
:10139000AA27F00DB11DAA1F649F6627B00DA11DDD
:1013A000661F829F2227B00DA11D621F739FB00D83
:1013B000A11D621F839FA00D611D221F749F3327F3
:1013C000A00D611D231F849F600D211D822F762F8C
:1013D0006A2F11249F5750409AF0F1F088234AF069
:1013E000EE0FFF1FBB1F661F771F881F91505040D5
:1013F000A9F79E3F510580F00C9450090C949B096D
:101400005F3FE4F3983ED4F3869577956795B7955B
:10141000F795E7959F5FC1F7FE2B880F911D969575
:10142000879597F908950F931F93CF93DF93823099
:10143000910510F482E090E0E0911A03F0911B0313
:1014400020E030E0A0E0B0E0309719F14081518118
:101450000281138148175907C8F08417950769F46A
:10146000109731F012960C93129713961C9327C085
:1014700000931A0310931B0322C02115310519F0A4
:101480004217530718F49A01BD01EF01DF01F8017B
:10149000DBCF21153105F9F0281B390B243031053C
:1014A00080F48A819B816115710521F0FB01938392
:1014B000828304C090931B0380931A03FE0132962B
:1014C00044C0FE01E20FF31F819391932250310932
:1014D000398328833AC02091180330911903232BB4
:1014E00041F42091020230910302309319032093BA
:1014F000180320910002309101022115310541F4B9
:101500002DB73EB74091040250910502241B350BC4
:10151000E0911803F0911903E217F307A0F42E1BD2
:101520003F0B2817390778F0AC014E5F5F4F241747
:10153000350748F04E0F5F1F50931903409318036F
:101540008193919302C0E0E0F0E0CF01DF91CF9171
:101550001F910F910895CF93DF93009709F481C0F5
:10156000FC01329713821282A0911A03B0911B03DF
:10157000109781F420813181820F931F20911803ED
:10158000309119032817390751F5F0931903E093A7
:10159000180367C0ED0120E030E0CE17DF0740F40C
:1015A0004A815B819E0141155105F1F0EA01F5CFB9
:1015B000D383C28340815181840F951FC817D907F7
:1015C00059F488819981840F951F029691838083B5
:1015D0008A819B81938382832115310529F4F093BD
:1015E0001B03E0931A033DC0E901FB83EA834991A1
:1015F0005991C40FD51FEC17FD0761F480819181CB
:10160000840F951F0296E9019983888382819381D3
:101610009B838A83E0E0F0E012968D919C91139772
:10162000009719F0FD01DC01F7CF8D919C91119786
:101630009D012E5F3F4F820F931F20911803309121
:1016400019032817390769F4309729F410921B03FE
:1016500010921A0302C013821282B0931903A0934E
:101660001803DF91CF910895FC0188279927E8940A
:1016700021912032E9F3293010F02E30C8F32B32BB
:1016800041F02D3239F4689404C00E94590B820F46
:10169000911D219120532A30C0F31EF4909581951D
:1016A0009F4F0895FB01DC0101900D920020E1F7AE
:1016B00008957AE0979F902D879F802D910D11249A
:1016C00008950F931F93CF93DF93CDB7DEB72E9777
:1016D0000FB6F894DEBF0FBECDBF0E891F8986E01E
:1016E0008C831A8309838FEF9FE79E838D83AE01DE
:1016F000465E5F4F688D798DCE0101960E94900BFA
:10170000EF81F885E00FF11F10822E960FB6F89446
:10171000DEBF0FBECDBFDF91CF911F910F91089516
:101720002F923F924F925F926F927F928F929F92F1
:10173000AF92BF92CF92DF92EF92FF920F931F93DF
:10174000CF93DF93CDB7DEB72B970FB6F894DEBFFC
:101750000FBECDBF6C017B018A01FC01178216828E
:10176000838181FFCCC1CE0101963C01F6019381BA
:10177000F70193FD859193FF81917F01882309F4FF
:10178000BAC1853239F493FD859193FF81917F0130
:10179000853229F4B60190E00E94B00DE7CF912C7C
:1017A000212C312CFFE1F315D8F08B3279F038F48D
:1017B000803279F08332A1F4232D20611DC08D3257
:1017C00061F0803369F4232D216016C0832D82607F
:1017D000382EE32DE4603E2E2AC0F32DF8601DC0A4
:1017E00037FC2DC020ED280F2A3040F08E32B9F49E
:1017F00036FC81C1232D2064322E19C036FE06C06E
:101800008AE0989E200D1124922E11C0EAE02E9EAF
:10181000200D1124222EF32DF0623F2E08C08C36AD
:1018200021F4832D8068382E02C0883641F4F701F8
:1018300093FD859193FF81917F018111B3CF982F03
:101840009F7D9554933028F40C5F1F4F9FE399833D
:101850000DC0833631F0833771F0833509F059C0FC
:1018600021C0F801808189830E5F1F4F88248394F3
:10187000912C530113C02801F2E04F0E511CF801C6
:10188000A080B18036FE03C0692D70E002C06FEF0A
:101890007FEFC5010E94A50D4C018201F32DFF775A
:1018A0003F2E16C0280122E0420E511CF801A080F4
:1018B000B18036FE03C0692D70E002C06FEF7FEF8C
:1018C000C5010E949A0D4C01F32DF0683F2E820154
:1018D00033FC1BC0822D90E088169906B0F4B60147
:1018E00080E290E00E94B00D2A94F4CFF50137FC1D
:1018F000859137FE81915F01B60190E00E94B00DA5
:1019000021102A9421E0821A91088114910471F720
:10191000E8C0843611F0893641F5F80137FE07C07A
:1019200060817181828193810C5F1F4F08C060814B
:101930007181072E000C880B990B0E5F1F4FF32D42
:10194000FF763F2E97FF09C0909580957095619521
:101950007F4F8F4F9F4FF0683F2E2AE030E0A3016A
:101960000E94EC0D882E861845C0853731F4232D52
:101970002F7EB22E2AE030E025C0932D997FB92E1C
:101980008F36C1F018F4883579F0B5C0803719F07A
:10199000883721F0B0C0E92FE061BE2EB4FE0DC043
:1019A000FB2DF460BF2E09C034FE0AC0292F26602B
:1019B000B22E06C028E030E005C020E130E002C0D1
:1019C00020E132E0F801B7FE07C0608171818281B9
:1019D00093810C5F1F4F06C06081718180E090E0B1
:1019E0000E5F1F4FA3010E94EC0D882E8618FB2D61
:1019F000FF773F2E36FE0DC0232D2E7FA22E891499
:101A000058F434FE0BC032FC09C0832D8E7EA82E04
:101A100005C0B82CA32C03C0B82C01C0B92CA4FE5F
:101A20000FC0FE01E80DF11D8081803321F49A2D55
:101A3000997EA92E09C0A2FE06C0B394B39404C037
:101A40008A2D867809F0B394A3FC11C0A0FE06C0CD
:101A5000B21488F4280C922C9B180EC0B21460F4B7
:101A6000B60180E290E00E94B00DB394F7CFB214BB
:101A700018F42B1802C0982C212CA4FE10C0B6011B
:101A800080E390E00E94B00DA2FE17C0A1FC03C04D
:101A900088E790E002C088E590E0B6010CC08A2D8E
:101AA000867859F0A1FE02C08BE201C080E2A7FC5B
:101AB0008DE2B60190E00E94B00D891438F4B601B1
:101AC00080E390E00E94B00D9A94F7CF8A94F301DE
:101AD000E80DF11D8081B60190E00E94B00D8110EB
:101AE000F5CF222009F442CEB60180E290E00E94B8
:101AF000B00D2A94F6CFF6018681978102C08FEF50
:101B00009FEF2B960FB6F894DEBF0FBECDBFDF91CF
:101B1000CF911F910F91FF90EF90DF90CF90BF90EA
:101B2000AF909F908F907F906F905F904F903F907D
:101B30002F900895FC010590615070400110D8F776
:101B4000809590958E0F9F1F0895FC016150704005
:101B500001900110D8F7809590958E0F9F1F0895E2
:101B60000F931F93CF93DF93FB01238121FD03C0CC
:101B70008FEF9FEF2CC022FF16C046815781248132
:101B800035814217530744F4A081B1819D012F5F35
:101B90003F4F318320838C93268137812F5F3F4FC6
:101BA0003783268314C08B01EC01FB010084F1858F
:101BB000E02D1995892BE1F6D80116968D919C910F
:101BC0001797019617969C938E931697CE01DF91E7
:101BD000CF911F910F910895FA01AA27283051F152
:101BE000203181F1E8946F936E7F6E5F7F4F8F4F4E
:101BF0009F4FAF4FB1E03ED0B4E03CD0670F781FAD
:101C0000891F9A1FA11D680F791F8A1F911DA11D91
:101C10006A0F711D811D911DA11D20D009F46894CA
:101C20003F912AE0269F11243019305D3193DEF672
:101C3000CF010895462F4770405D4193B3E00FD028
:101C4000C9F7F6CF462F4F70405D4A3318F0495D13
:101C500031FD4052419302D0A9F7EACFB4E0A695F6
:101C60009795879577956795BA95C9F70097610518
:101C7000710508959B01AC010A2E0694579547956E
:101C800037952795BA95C9F7620F731F841F951F63
:081C9000A01D0895F894FFCF98
:101C980000001C032000302C302C30000000000015
:101CA800000000000000000000000000000000002C
:101CB80001FF00FF000001010000FF00FF010050CC
:101CC8003A25642C2043563A25642C2044563A255C
:021CD8006400A6
:00000001FF
